
/home/fenrir18/Desktop/Door_Lock/test_folder_v2/build/main.elf:     file format elf32-littlearm

Sections:
Idx Name          Size      VMA       LMA       File off  Algn
  0 .boot2        00000100  10000000  10000000  00001000  2**0
                  CONTENTS, ALLOC, LOAD, READONLY, CODE
  1 .text         00004f20  10000100  10000100  00001100  2**3
                  CONTENTS, ALLOC, LOAD, READONLY, CODE
  2 .rodata       000002ec  10005020  10005020  00006020  2**2
                  CONTENTS, ALLOC, LOAD, READONLY, DATA
  3 .binary_info  00000028  1000530c  1000530c  0000630c  2**2
                  CONTENTS, ALLOC, LOAD, DATA
  4 .ram_vector_table 000000c0  20000000  20000000  000074a4  2**2
                  CONTENTS
  5 .data         000003e4  200000c0  10005334  000070c0  2**4
                  CONTENTS, ALLOC, LOAD, READONLY, CODE
  6 .uninitialized_data 00000000  200004a4  200004a4  00007564  2**0
                  CONTENTS
  7 .scratch_x    00000000  20040000  20040000  00007564  2**0
                  CONTENTS
  8 .scratch_y    00000000  20041000  20041000  00007564  2**0
                  CONTENTS
  9 .bss          00000d88  200004a8  200004a8  000074a8  2**3
                  ALLOC
 10 .heap         00000800  20001230  20001230  00007564  2**2
                  CONTENTS, READONLY
 11 .stack_dummy  00000800  20041000  20041000  00007d80  2**5
                  CONTENTS, READONLY
 12 .ARM.attributes 00000028  00000000  00000000  00008580  2**0
                  CONTENTS, READONLY
 13 .comment      00000033  00000000  00000000  000085a8  2**0
                  CONTENTS, READONLY
 14 .debug_line   000001d2  00000000  00000000  000085db  2**0
                  CONTENTS, READONLY, DEBUGGING, OCTETS
 15 .debug_info   00000114  00000000  00000000  000087ad  2**0
                  CONTENTS, READONLY, DEBUGGING, OCTETS
 16 .debug_abbrev 000000a3  00000000  00000000  000088c1  2**0
                  CONTENTS, READONLY, DEBUGGING, OCTETS
 17 .debug_aranges 00000040  00000000  00000000  00008968  2**3
                  CONTENTS, READONLY, DEBUGGING, OCTETS
 18 .debug_str    00000232  00000000  00000000  000089a8  2**0
                  CONTENTS, READONLY, DEBUGGING, OCTETS
 19 .debug_loc    00000090  00000000  00000000  00008bda  2**0
                  CONTENTS, READONLY, DEBUGGING, OCTETS
 20 .debug_frame  00000028  00000000  00000000  00008c6c  2**2
                  CONTENTS, READONLY, DEBUGGING, OCTETS

/home/fenrir18/Desktop/Door_Lock/test_folder_v2/build/main.elf:     file format elf32-littlearm


Disassembly of section .boot2:

10000000 <__boot2_start__>:
10000000:	4b32b500 	.word	0x4b32b500
10000004:	60582021 	.word	0x60582021
10000008:	21026898 	.word	0x21026898
1000000c:	60984388 	.word	0x60984388
10000010:	611860d8 	.word	0x611860d8
10000014:	4b2e6158 	.word	0x4b2e6158
10000018:	60992100 	.word	0x60992100
1000001c:	61592102 	.word	0x61592102
10000020:	22f02101 	.word	0x22f02101
10000024:	492b5099 	.word	0x492b5099
10000028:	21016019 	.word	0x21016019
1000002c:	20356099 	.word	0x20356099
10000030:	f844f000 	.word	0xf844f000
10000034:	42902202 	.word	0x42902202
10000038:	2106d014 	.word	0x2106d014
1000003c:	f0006619 	.word	0xf0006619
10000040:	6e19f834 	.word	0x6e19f834
10000044:	66192101 	.word	0x66192101
10000048:	66182000 	.word	0x66182000
1000004c:	f000661a 	.word	0xf000661a
10000050:	6e19f82c 	.word	0x6e19f82c
10000054:	6e196e19 	.word	0x6e196e19
10000058:	f0002005 	.word	0xf0002005
1000005c:	2101f82f 	.word	0x2101f82f
10000060:	d1f94208 	.word	0xd1f94208
10000064:	60992100 	.word	0x60992100
10000068:	6019491b 	.word	0x6019491b
1000006c:	60592100 	.word	0x60592100
10000070:	481b491a 	.word	0x481b491a
10000074:	21016001 	.word	0x21016001
10000078:	21eb6099 	.word	0x21eb6099
1000007c:	21a06619 	.word	0x21a06619
10000080:	f0006619 	.word	0xf0006619
10000084:	2100f812 	.word	0x2100f812
10000088:	49166099 	.word	0x49166099
1000008c:	60014814 	.word	0x60014814
10000090:	60992101 	.word	0x60992101
10000094:	2800bc01 	.word	0x2800bc01
10000098:	4700d000 	.word	0x4700d000
1000009c:	49134812 	.word	0x49134812
100000a0:	c8036008 	.word	0xc8036008
100000a4:	8808f380 	.word	0x8808f380
100000a8:	b5034708 	.word	0xb5034708
100000ac:	20046a99 	.word	0x20046a99
100000b0:	d0fb4201 	.word	0xd0fb4201
100000b4:	42012001 	.word	0x42012001
100000b8:	bd03d1f8 	.word	0xbd03d1f8
100000bc:	6618b502 	.word	0x6618b502
100000c0:	f7ff6618 	.word	0xf7ff6618
100000c4:	6e18fff2 	.word	0x6e18fff2
100000c8:	bd026e18 	.word	0xbd026e18
100000cc:	40020000 	.word	0x40020000
100000d0:	18000000 	.word	0x18000000
100000d4:	00070000 	.word	0x00070000
100000d8:	005f0300 	.word	0x005f0300
100000dc:	00002221 	.word	0x00002221
100000e0:	180000f4 	.word	0x180000f4
100000e4:	a0002022 	.word	0xa0002022
100000e8:	10000100 	.word	0x10000100
100000ec:	e000ed08 	.word	0xe000ed08
	...
100000fc:	7a4eb274 	.word	0x7a4eb274

Disassembly of section .text:

10000100 <__VECTOR_TABLE>:
10000100:	20042000 	.word	0x20042000
10000104:	100001f7 	.word	0x100001f7
10000108:	100001c3 	.word	0x100001c3
1000010c:	100001c5 	.word	0x100001c5
10000110:	100001c1 	.word	0x100001c1
10000114:	100001c1 	.word	0x100001c1
10000118:	100001c1 	.word	0x100001c1
1000011c:	100001c1 	.word	0x100001c1
10000120:	100001c1 	.word	0x100001c1
10000124:	100001c1 	.word	0x100001c1
10000128:	100001c1 	.word	0x100001c1
1000012c:	100001c7 	.word	0x100001c7
10000130:	100001c1 	.word	0x100001c1
10000134:	100001c1 	.word	0x100001c1
10000138:	100001c9 	.word	0x100001c9
1000013c:	100001cb 	.word	0x100001cb
10000140:	100001cd 	.word	0x100001cd
10000144:	100001cd 	.word	0x100001cd
10000148:	100001cd 	.word	0x100001cd
1000014c:	100001cd 	.word	0x100001cd
10000150:	100001cd 	.word	0x100001cd
10000154:	100001cd 	.word	0x100001cd
10000158:	100001cd 	.word	0x100001cd
1000015c:	100001cd 	.word	0x100001cd
10000160:	100001cd 	.word	0x100001cd
10000164:	100001cd 	.word	0x100001cd
10000168:	100001cd 	.word	0x100001cd
1000016c:	100001cd 	.word	0x100001cd
10000170:	100001cd 	.word	0x100001cd
10000174:	100001cd 	.word	0x100001cd
10000178:	100001cd 	.word	0x100001cd
1000017c:	100001cd 	.word	0x100001cd
10000180:	100001cd 	.word	0x100001cd
10000184:	100001cd 	.word	0x100001cd
10000188:	100001cd 	.word	0x100001cd
1000018c:	100001cd 	.word	0x100001cd
10000190:	100001cd 	.word	0x100001cd
10000194:	100001cd 	.word	0x100001cd
10000198:	100001cd 	.word	0x100001cd
1000019c:	100001cd 	.word	0x100001cd
100001a0:	100001cd 	.word	0x100001cd
100001a4:	100001cd 	.word	0x100001cd
100001a8:	100001cd 	.word	0x100001cd
100001ac:	100001cd 	.word	0x100001cd
100001b0:	100001cd 	.word	0x100001cd
100001b4:	100001cd 	.word	0x100001cd
100001b8:	100001cd 	.word	0x100001cd
100001bc:	100001cd 	.word	0x100001cd

100001c0 <isr_invalid>:
100001c0:	be00      	bkpt	0x0000

100001c2 <isr_nmi>:
100001c2:	be00      	bkpt	0x0000

100001c4 <isr_hardfault>:
100001c4:	be00      	bkpt	0x0000

100001c6 <isr_svcall>:
100001c6:	be00      	bkpt	0x0000

100001c8 <isr_pendsv>:
100001c8:	be00      	bkpt	0x0000

100001ca <isr_systick>:
100001ca:	be00      	bkpt	0x0000

100001cc <__unhandled_user_irq>:
100001cc:	f000 f84b 	bl	10000266 <__get_current_exception>
100001d0:	3810      	subs	r0, #16

100001d2 <unhandled_user_irq_num_in_r0>:
100001d2:	be00      	bkpt	0x0000

100001d4 <binary_info_header>:
100001d4:	7188ebf2 	.word	0x7188ebf2
100001d8:	1000530c 	.word	0x1000530c
100001dc:	10005334 	.word	0x10005334
100001e0:	10000234 	.word	0x10000234
100001e4:	e71aa390 	.word	0xe71aa390

100001e8 <_entry_point>:
100001e8:	2000      	movs	r0, #0
100001ea:	4921      	ldr	r1, [pc, #132]	; (10000270 <__get_current_exception+0xa>)
100001ec:	6008      	str	r0, [r1, #0]
100001ee:	c806      	ldmia	r0!, {r1, r2}
100001f0:	f381 8808 	msr	MSP, r1
100001f4:	4710      	bx	r2

100001f6 <_reset_handler>:
100001f6:	481f      	ldr	r0, [pc, #124]	; (10000274 <__get_current_exception+0xe>)
100001f8:	6800      	ldr	r0, [r0, #0]
100001fa:	2800      	cmp	r0, #0
100001fc:	d12f      	bne.n	1000025e <hold_non_core0_in_bootrom>
100001fe:	a40d      	add	r4, pc, #52	; (adr r4, 10000234 <data_cpy_table>)
10000200:	cc0e      	ldmia	r4!, {r1, r2, r3}
10000202:	2900      	cmp	r1, #0
10000204:	d002      	beq.n	1000020c <_reset_handler+0x16>
10000206:	f000 f812 	bl	1000022e <data_cpy>
1000020a:	e7f9      	b.n	10000200 <_reset_handler+0xa>
1000020c:	491a      	ldr	r1, [pc, #104]	; (10000278 <__get_current_exception+0x12>)
1000020e:	4a1b      	ldr	r2, [pc, #108]	; (1000027c <__get_current_exception+0x16>)
10000210:	2000      	movs	r0, #0
10000212:	e000      	b.n	10000216 <bss_fill_test>

10000214 <bss_fill_loop>:
10000214:	c101      	stmia	r1!, {r0}

10000216 <bss_fill_test>:
10000216:	4291      	cmp	r1, r2
10000218:	d1fc      	bne.n	10000214 <bss_fill_loop>

1000021a <platform_entry>:
1000021a:	4919      	ldr	r1, [pc, #100]	; (10000280 <__get_current_exception+0x1a>)
1000021c:	4788      	blx	r1
1000021e:	4919      	ldr	r1, [pc, #100]	; (10000284 <__get_current_exception+0x1e>)
10000220:	4788      	blx	r1
10000222:	4919      	ldr	r1, [pc, #100]	; (10000288 <__get_current_exception+0x22>)
10000224:	4788      	blx	r1
10000226:	be00      	bkpt	0x0000
10000228:	e7fd      	b.n	10000226 <platform_entry+0xc>

1000022a <data_cpy_loop>:
1000022a:	c901      	ldmia	r1!, {r0}
1000022c:	c201      	stmia	r2!, {r0}

1000022e <data_cpy>:
1000022e:	429a      	cmp	r2, r3
10000230:	d3fb      	bcc.n	1000022a <data_cpy_loop>
10000232:	4770      	bx	lr

10000234 <data_cpy_table>:
10000234:	10005334 	.word	0x10005334
10000238:	200000c0 	.word	0x200000c0
1000023c:	200004a4 	.word	0x200004a4
10000240:	10005718 	.word	0x10005718
10000244:	20040000 	.word	0x20040000
10000248:	20040000 	.word	0x20040000
1000024c:	10005718 	.word	0x10005718
10000250:	20041000 	.word	0x20041000
10000254:	20041000 	.word	0x20041000
10000258:	00000000 	.word	0x00000000
1000025c:	4770      	bx	lr

1000025e <hold_non_core0_in_bootrom>:
1000025e:	480b      	ldr	r0, [pc, #44]	; (1000028c <__get_current_exception+0x26>)
10000260:	f001 fe7c 	bl	10001f5c <rom_func_lookup>
10000264:	4700      	bx	r0

10000266 <__get_current_exception>:
10000266:	f3ef 8005 	mrs	r0, IPSR
1000026a:	b2c0      	uxtb	r0, r0
1000026c:	4770      	bx	lr
1000026e:	0000      	.short	0x0000
10000270:	e000ed08 	.word	0xe000ed08
10000274:	d0000000 	.word	0xd0000000
10000278:	200004a8 	.word	0x200004a8
1000027c:	20001230 	.word	0x20001230
10000280:	10001679 	.word	0x10001679
10000284:	100003e1 	.word	0x100003e1
10000288:	10001769 	.word	0x10001769
1000028c:	00005657 	.word	0x00005657

10000290 <__bi_50>:
10000290:	50520006 5360b3ab 10005098              ..RP..`S.P..

1000029c <__bi_38>:
1000029c:	50520006 02031c86 100050a8              ..RP.....P..

100002a8 <__bi_30>:
100002a8:	50520006 9da22254 100050b0              ..RPT"...P..

100002b4 <__bi_22>:
100002b4:	50520005 68f465de 10005718              ..RP.e.h.W..

100002c0 <_init>:
100002c0:	b5f8      	push	{r3, r4, r5, r6, r7, lr}
100002c2:	46c0      	nop			; (mov r8, r8)

100002c4 <deregister_tm_clones>:
100002c4:	4804      	ldr	r0, [pc, #16]	; (100002d8 <deregister_tm_clones+0x14>)
100002c6:	4b05      	ldr	r3, [pc, #20]	; (100002dc <deregister_tm_clones+0x18>)
100002c8:	b510      	push	{r4, lr}
100002ca:	4283      	cmp	r3, r0
100002cc:	d003      	beq.n	100002d6 <deregister_tm_clones+0x12>
100002ce:	4b04      	ldr	r3, [pc, #16]	; (100002e0 <deregister_tm_clones+0x1c>)
100002d0:	2b00      	cmp	r3, #0
100002d2:	d000      	beq.n	100002d6 <deregister_tm_clones+0x12>
100002d4:	4798      	blx	r3
100002d6:	bd10      	pop	{r4, pc}
100002d8:	200004a4 	.word	0x200004a4
100002dc:	200004a4 	.word	0x200004a4
100002e0:	00000000 	.word	0x00000000

100002e4 <register_tm_clones>:
100002e4:	4806      	ldr	r0, [pc, #24]	; (10000300 <register_tm_clones+0x1c>)
100002e6:	4907      	ldr	r1, [pc, #28]	; (10000304 <register_tm_clones+0x20>)
100002e8:	1a09      	subs	r1, r1, r0
100002ea:	108b      	asrs	r3, r1, #2
100002ec:	0fc9      	lsrs	r1, r1, #31
100002ee:	18c9      	adds	r1, r1, r3
100002f0:	b510      	push	{r4, lr}
100002f2:	1049      	asrs	r1, r1, #1
100002f4:	d003      	beq.n	100002fe <register_tm_clones+0x1a>
100002f6:	4b04      	ldr	r3, [pc, #16]	; (10000308 <register_tm_clones+0x24>)
100002f8:	2b00      	cmp	r3, #0
100002fa:	d000      	beq.n	100002fe <register_tm_clones+0x1a>
100002fc:	4798      	blx	r3
100002fe:	bd10      	pop	{r4, pc}
10000300:	200004a4 	.word	0x200004a4
10000304:	200004a4 	.word	0x200004a4
10000308:	00000000 	.word	0x00000000

1000030c <__do_global_dtors_aux>:
1000030c:	b510      	push	{r4, lr}
1000030e:	4c07      	ldr	r4, [pc, #28]	; (1000032c <__do_global_dtors_aux+0x20>)
10000310:	7823      	ldrb	r3, [r4, #0]
10000312:	2b00      	cmp	r3, #0
10000314:	d109      	bne.n	1000032a <__do_global_dtors_aux+0x1e>
10000316:	f7ff ffd5 	bl	100002c4 <deregister_tm_clones>
1000031a:	4b05      	ldr	r3, [pc, #20]	; (10000330 <__do_global_dtors_aux+0x24>)
1000031c:	2b00      	cmp	r3, #0
1000031e:	d002      	beq.n	10000326 <__do_global_dtors_aux+0x1a>
10000320:	4804      	ldr	r0, [pc, #16]	; (10000334 <__do_global_dtors_aux+0x28>)
10000322:	e000      	b.n	10000326 <__do_global_dtors_aux+0x1a>
10000324:	bf00      	nop
10000326:	2301      	movs	r3, #1
10000328:	7023      	strb	r3, [r4, #0]
1000032a:	bd10      	pop	{r4, pc}
1000032c:	200007b0 	.word	0x200007b0
10000330:	00000000 	.word	0x00000000
10000334:	10005020 	.word	0x10005020

10000338 <frame_dummy>:
10000338:	4b05      	ldr	r3, [pc, #20]	; (10000350 <frame_dummy+0x18>)
1000033a:	b510      	push	{r4, lr}
1000033c:	2b00      	cmp	r3, #0
1000033e:	d003      	beq.n	10000348 <frame_dummy+0x10>
10000340:	4904      	ldr	r1, [pc, #16]	; (10000354 <frame_dummy+0x1c>)
10000342:	4805      	ldr	r0, [pc, #20]	; (10000358 <frame_dummy+0x20>)
10000344:	e000      	b.n	10000348 <frame_dummy+0x10>
10000346:	bf00      	nop
10000348:	f7ff ffcc 	bl	100002e4 <register_tm_clones>
1000034c:	bd10      	pop	{r4, pc}
1000034e:	46c0      	nop			; (mov r8, r8)
10000350:	00000000 	.word	0x00000000
10000354:	200007b4 	.word	0x200007b4
10000358:	10005020 	.word	0x10005020

1000035c <setServo>:
1000035c:	b5f8      	push	{r3, r4, r5, r6, r7, lr}
1000035e:	0005      	movs	r5, r0
10000360:	1c0e      	adds	r6, r1, #0
10000362:	2104      	movs	r1, #4
10000364:	f000 f8cc 	bl	10000500 <gpio_set_function>
10000368:	2200      	movs	r2, #0
1000036a:	072b      	lsls	r3, r5, #28
1000036c:	0f5b      	lsrs	r3, r3, #29
1000036e:	009c      	lsls	r4, r3, #2
10000370:	18e4      	adds	r4, r4, r3
10000372:	4b14      	ldr	r3, [pc, #80]	; (100003c4 <setServo+0x68>)
10000374:	00a4      	lsls	r4, r4, #2
10000376:	18e3      	adds	r3, r4, r3
10000378:	601a      	str	r2, [r3, #0]
1000037a:	609a      	str	r2, [r3, #8]
1000037c:	60da      	str	r2, [r3, #12]
1000037e:	4a12      	ldr	r2, [pc, #72]	; (100003c8 <setServo+0x6c>)
10000380:	2701      	movs	r7, #1
10000382:	611a      	str	r2, [r3, #16]
10000384:	2280      	movs	r2, #128	; 0x80
10000386:	00d2      	lsls	r2, r2, #3
10000388:	605a      	str	r2, [r3, #4]
1000038a:	601f      	str	r7, [r3, #0]
1000038c:	4b0f      	ldr	r3, [pc, #60]	; (100003cc <setServo+0x70>)
1000038e:	4910      	ldr	r1, [pc, #64]	; (100003d0 <setServo+0x74>)
10000390:	469c      	mov	ip, r3
10000392:	1c30      	adds	r0, r6, #0
10000394:	4464      	add	r4, ip
10000396:	f001 febc 	bl	10002112 <__wrap___aeabi_fdiv>
1000039a:	490e      	ldr	r1, [pc, #56]	; (100003d4 <setServo+0x78>)
1000039c:	f001 fecd 	bl	1000213a <__wrap___aeabi_fmul>
100003a0:	f001 fef4 	bl	1000218c <__wrap___aeabi_f2uiz>
100003a4:	b280      	uxth	r0, r0
100003a6:	422f      	tst	r7, r5
100003a8:	d108      	bne.n	100003bc <setServo+0x60>
100003aa:	4b0b      	ldr	r3, [pc, #44]	; (100003d8 <setServo+0x7c>)
100003ac:	6822      	ldr	r2, [r4, #0]
100003ae:	4050      	eors	r0, r2
100003b0:	2280      	movs	r2, #128	; 0x80
100003b2:	0152      	lsls	r2, r2, #5
100003b4:	4003      	ands	r3, r0
100003b6:	4314      	orrs	r4, r2
100003b8:	6023      	str	r3, [r4, #0]
100003ba:	bdf8      	pop	{r3, r4, r5, r6, r7, pc}
100003bc:	4b07      	ldr	r3, [pc, #28]	; (100003dc <setServo+0x80>)
100003be:	0400      	lsls	r0, r0, #16
100003c0:	e7f4      	b.n	100003ac <setServo+0x50>
100003c2:	46c0      	nop			; (mov r8, r8)
100003c4:	40050000 	.word	0x40050000
100003c8:	00009896 	.word	0x00009896
100003cc:	4005000c 	.word	0x4005000c
100003d0:	469c4000 	.word	0x469c4000
100003d4:	47189600 	.word	0x47189600
100003d8:	0000ffff 	.word	0x0000ffff
100003dc:	ffff0000 	.word	0xffff0000

100003e0 <main>:
100003e0:	b5f8      	push	{r3, r4, r5, r6, r7, lr}
100003e2:	f002 f8a1 	bl	10002528 <stdio_init_all>
100003e6:	2019      	movs	r0, #25
100003e8:	f000 f8ba 	bl	10000560 <gpio_init>
100003ec:	24d0      	movs	r4, #208	; 0xd0
100003ee:	2380      	movs	r3, #128	; 0x80
100003f0:	0624      	lsls	r4, r4, #24
100003f2:	049b      	lsls	r3, r3, #18
100003f4:	6263      	str	r3, [r4, #36]	; 0x24
100003f6:	201c      	movs	r0, #28
100003f8:	61a3      	str	r3, [r4, #24]
100003fa:	f000 f8b1 	bl	10000560 <gpio_init>
100003fe:	2380      	movs	r3, #128	; 0x80
10000400:	055b      	lsls	r3, r3, #21
10000402:	62a3      	str	r3, [r4, #40]	; 0x28
10000404:	2200      	movs	r2, #0
10000406:	2101      	movs	r1, #1
10000408:	201c      	movs	r0, #28
1000040a:	f000 f891 	bl	10000530 <gpio_set_pulls>
1000040e:	4c32      	ldr	r4, [pc, #200]	; (100004d8 <main+0xf8>)
10000410:	2600      	movs	r6, #0
10000412:	6820      	ldr	r0, [r4, #0]
10000414:	f001 fe98 	bl	10002148 <__wrap___aeabi_i2f>
10000418:	4d30      	ldr	r5, [pc, #192]	; (100004dc <main+0xfc>)
1000041a:	1c01      	adds	r1, r0, #0
1000041c:	6828      	ldr	r0, [r5, #0]
1000041e:	f7ff ff9d 	bl	1000035c <setServo>
10000422:	e034      	b.n	1000048e <main+0xae>
10000424:	2196      	movs	r1, #150	; 0x96
10000426:	0109      	lsls	r1, r1, #4
10000428:	6021      	str	r1, [r4, #0]
1000042a:	2180      	movs	r1, #128	; 0x80
1000042c:	0489      	lsls	r1, r1, #18
1000042e:	6159      	str	r1, [r3, #20]
10000430:	685b      	ldr	r3, [r3, #4]
10000432:	0f1b      	lsrs	r3, r3, #28
10000434:	421a      	tst	r2, r3
10000436:	d03e      	beq.n	100004b6 <main+0xd6>
10000438:	23c8      	movs	r3, #200	; 0xc8
1000043a:	005b      	lsls	r3, r3, #1
1000043c:	6023      	str	r3, [r4, #0]
1000043e:	4828      	ldr	r0, [pc, #160]	; (100004e0 <main+0x100>)
10000440:	f000 fd38 	bl	10000eb4 <sleep_ms>
10000444:	23d0      	movs	r3, #208	; 0xd0
10000446:	2280      	movs	r2, #128	; 0x80
10000448:	061b      	lsls	r3, r3, #24
1000044a:	0492      	lsls	r2, r2, #18
1000044c:	619a      	str	r2, [r3, #24]
1000044e:	6820      	ldr	r0, [r4, #0]
10000450:	f001 fe7a 	bl	10002148 <__wrap___aeabi_i2f>
10000454:	4923      	ldr	r1, [pc, #140]	; (100004e4 <main+0x104>)
10000456:	f001 fe5c 	bl	10002112 <__wrap___aeabi_fdiv>
1000045a:	4923      	ldr	r1, [pc, #140]	; (100004e8 <main+0x108>)
1000045c:	f001 fe6d 	bl	1000213a <__wrap___aeabi_fmul>
10000460:	f001 fe94 	bl	1000218c <__wrap___aeabi_f2uiz>
10000464:	2600      	movs	r6, #0
10000466:	b287      	uxth	r7, r0
10000468:	682a      	ldr	r2, [r5, #0]
1000046a:	0711      	lsls	r1, r2, #28
1000046c:	0f49      	lsrs	r1, r1, #29
1000046e:	008b      	lsls	r3, r1, #2
10000470:	185b      	adds	r3, r3, r1
10000472:	491e      	ldr	r1, [pc, #120]	; (100004ec <main+0x10c>)
10000474:	009b      	lsls	r3, r3, #2
10000476:	468c      	mov	ip, r1
10000478:	4463      	add	r3, ip
1000047a:	07d2      	lsls	r2, r2, #31
1000047c:	d418      	bmi.n	100004b0 <main+0xd0>
1000047e:	4a1c      	ldr	r2, [pc, #112]	; (100004f0 <main+0x110>)
10000480:	2180      	movs	r1, #128	; 0x80
10000482:	6818      	ldr	r0, [r3, #0]
10000484:	0149      	lsls	r1, r1, #5
10000486:	4078      	eors	r0, r7
10000488:	4002      	ands	r2, r0
1000048a:	430b      	orrs	r3, r1
1000048c:	601a      	str	r2, [r3, #0]
1000048e:	23d0      	movs	r3, #208	; 0xd0
10000490:	061b      	lsls	r3, r3, #24
10000492:	6859      	ldr	r1, [r3, #4]
10000494:	2201      	movs	r2, #1
10000496:	00c9      	lsls	r1, r1, #3
10000498:	d5c4      	bpl.n	10000424 <main+0x44>
1000049a:	685b      	ldr	r3, [r3, #4]
1000049c:	0f1b      	lsrs	r3, r3, #28
1000049e:	421a      	tst	r2, r3
100004a0:	d00c      	beq.n	100004bc <main+0xdc>
100004a2:	23c8      	movs	r3, #200	; 0xc8
100004a4:	005b      	lsls	r3, r3, #1
100004a6:	6023      	str	r3, [r4, #0]
100004a8:	2e01      	cmp	r6, #1
100004aa:	d0c8      	beq.n	1000043e <main+0x5e>
100004ac:	4f11      	ldr	r7, [pc, #68]	; (100004f4 <main+0x114>)
100004ae:	e7db      	b.n	10000468 <main+0x88>
100004b0:	4a11      	ldr	r2, [pc, #68]	; (100004f8 <main+0x118>)
100004b2:	043f      	lsls	r7, r7, #16
100004b4:	e7e4      	b.n	10000480 <main+0xa0>
100004b6:	2601      	movs	r6, #1
100004b8:	4f10      	ldr	r7, [pc, #64]	; (100004fc <main+0x11c>)
100004ba:	e7d5      	b.n	10000468 <main+0x88>
100004bc:	6820      	ldr	r0, [r4, #0]
100004be:	f001 fe43 	bl	10002148 <__wrap___aeabi_i2f>
100004c2:	4908      	ldr	r1, [pc, #32]	; (100004e4 <main+0x104>)
100004c4:	f001 fe25 	bl	10002112 <__wrap___aeabi_fdiv>
100004c8:	4907      	ldr	r1, [pc, #28]	; (100004e8 <main+0x108>)
100004ca:	f001 fe36 	bl	1000213a <__wrap___aeabi_fmul>
100004ce:	f001 fe5d 	bl	1000218c <__wrap___aeabi_f2uiz>
100004d2:	b287      	uxth	r7, r0
100004d4:	e7c8      	b.n	10000468 <main+0x88>
100004d6:	46c0      	nop			; (mov r8, r8)
100004d8:	20000388 	.word	0x20000388
100004dc:	2000038c 	.word	0x2000038c
100004e0:	00001388 	.word	0x00001388
100004e4:	469c4000 	.word	0x469c4000
100004e8:	47189600 	.word	0x47189600
100004ec:	4005000c 	.word	0x4005000c
100004f0:	0000ffff 	.word	0x0000ffff
100004f4:	0000030d 	.word	0x0000030d
100004f8:	ffff0000 	.word	0xffff0000
100004fc:	0000124f 	.word	0x0000124f

10000500 <gpio_set_function>:
10000500:	4a09      	ldr	r2, [pc, #36]	; (10000528 <gpio_set_function+0x28>)
10000502:	0083      	lsls	r3, r0, #2
10000504:	4694      	mov	ip, r2
10000506:	2240      	movs	r2, #64	; 0x40
10000508:	4463      	add	r3, ip
1000050a:	b510      	push	{r4, lr}
1000050c:	681c      	ldr	r4, [r3, #0]
1000050e:	00c0      	lsls	r0, r0, #3
10000510:	4062      	eors	r2, r4
10000512:	24c0      	movs	r4, #192	; 0xc0
10000514:	4014      	ands	r4, r2
10000516:	2280      	movs	r2, #128	; 0x80
10000518:	0152      	lsls	r2, r2, #5
1000051a:	4313      	orrs	r3, r2
1000051c:	601c      	str	r4, [r3, #0]
1000051e:	4b03      	ldr	r3, [pc, #12]	; (1000052c <gpio_set_function+0x2c>)
10000520:	469c      	mov	ip, r3
10000522:	4460      	add	r0, ip
10000524:	6041      	str	r1, [r0, #4]
10000526:	bd10      	pop	{r4, pc}
10000528:	4001c004 	.word	0x4001c004
1000052c:	40014000 	.word	0x40014000

10000530 <gpio_set_pulls>:
10000530:	4b0a      	ldr	r3, [pc, #40]	; (1000055c <gpio_set_pulls+0x2c>)
10000532:	0080      	lsls	r0, r0, #2
10000534:	469c      	mov	ip, r3
10000536:	2304      	movs	r3, #4
10000538:	4460      	add	r0, ip
1000053a:	2900      	cmp	r1, #0
1000053c:	d001      	beq.n	10000542 <gpio_set_pulls+0x12>
1000053e:	230c      	movs	r3, #12
10000540:	2108      	movs	r1, #8
10000542:	2a00      	cmp	r2, #0
10000544:	d100      	bne.n	10000548 <gpio_set_pulls+0x18>
10000546:	000b      	movs	r3, r1
10000548:	6802      	ldr	r2, [r0, #0]
1000054a:	4053      	eors	r3, r2
1000054c:	220c      	movs	r2, #12
1000054e:	401a      	ands	r2, r3
10000550:	2380      	movs	r3, #128	; 0x80
10000552:	015b      	lsls	r3, r3, #5
10000554:	4318      	orrs	r0, r3
10000556:	6002      	str	r2, [r0, #0]
10000558:	4770      	bx	lr
1000055a:	46c0      	nop			; (mov r8, r8)
1000055c:	4001c004 	.word	0x4001c004

10000560 <gpio_init>:
10000560:	2301      	movs	r3, #1
10000562:	22d0      	movs	r2, #208	; 0xd0
10000564:	4083      	lsls	r3, r0
10000566:	0612      	lsls	r2, r2, #24
10000568:	6293      	str	r3, [r2, #40]	; 0x28
1000056a:	6193      	str	r3, [r2, #24]
1000056c:	4a09      	ldr	r2, [pc, #36]	; (10000594 <gpio_init+0x34>)
1000056e:	0083      	lsls	r3, r0, #2
10000570:	4694      	mov	ip, r2
10000572:	2240      	movs	r2, #64	; 0x40
10000574:	4463      	add	r3, ip
10000576:	6819      	ldr	r1, [r3, #0]
10000578:	00c0      	lsls	r0, r0, #3
1000057a:	404a      	eors	r2, r1
1000057c:	21c0      	movs	r1, #192	; 0xc0
1000057e:	4011      	ands	r1, r2
10000580:	2280      	movs	r2, #128	; 0x80
10000582:	0152      	lsls	r2, r2, #5
10000584:	4313      	orrs	r3, r2
10000586:	6019      	str	r1, [r3, #0]
10000588:	4b03      	ldr	r3, [pc, #12]	; (10000598 <gpio_init+0x38>)
1000058a:	469c      	mov	ip, r3
1000058c:	2305      	movs	r3, #5
1000058e:	4460      	add	r0, ip
10000590:	6043      	str	r3, [r0, #4]
10000592:	4770      	bx	lr
10000594:	4001c004 	.word	0x4001c004
10000598:	40014000 	.word	0x40014000

1000059c <hw_claim_or_assert>:
1000059c:	b570      	push	{r4, r5, r6, lr}
1000059e:	f3ef 8c10 	mrs	ip, PRIMASK
100005a2:	b672      	cpsid	i
100005a4:	4d0d      	ldr	r5, [pc, #52]	; (100005dc <hw_claim_or_assert+0x40>)
100005a6:	682b      	ldr	r3, [r5, #0]
100005a8:	2b00      	cmp	r3, #0
100005aa:	d0fc      	beq.n	100005a6 <hw_claim_or_assert+0xa>
100005ac:	f3bf 8f5f 	dmb	sy
100005b0:	2407      	movs	r4, #7
100005b2:	08cb      	lsrs	r3, r1, #3
100005b4:	18c6      	adds	r6, r0, r3
100005b6:	5cc0      	ldrb	r0, [r0, r3]
100005b8:	2301      	movs	r3, #1
100005ba:	400c      	ands	r4, r1
100005bc:	40a3      	lsls	r3, r4
100005be:	001c      	movs	r4, r3
100005c0:	4004      	ands	r4, r0
100005c2:	4203      	tst	r3, r0
100005c4:	d107      	bne.n	100005d6 <hw_claim_or_assert+0x3a>
100005c6:	4303      	orrs	r3, r0
100005c8:	7033      	strb	r3, [r6, #0]
100005ca:	f3bf 8f5f 	dmb	sy
100005ce:	602c      	str	r4, [r5, #0]
100005d0:	f38c 8810 	msr	PRIMASK, ip
100005d4:	bd70      	pop	{r4, r5, r6, pc}
100005d6:	0010      	movs	r0, r2
100005d8:	f001 f8c8 	bl	1000176c <panic>
100005dc:	d000012c 	.word	0xd000012c

100005e0 <hw_claim_unused_from_range>:
100005e0:	b5f8      	push	{r3, r4, r5, r6, r7, lr}
100005e2:	4647      	mov	r7, r8
100005e4:	46ce      	mov	lr, r9
100005e6:	4688      	mov	r8, r1
100005e8:	b580      	push	{r7, lr}
100005ea:	f3ef 8c10 	mrs	ip, PRIMASK
100005ee:	b672      	cpsid	i
100005f0:	4d21      	ldr	r5, [pc, #132]	; (10000678 <hw_claim_unused_from_range+0x98>)
100005f2:	682c      	ldr	r4, [r5, #0]
100005f4:	2c00      	cmp	r4, #0
100005f6:	d0fc      	beq.n	100005f2 <hw_claim_unused_from_range+0x12>
100005f8:	f3bf 8f5f 	dmb	sy
100005fc:	429a      	cmp	r2, r3
100005fe:	d82c      	bhi.n	1000065a <hw_claim_unused_from_range+0x7a>
10000600:	08d4      	lsrs	r4, r2, #3
10000602:	2707      	movs	r7, #7
10000604:	5d05      	ldrb	r5, [r0, r4]
10000606:	1906      	adds	r6, r0, r4
10000608:	2401      	movs	r4, #1
1000060a:	4017      	ands	r7, r2
1000060c:	40bc      	lsls	r4, r7
1000060e:	422c      	tst	r4, r5
10000610:	d01f      	beq.n	10000652 <hw_claim_unused_from_range+0x72>
10000612:	2107      	movs	r1, #7
10000614:	2701      	movs	r7, #1
10000616:	4689      	mov	r9, r1
10000618:	e009      	b.n	1000062e <hw_claim_unused_from_range+0x4e>
1000061a:	08d4      	lsrs	r4, r2, #3
1000061c:	5d05      	ldrb	r5, [r0, r4]
1000061e:	1906      	adds	r6, r0, r4
10000620:	464c      	mov	r4, r9
10000622:	0039      	movs	r1, r7
10000624:	4014      	ands	r4, r2
10000626:	40a1      	lsls	r1, r4
10000628:	000c      	movs	r4, r1
1000062a:	4229      	tst	r1, r5
1000062c:	d011      	beq.n	10000652 <hw_claim_unused_from_range+0x72>
1000062e:	3201      	adds	r2, #1
10000630:	4293      	cmp	r3, r2
10000632:	d2f2      	bcs.n	1000061a <hw_claim_unused_from_range+0x3a>
10000634:	2001      	movs	r0, #1
10000636:	4240      	negs	r0, r0
10000638:	f3bf 8f5f 	dmb	sy
1000063c:	2200      	movs	r2, #0
1000063e:	4b0e      	ldr	r3, [pc, #56]	; (10000678 <hw_claim_unused_from_range+0x98>)
10000640:	601a      	str	r2, [r3, #0]
10000642:	f38c 8810 	msr	PRIMASK, ip
10000646:	2800      	cmp	r0, #0
10000648:	db0f      	blt.n	1000066a <hw_claim_unused_from_range+0x8a>
1000064a:	bcc0      	pop	{r6, r7}
1000064c:	46b9      	mov	r9, r7
1000064e:	46b0      	mov	r8, r6
10000650:	bdf8      	pop	{r3, r4, r5, r6, r7, pc}
10000652:	432c      	orrs	r4, r5
10000654:	0010      	movs	r0, r2
10000656:	7034      	strb	r4, [r6, #0]
10000658:	e7ee      	b.n	10000638 <hw_claim_unused_from_range+0x58>
1000065a:	f3bf 8f5f 	dmb	sy
1000065e:	2300      	movs	r3, #0
10000660:	602b      	str	r3, [r5, #0]
10000662:	f38c 8810 	msr	PRIMASK, ip
10000666:	2001      	movs	r0, #1
10000668:	4240      	negs	r0, r0
1000066a:	4643      	mov	r3, r8
1000066c:	2b00      	cmp	r3, #0
1000066e:	d0ec      	beq.n	1000064a <hw_claim_unused_from_range+0x6a>
10000670:	9808      	ldr	r0, [sp, #32]
10000672:	f001 f87b 	bl	1000176c <panic>
10000676:	46c0      	nop			; (mov r8, r8)
10000678:	d000012c 	.word	0xd000012c

1000067c <running_on_fpga>:
1000067c:	4b02      	ldr	r3, [pc, #8]	; (10000688 <running_on_fpga+0xc>)
1000067e:	6818      	ldr	r0, [r3, #0]
10000680:	0780      	lsls	r0, r0, #30
10000682:	0fc0      	lsrs	r0, r0, #31
10000684:	4770      	bx	lr
10000686:	46c0      	nop			; (mov r8, r8)
10000688:	4006c000 	.word	0x4006c000

1000068c <spin_locks_reset>:
1000068c:	2100      	movs	r1, #0
1000068e:	4b04      	ldr	r3, [pc, #16]	; (100006a0 <spin_locks_reset+0x14>)
10000690:	4a04      	ldr	r2, [pc, #16]	; (100006a4 <spin_locks_reset+0x18>)
10000692:	f3bf 8f5f 	dmb	sy
10000696:	c302      	stmia	r3!, {r1}
10000698:	4293      	cmp	r3, r2
1000069a:	d1fa      	bne.n	10000692 <spin_locks_reset+0x6>
1000069c:	4770      	bx	lr
1000069e:	46c0      	nop			; (mov r8, r8)
100006a0:	d0000100 	.word	0xd0000100
100006a4:	d0000180 	.word	0xd0000180

100006a8 <next_striped_spin_lock_num>:
100006a8:	4a04      	ldr	r2, [pc, #16]	; (100006bc <next_striped_spin_lock_num+0x14>)
100006aa:	7810      	ldrb	r0, [r2, #0]
100006ac:	1c43      	adds	r3, r0, #1
100006ae:	b2db      	uxtb	r3, r3
100006b0:	2b17      	cmp	r3, #23
100006b2:	d900      	bls.n	100006b6 <next_striped_spin_lock_num+0xe>
100006b4:	2310      	movs	r3, #16
100006b6:	7013      	strb	r3, [r2, #0]
100006b8:	4770      	bx	lr
100006ba:	46c0      	nop			; (mov r8, r8)
100006bc:	20000390 	.word	0x20000390

100006c0 <spin_lock_claim_unused>:
100006c0:	b500      	push	{lr}
100006c2:	4b05      	ldr	r3, [pc, #20]	; (100006d8 <spin_lock_claim_unused+0x18>)
100006c4:	b083      	sub	sp, #12
100006c6:	0001      	movs	r1, r0
100006c8:	9300      	str	r3, [sp, #0]
100006ca:	2218      	movs	r2, #24
100006cc:	231f      	movs	r3, #31
100006ce:	4803      	ldr	r0, [pc, #12]	; (100006dc <spin_lock_claim_unused+0x1c>)
100006d0:	f7ff ff86 	bl	100005e0 <hw_claim_unused_from_range>
100006d4:	b003      	add	sp, #12
100006d6:	bd00      	pop	{pc}
100006d8:	10005020 	.word	0x10005020
100006dc:	20000d30 	.word	0x20000d30

100006e0 <uart_init>:
100006e0:	b5f8      	push	{r3, r4, r5, r6, r7, lr}
100006e2:	0004      	movs	r4, r0
100006e4:	2006      	movs	r0, #6
100006e6:	000d      	movs	r5, r1
100006e8:	f001 f9bc 	bl	10001a64 <clock_get_hz>
100006ec:	2800      	cmp	r0, #0
100006ee:	d044      	beq.n	1000077a <uart_init+0x9a>
100006f0:	4b2a      	ldr	r3, [pc, #168]	; (1000079c <uart_init+0xbc>)
100006f2:	492b      	ldr	r1, [pc, #172]	; (100007a0 <uart_init+0xc0>)
100006f4:	18e2      	adds	r2, r4, r3
100006f6:	4253      	negs	r3, r2
100006f8:	415a      	adcs	r2, r3
100006fa:	2380      	movs	r3, #128	; 0x80
100006fc:	03db      	lsls	r3, r3, #15
100006fe:	469c      	mov	ip, r3
10000700:	0592      	lsls	r2, r2, #22
10000702:	4b28      	ldr	r3, [pc, #160]	; (100007a4 <uart_init+0xc4>)
10000704:	4462      	add	r2, ip
10000706:	601a      	str	r2, [r3, #0]
10000708:	4b27      	ldr	r3, [pc, #156]	; (100007a8 <uart_init+0xc8>)
1000070a:	601a      	str	r2, [r3, #0]
1000070c:	0010      	movs	r0, r2
1000070e:	688b      	ldr	r3, [r1, #8]
10000710:	4398      	bics	r0, r3
10000712:	d1fb      	bne.n	1000070c <uart_init+0x2c>
10000714:	4b21      	ldr	r3, [pc, #132]	; (1000079c <uart_init+0xbc>)
10000716:	2180      	movs	r1, #128	; 0x80
10000718:	18e3      	adds	r3, r4, r3
1000071a:	425a      	negs	r2, r3
1000071c:	4153      	adcs	r3, r2
1000071e:	4a23      	ldr	r2, [pc, #140]	; (100007ac <uart_init+0xcc>)
10000720:	005b      	lsls	r3, r3, #1
10000722:	0049      	lsls	r1, r1, #1
10000724:	5299      	strh	r1, [r3, r2]
10000726:	2006      	movs	r0, #6
10000728:	f001 f99c 	bl	10001a64 <clock_get_hz>
1000072c:	0029      	movs	r1, r5
1000072e:	00c0      	lsls	r0, r0, #3
10000730:	f001 fc46 	bl	10001fc0 <__wrap___aeabi_uidiv>
10000734:	09c3      	lsrs	r3, r0, #7
10000736:	d121      	bne.n	1000077c <uart_init+0x9c>
10000738:	2740      	movs	r7, #64	; 0x40
1000073a:	2101      	movs	r1, #1
1000073c:	0026      	movs	r6, r4
1000073e:	2580      	movs	r5, #128	; 0x80
10000740:	6261      	str	r1, [r4, #36]	; 0x24
10000742:	62a3      	str	r3, [r4, #40]	; 0x28
10000744:	2300      	movs	r3, #0
10000746:	362c      	adds	r6, #44	; 0x2c
10000748:	01ad      	lsls	r5, r5, #6
1000074a:	4335      	orrs	r5, r6
1000074c:	602b      	str	r3, [r5, #0]
1000074e:	2006      	movs	r0, #6
10000750:	f001 f988 	bl	10001a64 <clock_get_hz>
10000754:	0039      	movs	r1, r7
10000756:	0080      	lsls	r0, r0, #2
10000758:	f001 fc32 	bl	10001fc0 <__wrap___aeabi_uidiv>
1000075c:	2360      	movs	r3, #96	; 0x60
1000075e:	6ae2      	ldr	r2, [r4, #44]	; 0x2c
10000760:	4053      	eors	r3, r2
10000762:	226e      	movs	r2, #110	; 0x6e
10000764:	401a      	ands	r2, r3
10000766:	2380      	movs	r3, #128	; 0x80
10000768:	015b      	lsls	r3, r3, #5
1000076a:	4333      	orrs	r3, r6
1000076c:	601a      	str	r2, [r3, #0]
1000076e:	4b10      	ldr	r3, [pc, #64]	; (100007b0 <uart_init+0xd0>)
10000770:	6323      	str	r3, [r4, #48]	; 0x30
10000772:	2310      	movs	r3, #16
10000774:	602b      	str	r3, [r5, #0]
10000776:	3b0d      	subs	r3, #13
10000778:	64a3      	str	r3, [r4, #72]	; 0x48
1000077a:	bdf8      	pop	{r3, r4, r5, r6, r7, pc}
1000077c:	4a0d      	ldr	r2, [pc, #52]	; (100007b4 <uart_init+0xd4>)
1000077e:	4293      	cmp	r3, r2
10000780:	d903      	bls.n	1000078a <uart_init+0xaa>
10000782:	2300      	movs	r3, #0
10000784:	4f0c      	ldr	r7, [pc, #48]	; (100007b8 <uart_init+0xd8>)
10000786:	490d      	ldr	r1, [pc, #52]	; (100007bc <uart_init+0xdc>)
10000788:	e7d8      	b.n	1000073c <uart_init+0x5c>
1000078a:	227f      	movs	r2, #127	; 0x7f
1000078c:	4010      	ands	r0, r2
1000078e:	3001      	adds	r0, #1
10000790:	0840      	lsrs	r0, r0, #1
10000792:	019f      	lsls	r7, r3, #6
10000794:	0019      	movs	r1, r3
10000796:	183f      	adds	r7, r7, r0
10000798:	0003      	movs	r3, r0
1000079a:	e7cf      	b.n	1000073c <uart_init+0x5c>
1000079c:	bffc8000 	.word	0xbffc8000
100007a0:	4000c000 	.word	0x4000c000
100007a4:	4000e000 	.word	0x4000e000
100007a8:	4000f000 	.word	0x4000f000
100007ac:	20001210 	.word	0x20001210
100007b0:	00000301 	.word	0x00000301
100007b4:	0000fffe 	.word	0x0000fffe
100007b8:	003fffc0 	.word	0x003fffc0
100007bc:	0000ffff 	.word	0x0000ffff

100007c0 <timer_pool_entry_comparator>:
100007c0:	6883      	ldr	r3, [r0, #8]
100007c2:	480b      	ldr	r0, [pc, #44]	; (100007f0 <timer_pool_entry_comparator+0x30>)
100007c4:	b510      	push	{r4, lr}
100007c6:	4684      	mov	ip, r0
100007c8:	4461      	add	r1, ip
100007ca:	4462      	add	r2, ip
100007cc:	0109      	lsls	r1, r1, #4
100007ce:	0112      	lsls	r2, r2, #4
100007d0:	189a      	adds	r2, r3, r2
100007d2:	1859      	adds	r1, r3, r1
100007d4:	6854      	ldr	r4, [r2, #4]
100007d6:	684b      	ldr	r3, [r1, #4]
100007d8:	2001      	movs	r0, #1
100007da:	429c      	cmp	r4, r3
100007dc:	d801      	bhi.n	100007e2 <timer_pool_entry_comparator+0x22>
100007de:	d002      	beq.n	100007e6 <timer_pool_entry_comparator+0x26>
100007e0:	2000      	movs	r0, #0
100007e2:	b2c0      	uxtb	r0, r0
100007e4:	bd10      	pop	{r4, pc}
100007e6:	6812      	ldr	r2, [r2, #0]
100007e8:	680b      	ldr	r3, [r1, #0]
100007ea:	429a      	cmp	r2, r3
100007ec:	d8f9      	bhi.n	100007e2 <timer_pool_entry_comparator+0x22>
100007ee:	e7f7      	b.n	100007e0 <timer_pool_entry_comparator+0x20>
100007f0:	0fffffff 	.word	0x0fffffff

100007f4 <sleep_until_callback>:
100007f4:	4b0a      	ldr	r3, [pc, #40]	; (10000820 <sleep_until_callback+0x2c>)
100007f6:	6819      	ldr	r1, [r3, #0]
100007f8:	f3ef 8010 	mrs	r0, PRIMASK
100007fc:	b672      	cpsid	i
100007fe:	680a      	ldr	r2, [r1, #0]
10000800:	2a00      	cmp	r2, #0
10000802:	d0fc      	beq.n	100007fe <sleep_until_callback+0xa>
10000804:	f3bf 8f5f 	dmb	sy
10000808:	681b      	ldr	r3, [r3, #0]
1000080a:	f3bf 8f5f 	dmb	sy
1000080e:	2200      	movs	r2, #0
10000810:	601a      	str	r2, [r3, #0]
10000812:	f380 8810 	msr	PRIMASK, r0
10000816:	bf40      	sev
10000818:	2000      	movs	r0, #0
1000081a:	2100      	movs	r1, #0
1000081c:	4770      	bx	lr
1000081e:	46c0      	nop			; (mov r8, r8)
10000820:	200011f4 	.word	0x200011f4

10000824 <add_alarm_under_lock.isra.0>:
10000824:	b5f8      	push	{r3, r4, r5, r6, r7, lr}
10000826:	4657      	mov	r7, sl
10000828:	464e      	mov	r6, r9
1000082a:	4645      	mov	r5, r8
1000082c:	46de      	mov	lr, fp
1000082e:	b5e0      	push	{r5, r6, r7, lr}
10000830:	4699      	mov	r9, r3
10000832:	ab0c      	add	r3, sp, #48	; 0x30
10000834:	781c      	ldrb	r4, [r3, #0]
10000836:	ab0d      	add	r3, sp, #52	; 0x34
10000838:	781b      	ldrb	r3, [r3, #0]
1000083a:	0006      	movs	r6, r0
1000083c:	4690      	mov	r8, r2
1000083e:	469a      	mov	sl, r3
10000840:	6807      	ldr	r7, [r0, #0]
10000842:	2c00      	cmp	r4, #0
10000844:	d111      	bne.n	1000086a <add_alarm_under_lock.isra.0+0x46>
10000846:	7bbc      	ldrb	r4, [r7, #14]
10000848:	2c00      	cmp	r4, #0
1000084a:	d042      	beq.n	100008d2 <add_alarm_under_lock.isra.0+0xae>
1000084c:	0065      	lsls	r5, r4, #1
1000084e:	683b      	ldr	r3, [r7, #0]
10000850:	192d      	adds	r5, r5, r4
10000852:	3d03      	subs	r5, #3
10000854:	1959      	adds	r1, r3, r5
10000856:	784b      	ldrb	r3, [r1, #1]
10000858:	73bb      	strb	r3, [r7, #14]
1000085a:	2b00      	cmp	r3, #0
1000085c:	d100      	bne.n	10000860 <add_alarm_under_lock.isra.0+0x3c>
1000085e:	73fb      	strb	r3, [r7, #15]
10000860:	2300      	movs	r3, #0
10000862:	708b      	strb	r3, [r1, #2]
10000864:	704b      	strb	r3, [r1, #1]
10000866:	700b      	strb	r3, [r1, #0]
10000868:	e004      	b.n	10000874 <add_alarm_under_lock.isra.0+0x50>
1000086a:	0065      	lsls	r5, r4, #1
1000086c:	683b      	ldr	r3, [r7, #0]
1000086e:	192d      	adds	r5, r5, r4
10000870:	3d03      	subs	r5, #3
10000872:	1959      	adds	r1, r3, r5
10000874:	68b2      	ldr	r2, [r6, #8]
10000876:	4b2a      	ldr	r3, [pc, #168]	; (10000920 <add_alarm_under_lock.isra.0+0xfc>)
10000878:	4694      	mov	ip, r2
1000087a:	4642      	mov	r2, r8
1000087c:	18e3      	adds	r3, r4, r3
1000087e:	011b      	lsls	r3, r3, #4
10000880:	4463      	add	r3, ip
10000882:	601a      	str	r2, [r3, #0]
10000884:	464a      	mov	r2, r9
10000886:	605a      	str	r2, [r3, #4]
10000888:	9a0a      	ldr	r2, [sp, #40]	; 0x28
1000088a:	609a      	str	r2, [r3, #8]
1000088c:	9a0b      	ldr	r2, [sp, #44]	; 0x2c
1000088e:	60da      	str	r2, [r3, #12]
10000890:	2300      	movs	r3, #0
10000892:	708b      	strb	r3, [r1, #2]
10000894:	704b      	strb	r3, [r1, #1]
10000896:	700b      	strb	r3, [r1, #0]
10000898:	7b7b      	ldrb	r3, [r7, #13]
1000089a:	469b      	mov	fp, r3
1000089c:	2b00      	cmp	r3, #0
1000089e:	d02b      	beq.n	100008f8 <add_alarm_under_lock.isra.0+0xd4>
100008a0:	0022      	movs	r2, r4
100008a2:	4659      	mov	r1, fp
100008a4:	68b8      	ldr	r0, [r7, #8]
100008a6:	687b      	ldr	r3, [r7, #4]
100008a8:	4798      	blx	r3
100008aa:	683a      	ldr	r2, [r7, #0]
100008ac:	2800      	cmp	r0, #0
100008ae:	d016      	beq.n	100008de <add_alarm_under_lock.isra.0+0xba>
100008b0:	465b      	mov	r3, fp
100008b2:	4658      	mov	r0, fp
100008b4:	005b      	lsls	r3, r3, #1
100008b6:	445b      	add	r3, fp
100008b8:	1955      	adds	r5, r2, r5
100008ba:	3b03      	subs	r3, #3
100008bc:	70a8      	strb	r0, [r5, #2]
100008be:	18d1      	adds	r1, r2, r3
100008c0:	5cd3      	ldrb	r3, [r2, r3]
100008c2:	2b00      	cmp	r3, #0
100008c4:	d000      	beq.n	100008c8 <add_alarm_under_lock.isra.0+0xa4>
100008c6:	706b      	strb	r3, [r5, #1]
100008c8:	465b      	mov	r3, fp
100008ca:	700c      	strb	r4, [r1, #0]
100008cc:	737b      	strb	r3, [r7, #13]
100008ce:	45a3      	cmp	fp, r4
100008d0:	d013      	beq.n	100008fa <add_alarm_under_lock.isra.0+0xd6>
100008d2:	bcf0      	pop	{r4, r5, r6, r7}
100008d4:	46bb      	mov	fp, r7
100008d6:	46b2      	mov	sl, r6
100008d8:	46a9      	mov	r9, r5
100008da:	46a0      	mov	r8, r4
100008dc:	bdf8      	pop	{r3, r4, r5, r6, r7, pc}
100008de:	465b      	mov	r3, fp
100008e0:	005b      	lsls	r3, r3, #1
100008e2:	445b      	add	r3, fp
100008e4:	3b03      	subs	r3, #3
100008e6:	18d3      	adds	r3, r2, r3
100008e8:	709c      	strb	r4, [r3, #2]
100008ea:	1951      	adds	r1, r2, r5
100008ec:	5d52      	ldrb	r2, [r2, r5]
100008ee:	2a00      	cmp	r2, #0
100008f0:	d000      	beq.n	100008f4 <add_alarm_under_lock.isra.0+0xd0>
100008f2:	705a      	strb	r2, [r3, #1]
100008f4:	465b      	mov	r3, fp
100008f6:	700b      	strb	r3, [r1, #0]
100008f8:	737c      	strb	r4, [r7, #13]
100008fa:	4642      	mov	r2, r8
100008fc:	464b      	mov	r3, r9
100008fe:	7d30      	ldrb	r0, [r6, #20]
10000900:	f000 fc26 	bl	10001150 <hardware_alarm_set_target>
10000904:	1e05      	subs	r5, r0, #0
10000906:	d006      	beq.n	10000916 <add_alarm_under_lock.isra.0+0xf2>
10000908:	4653      	mov	r3, sl
1000090a:	2b00      	cmp	r3, #0
1000090c:	d103      	bne.n	10000916 <add_alarm_under_lock.isra.0+0xf2>
1000090e:	0021      	movs	r1, r4
10000910:	6830      	ldr	r0, [r6, #0]
10000912:	f000 fe73 	bl	100015fc <ph_remove_and_free_node>
10000916:	9b0e      	ldr	r3, [sp, #56]	; 0x38
10000918:	2b00      	cmp	r3, #0
1000091a:	d0da      	beq.n	100008d2 <add_alarm_under_lock.isra.0+0xae>
1000091c:	701d      	strb	r5, [r3, #0]
1000091e:	e7d8      	b.n	100008d2 <add_alarm_under_lock.isra.0+0xae>
10000920:	0fffffff 	.word	0x0fffffff

10000924 <alarm_pool_alarm_callback>:
10000924:	b5f0      	push	{r4, r5, r6, r7, lr}
10000926:	46de      	mov	lr, fp
10000928:	464e      	mov	r6, r9
1000092a:	4657      	mov	r7, sl
1000092c:	4645      	mov	r5, r8
1000092e:	2300      	movs	r3, #0
10000930:	b5e0      	push	{r5, r6, r7, lr}
10000932:	b08d      	sub	sp, #52	; 0x34
10000934:	930a      	str	r3, [sp, #40]	; 0x28
10000936:	4b6b      	ldr	r3, [pc, #428]	; (10000ae4 <alarm_pool_alarm_callback+0x1c0>)
10000938:	0082      	lsls	r2, r0, #2
1000093a:	58d3      	ldr	r3, [r2, r3]
1000093c:	900b      	str	r0, [sp, #44]	; 0x2c
1000093e:	4699      	mov	r9, r3
10000940:	2300      	movs	r3, #0
10000942:	469b      	mov	fp, r3
10000944:	464b      	mov	r3, r9
10000946:	9307      	str	r3, [sp, #28]
10000948:	f000 fba2 	bl	10001090 <time_us_64>
1000094c:	9c07      	ldr	r4, [sp, #28]
1000094e:	0006      	movs	r6, r0
10000950:	000f      	movs	r7, r1
10000952:	6862      	ldr	r2, [r4, #4]
10000954:	f3ef 8510 	mrs	r5, PRIMASK
10000958:	b672      	cpsid	i
1000095a:	6813      	ldr	r3, [r2, #0]
1000095c:	2b00      	cmp	r3, #0
1000095e:	d0fc      	beq.n	1000095a <alarm_pool_alarm_callback+0x36>
10000960:	0022      	movs	r2, r4
10000962:	9407      	str	r4, [sp, #28]
10000964:	f3bf 8f5f 	dmb	sy
10000968:	6824      	ldr	r4, [r4, #0]
1000096a:	7b63      	ldrb	r3, [r4, #13]
1000096c:	4699      	mov	r9, r3
1000096e:	2b00      	cmp	r3, #0
10000970:	d067      	beq.n	10000a42 <alarm_pool_alarm_callback+0x11e>
10000972:	6892      	ldr	r2, [r2, #8]
10000974:	4b5c      	ldr	r3, [pc, #368]	; (10000ae8 <alarm_pool_alarm_callback+0x1c4>)
10000976:	4690      	mov	r8, r2
10000978:	444b      	add	r3, r9
1000097a:	011b      	lsls	r3, r3, #4
1000097c:	4498      	add	r8, r3
1000097e:	4643      	mov	r3, r8
10000980:	681a      	ldr	r2, [r3, #0]
10000982:	685b      	ldr	r3, [r3, #4]
10000984:	0010      	movs	r0, r2
10000986:	0019      	movs	r1, r3
10000988:	1b80      	subs	r0, r0, r6
1000098a:	41b9      	sbcs	r1, r7
1000098c:	2900      	cmp	r1, #0
1000098e:	dd5f      	ble.n	10000a50 <alarm_pool_alarm_callback+0x12c>
10000990:	980b      	ldr	r0, [sp, #44]	; 0x2c
10000992:	f000 fbdd 	bl	10001150 <hardware_alarm_set_target>
10000996:	2300      	movs	r3, #0
10000998:	2600      	movs	r6, #0
1000099a:	4698      	mov	r8, r3
1000099c:	2700      	movs	r7, #0
1000099e:	469a      	mov	sl, r3
100009a0:	9c07      	ldr	r4, [sp, #28]
100009a2:	6863      	ldr	r3, [r4, #4]
100009a4:	f3bf 8f5f 	dmb	sy
100009a8:	465a      	mov	r2, fp
100009aa:	601a      	str	r2, [r3, #0]
100009ac:	f385 8810 	msr	PRIMASK, r5
100009b0:	4653      	mov	r3, sl
100009b2:	2b00      	cmp	r3, #0
100009b4:	d108      	bne.n	100009c8 <alarm_pool_alarm_callback+0xa4>
100009b6:	2800      	cmp	r0, #0
100009b8:	d1c6      	bne.n	10000948 <alarm_pool_alarm_callback+0x24>
100009ba:	b00d      	add	sp, #52	; 0x34
100009bc:	bcf0      	pop	{r4, r5, r6, r7}
100009be:	46bb      	mov	fp, r7
100009c0:	46b2      	mov	sl, r6
100009c2:	46a9      	mov	r9, r5
100009c4:	46a0      	mov	r8, r4
100009c6:	bdf0      	pop	{r4, r5, r6, r7, pc}
100009c8:	9b0a      	ldr	r3, [sp, #40]	; 0x28
100009ca:	4641      	mov	r1, r8
100009cc:	0218      	lsls	r0, r3, #8
100009ce:	464b      	mov	r3, r9
100009d0:	4318      	orrs	r0, r3
100009d2:	47d0      	blx	sl
100009d4:	9008      	str	r0, [sp, #32]
100009d6:	9109      	str	r1, [sp, #36]	; 0x24
100009d8:	6862      	ldr	r2, [r4, #4]
100009da:	f3ef 8510 	mrs	r5, PRIMASK
100009de:	b672      	cpsid	i
100009e0:	6813      	ldr	r3, [r2, #0]
100009e2:	2b00      	cmp	r3, #0
100009e4:	d0fc      	beq.n	100009e0 <alarm_pool_alarm_callback+0xbc>
100009e6:	9407      	str	r4, [sp, #28]
100009e8:	f3bf 8f5f 	dmb	sy
100009ec:	9908      	ldr	r1, [sp, #32]
100009ee:	9a09      	ldr	r2, [sp, #36]	; 0x24
100009f0:	2a00      	cmp	r2, #0
100009f2:	db48      	blt.n	10000a86 <alarm_pool_alarm_callback+0x162>
100009f4:	4311      	orrs	r1, r2
100009f6:	d003      	beq.n	10000a00 <alarm_pool_alarm_callback+0xdc>
100009f8:	9b07      	ldr	r3, [sp, #28]
100009fa:	691b      	ldr	r3, [r3, #16]
100009fc:	2b00      	cmp	r3, #0
100009fe:	d15d      	bne.n	10000abc <alarm_pool_alarm_callback+0x198>
10000a00:	9b07      	ldr	r3, [sp, #28]
10000a02:	681b      	ldr	r3, [r3, #0]
10000a04:	7bd9      	ldrb	r1, [r3, #15]
10000a06:	2900      	cmp	r1, #0
10000a08:	d007      	beq.n	10000a1a <alarm_pool_alarm_callback+0xf6>
10000a0a:	004a      	lsls	r2, r1, #1
10000a0c:	1852      	adds	r2, r2, r1
10000a0e:	6819      	ldr	r1, [r3, #0]
10000a10:	468c      	mov	ip, r1
10000a12:	4649      	mov	r1, r9
10000a14:	4462      	add	r2, ip
10000a16:	3a03      	subs	r2, #3
10000a18:	7051      	strb	r1, [r2, #1]
10000a1a:	464a      	mov	r2, r9
10000a1c:	73da      	strb	r2, [r3, #15]
10000a1e:	464b      	mov	r3, r9
10000a20:	9a07      	ldr	r2, [sp, #28]
10000a22:	3b01      	subs	r3, #1
10000a24:	68d1      	ldr	r1, [r2, #12]
10000a26:	5cca      	ldrb	r2, [r1, r3]
10000a28:	3201      	adds	r2, #1
10000a2a:	54ca      	strb	r2, [r1, r3]
10000a2c:	465b      	mov	r3, fp
10000a2e:	9a07      	ldr	r2, [sp, #28]
10000a30:	6113      	str	r3, [r2, #16]
10000a32:	6853      	ldr	r3, [r2, #4]
10000a34:	f3bf 8f5f 	dmb	sy
10000a38:	465a      	mov	r2, fp
10000a3a:	601a      	str	r2, [r3, #0]
10000a3c:	f385 8810 	msr	PRIMASK, r5
10000a40:	e782      	b.n	10000948 <alarm_pool_alarm_callback+0x24>
10000a42:	2300      	movs	r3, #0
10000a44:	2600      	movs	r6, #0
10000a46:	4698      	mov	r8, r3
10000a48:	2700      	movs	r7, #0
10000a4a:	469a      	mov	sl, r3
10000a4c:	2000      	movs	r0, #0
10000a4e:	e7a7      	b.n	100009a0 <alarm_pool_alarm_callback+0x7c>
10000a50:	2900      	cmp	r1, #0
10000a52:	d101      	bne.n	10000a58 <alarm_pool_alarm_callback+0x134>
10000a54:	2800      	cmp	r0, #0
10000a56:	d19b      	bne.n	10000990 <alarm_pool_alarm_callback+0x6c>
10000a58:	2100      	movs	r1, #0
10000a5a:	0020      	movs	r0, r4
10000a5c:	f000 fd50 	bl	10001500 <ph_remove_head>
10000a60:	4643      	mov	r3, r8
10000a62:	681e      	ldr	r6, [r3, #0]
10000a64:	685f      	ldr	r7, [r3, #4]
10000a66:	689b      	ldr	r3, [r3, #8]
10000a68:	9a07      	ldr	r2, [sp, #28]
10000a6a:	469a      	mov	sl, r3
10000a6c:	4643      	mov	r3, r8
10000a6e:	68db      	ldr	r3, [r3, #12]
10000a70:	4698      	mov	r8, r3
10000a72:	68d3      	ldr	r3, [r2, #12]
10000a74:	444b      	add	r3, r9
10000a76:	3b01      	subs	r3, #1
10000a78:	781b      	ldrb	r3, [r3, #0]
10000a7a:	930a      	str	r3, [sp, #40]	; 0x28
10000a7c:	021b      	lsls	r3, r3, #8
10000a7e:	4303      	orrs	r3, r0
10000a80:	6113      	str	r3, [r2, #16]
10000a82:	2000      	movs	r0, #0
10000a84:	e78c      	b.n	100009a0 <alarm_pool_alarm_callback+0x7c>
10000a86:	6923      	ldr	r3, [r4, #16]
10000a88:	2b00      	cmp	r3, #0
10000a8a:	d0b9      	beq.n	10000a00 <alarm_pool_alarm_callback+0xdc>
10000a8c:	0033      	movs	r3, r6
10000a8e:	003c      	movs	r4, r7
10000a90:	1a5b      	subs	r3, r3, r1
10000a92:	4194      	sbcs	r4, r2
10000a94:	001a      	movs	r2, r3
10000a96:	0023      	movs	r3, r4
10000a98:	42a7      	cmp	r7, r4
10000a9a:	d819      	bhi.n	10000ad0 <alarm_pool_alarm_callback+0x1ac>
10000a9c:	429f      	cmp	r7, r3
10000a9e:	d01b      	beq.n	10000ad8 <alarm_pool_alarm_callback+0x1b4>
10000aa0:	4659      	mov	r1, fp
10000aa2:	9104      	str	r1, [sp, #16]
10000aa4:	2101      	movs	r1, #1
10000aa6:	9103      	str	r1, [sp, #12]
10000aa8:	4649      	mov	r1, r9
10000aaa:	9102      	str	r1, [sp, #8]
10000aac:	4641      	mov	r1, r8
10000aae:	9101      	str	r1, [sp, #4]
10000ab0:	4651      	mov	r1, sl
10000ab2:	9807      	ldr	r0, [sp, #28]
10000ab4:	9100      	str	r1, [sp, #0]
10000ab6:	f7ff feb5 	bl	10000824 <add_alarm_under_lock.isra.0>
10000aba:	e7b7      	b.n	10000a2c <alarm_pool_alarm_callback+0x108>
10000abc:	f000 fae8 	bl	10001090 <time_us_64>
10000ac0:	9a08      	ldr	r2, [sp, #32]
10000ac2:	9b09      	ldr	r3, [sp, #36]	; 0x24
10000ac4:	0006      	movs	r6, r0
10000ac6:	000f      	movs	r7, r1
10000ac8:	1992      	adds	r2, r2, r6
10000aca:	417b      	adcs	r3, r7
10000acc:	4299      	cmp	r1, r3
10000ace:	d9e5      	bls.n	10000a9c <alarm_pool_alarm_callback+0x178>
10000ad0:	2201      	movs	r2, #1
10000ad2:	4252      	negs	r2, r2
10000ad4:	17d3      	asrs	r3, r2, #31
10000ad6:	e7e3      	b.n	10000aa0 <alarm_pool_alarm_callback+0x17c>
10000ad8:	4296      	cmp	r6, r2
10000ada:	d9e1      	bls.n	10000aa0 <alarm_pool_alarm_callback+0x17c>
10000adc:	2201      	movs	r2, #1
10000ade:	4252      	negs	r2, r2
10000ae0:	17d3      	asrs	r3, r2, #31
10000ae2:	e7dd      	b.n	10000aa0 <alarm_pool_alarm_callback+0x17c>
10000ae4:	200011d8 	.word	0x200011d8
10000ae8:	0fffffff 	.word	0x0fffffff

10000aec <alarm_pool_add_alarm_at.constprop.0>:
10000aec:	b5f8      	push	{r3, r4, r5, r6, r7, lr}
10000aee:	4657      	mov	r7, sl
10000af0:	464e      	mov	r6, r9
10000af2:	4645      	mov	r5, r8
10000af4:	46de      	mov	lr, fp
10000af6:	b5e0      	push	{r5, r6, r7, lr}
10000af8:	4d40      	ldr	r5, [pc, #256]	; (10000bfc <alarm_pool_add_alarm_at.constprop.0+0x110>)
10000afa:	4681      	mov	r9, r0
10000afc:	468a      	mov	sl, r1
10000afe:	686a      	ldr	r2, [r5, #4]
10000b00:	f3ef 8810 	mrs	r8, PRIMASK
10000b04:	b672      	cpsid	i
10000b06:	6813      	ldr	r3, [r2, #0]
10000b08:	2b00      	cmp	r3, #0
10000b0a:	d0fc      	beq.n	10000b06 <alarm_pool_add_alarm_at.constprop.0+0x1a>
10000b0c:	f3bf 8f5f 	dmb	sy
10000b10:	682e      	ldr	r6, [r5, #0]
10000b12:	7bb4      	ldrb	r4, [r6, #14]
10000b14:	2c00      	cmp	r4, #0
10000b16:	d039      	beq.n	10000b8c <alarm_pool_add_alarm_at.constprop.0+0xa0>
10000b18:	0067      	lsls	r7, r4, #1
10000b1a:	6833      	ldr	r3, [r6, #0]
10000b1c:	193f      	adds	r7, r7, r4
10000b1e:	3f03      	subs	r7, #3
10000b20:	19db      	adds	r3, r3, r7
10000b22:	785a      	ldrb	r2, [r3, #1]
10000b24:	73b2      	strb	r2, [r6, #14]
10000b26:	2a00      	cmp	r2, #0
10000b28:	d100      	bne.n	10000b2c <alarm_pool_add_alarm_at.constprop.0+0x40>
10000b2a:	73f2      	strb	r2, [r6, #15]
10000b2c:	68a9      	ldr	r1, [r5, #8]
10000b2e:	4a34      	ldr	r2, [pc, #208]	; (10000c00 <alarm_pool_add_alarm_at.constprop.0+0x114>)
10000b30:	468c      	mov	ip, r1
10000b32:	4649      	mov	r1, r9
10000b34:	18a2      	adds	r2, r4, r2
10000b36:	0112      	lsls	r2, r2, #4
10000b38:	4462      	add	r2, ip
10000b3a:	6011      	str	r1, [r2, #0]
10000b3c:	4651      	mov	r1, sl
10000b3e:	6051      	str	r1, [r2, #4]
10000b40:	4930      	ldr	r1, [pc, #192]	; (10000c04 <alarm_pool_add_alarm_at.constprop.0+0x118>)
10000b42:	6091      	str	r1, [r2, #8]
10000b44:	2100      	movs	r1, #0
10000b46:	60d1      	str	r1, [r2, #12]
10000b48:	7099      	strb	r1, [r3, #2]
10000b4a:	7059      	strb	r1, [r3, #1]
10000b4c:	7019      	strb	r1, [r3, #0]
10000b4e:	7b73      	ldrb	r3, [r6, #13]
10000b50:	469b      	mov	fp, r3
10000b52:	2b00      	cmp	r3, #0
10000b54:	d035      	beq.n	10000bc2 <alarm_pool_add_alarm_at.constprop.0+0xd6>
10000b56:	0022      	movs	r2, r4
10000b58:	0019      	movs	r1, r3
10000b5a:	68b0      	ldr	r0, [r6, #8]
10000b5c:	6873      	ldr	r3, [r6, #4]
10000b5e:	4798      	blx	r3
10000b60:	6832      	ldr	r2, [r6, #0]
10000b62:	2800      	cmp	r0, #0
10000b64:	d020      	beq.n	10000ba8 <alarm_pool_add_alarm_at.constprop.0+0xbc>
10000b66:	465b      	mov	r3, fp
10000b68:	4658      	mov	r0, fp
10000b6a:	005b      	lsls	r3, r3, #1
10000b6c:	445b      	add	r3, fp
10000b6e:	19d7      	adds	r7, r2, r7
10000b70:	3b03      	subs	r3, #3
10000b72:	70b8      	strb	r0, [r7, #2]
10000b74:	18d1      	adds	r1, r2, r3
10000b76:	5cd3      	ldrb	r3, [r2, r3]
10000b78:	2b00      	cmp	r3, #0
10000b7a:	d000      	beq.n	10000b7e <alarm_pool_add_alarm_at.constprop.0+0x92>
10000b7c:	707b      	strb	r3, [r7, #1]
10000b7e:	465b      	mov	r3, fp
10000b80:	700c      	strb	r4, [r1, #0]
10000b82:	7373      	strb	r3, [r6, #13]
10000b84:	455c      	cmp	r4, fp
10000b86:	d01d      	beq.n	10000bc4 <alarm_pool_add_alarm_at.constprop.0+0xd8>
10000b88:	2600      	movs	r6, #0
10000b8a:	e026      	b.n	10000bda <alarm_pool_add_alarm_at.constprop.0+0xee>
10000b8c:	686b      	ldr	r3, [r5, #4]
10000b8e:	f3bf 8f5f 	dmb	sy
10000b92:	601c      	str	r4, [r3, #0]
10000b94:	f388 8810 	msr	PRIMASK, r8
10000b98:	2001      	movs	r0, #1
10000b9a:	4240      	negs	r0, r0
10000b9c:	bcf0      	pop	{r4, r5, r6, r7}
10000b9e:	46bb      	mov	fp, r7
10000ba0:	46b2      	mov	sl, r6
10000ba2:	46a9      	mov	r9, r5
10000ba4:	46a0      	mov	r8, r4
10000ba6:	bdf8      	pop	{r3, r4, r5, r6, r7, pc}
10000ba8:	465b      	mov	r3, fp
10000baa:	005b      	lsls	r3, r3, #1
10000bac:	445b      	add	r3, fp
10000bae:	3b03      	subs	r3, #3
10000bb0:	18d3      	adds	r3, r2, r3
10000bb2:	709c      	strb	r4, [r3, #2]
10000bb4:	19d1      	adds	r1, r2, r7
10000bb6:	5dd2      	ldrb	r2, [r2, r7]
10000bb8:	2a00      	cmp	r2, #0
10000bba:	d000      	beq.n	10000bbe <alarm_pool_add_alarm_at.constprop.0+0xd2>
10000bbc:	705a      	strb	r2, [r3, #1]
10000bbe:	465b      	mov	r3, fp
10000bc0:	700b      	strb	r3, [r1, #0]
10000bc2:	7374      	strb	r4, [r6, #13]
10000bc4:	464a      	mov	r2, r9
10000bc6:	4653      	mov	r3, sl
10000bc8:	7d28      	ldrb	r0, [r5, #20]
10000bca:	f000 fac1 	bl	10001150 <hardware_alarm_set_target>
10000bce:	1e06      	subs	r6, r0, #0
10000bd0:	d0da      	beq.n	10000b88 <alarm_pool_add_alarm_at.constprop.0+0x9c>
10000bd2:	0021      	movs	r1, r4
10000bd4:	6828      	ldr	r0, [r5, #0]
10000bd6:	f000 fd11 	bl	100015fc <ph_remove_and_free_node>
10000bda:	68eb      	ldr	r3, [r5, #12]
10000bdc:	191b      	adds	r3, r3, r4
10000bde:	3b01      	subs	r3, #1
10000be0:	7819      	ldrb	r1, [r3, #0]
10000be2:	686b      	ldr	r3, [r5, #4]
10000be4:	f3bf 8f5f 	dmb	sy
10000be8:	2200      	movs	r2, #0
10000bea:	601a      	str	r2, [r3, #0]
10000bec:	f388 8810 	msr	PRIMASK, r8
10000bf0:	2000      	movs	r0, #0
10000bf2:	2e00      	cmp	r6, #0
10000bf4:	d1d2      	bne.n	10000b9c <alarm_pool_add_alarm_at.constprop.0+0xb0>
10000bf6:	0208      	lsls	r0, r1, #8
10000bf8:	4320      	orrs	r0, r4
10000bfa:	e7cf      	b.n	10000b9c <alarm_pool_add_alarm_at.constprop.0+0xb0>
10000bfc:	20000394 	.word	0x20000394
10000c00:	0fffffff 	.word	0x0fffffff
10000c04:	100007f5 	.word	0x100007f5

10000c08 <alarm_pool_init_default>:
10000c08:	b510      	push	{r4, lr}
10000c0a:	4c12      	ldr	r4, [pc, #72]	; (10000c54 <alarm_pool_init_default+0x4c>)
10000c0c:	6863      	ldr	r3, [r4, #4]
10000c0e:	2b00      	cmp	r3, #0
10000c10:	d004      	beq.n	10000c1c <alarm_pool_init_default+0x14>
10000c12:	210a      	movs	r1, #10
10000c14:	4810      	ldr	r0, [pc, #64]	; (10000c58 <alarm_pool_init_default+0x50>)
10000c16:	f000 fb29 	bl	1000126c <lock_init>
10000c1a:	bd10      	pop	{r4, pc}
10000c1c:	0023      	movs	r3, r4
10000c1e:	4a0f      	ldr	r2, [pc, #60]	; (10000c5c <alarm_pool_init_default+0x54>)
10000c20:	2110      	movs	r1, #16
10000c22:	6820      	ldr	r0, [r4, #0]
10000c24:	f000 fb8a 	bl	1000133c <ph_post_alloc_init>
10000c28:	2003      	movs	r0, #3
10000c2a:	f000 fa25 	bl	10001078 <hardware_alarm_claim>
10000c2e:	2003      	movs	r0, #3
10000c30:	f000 fafe 	bl	10001230 <hardware_alarm_cancel>
10000c34:	2003      	movs	r0, #3
10000c36:	490a      	ldr	r1, [pc, #40]	; (10000c60 <alarm_pool_init_default+0x58>)
10000c38:	f000 fa44 	bl	100010c4 <hardware_alarm_set_callback>
10000c3c:	f7ff fd34 	bl	100006a8 <next_striped_spin_lock_num>
10000c40:	4b08      	ldr	r3, [pc, #32]	; (10000c64 <alarm_pool_init_default+0x5c>)
10000c42:	469c      	mov	ip, r3
10000c44:	2303      	movs	r3, #3
10000c46:	4460      	add	r0, ip
10000c48:	7523      	strb	r3, [r4, #20]
10000c4a:	4b07      	ldr	r3, [pc, #28]	; (10000c68 <alarm_pool_init_default+0x60>)
10000c4c:	0080      	lsls	r0, r0, #2
10000c4e:	6060      	str	r0, [r4, #4]
10000c50:	60dc      	str	r4, [r3, #12]
10000c52:	e7de      	b.n	10000c12 <alarm_pool_init_default+0xa>
10000c54:	20000394 	.word	0x20000394
10000c58:	200011f4 	.word	0x200011f4
10000c5c:	100007c1 	.word	0x100007c1
10000c60:	10000925 	.word	0x10000925
10000c64:	34000040 	.word	0x34000040
10000c68:	200011d8 	.word	0x200011d8

10000c6c <alarm_pool_get_default>:
10000c6c:	4800      	ldr	r0, [pc, #0]	; (10000c70 <alarm_pool_get_default+0x4>)
10000c6e:	4770      	bx	lr
10000c70:	20000394 	.word	0x20000394

10000c74 <alarm_pool_add_alarm_at>:
10000c74:	b5f0      	push	{r4, r5, r6, r7, lr}
10000c76:	4657      	mov	r7, sl
10000c78:	464e      	mov	r6, r9
10000c7a:	4645      	mov	r5, r8
10000c7c:	46de      	mov	lr, fp
10000c7e:	b5e0      	push	{r5, r6, r7, lr}
10000c80:	b085      	sub	sp, #20
10000c82:	9301      	str	r3, [sp, #4]
10000c84:	ab10      	add	r3, sp, #64	; 0x40
10000c86:	781b      	ldrb	r3, [r3, #0]
10000c88:	0006      	movs	r6, r0
10000c8a:	9303      	str	r3, [sp, #12]
10000c8c:	2300      	movs	r3, #0
10000c8e:	469a      	mov	sl, r3
10000c90:	4698      	mov	r8, r3
10000c92:	9200      	str	r2, [sp, #0]
10000c94:	6872      	ldr	r2, [r6, #4]
10000c96:	f3ef 8910 	mrs	r9, PRIMASK
10000c9a:	b672      	cpsid	i
10000c9c:	6813      	ldr	r3, [r2, #0]
10000c9e:	2b00      	cmp	r3, #0
10000ca0:	d0fc      	beq.n	10000c9c <alarm_pool_add_alarm_at+0x28>
10000ca2:	f3bf 8f5f 	dmb	sy
10000ca6:	6835      	ldr	r5, [r6, #0]
10000ca8:	7bac      	ldrb	r4, [r5, #14]
10000caa:	2c00      	cmp	r4, #0
10000cac:	d049      	beq.n	10000d42 <alarm_pool_add_alarm_at+0xce>
10000cae:	0067      	lsls	r7, r4, #1
10000cb0:	682b      	ldr	r3, [r5, #0]
10000cb2:	193f      	adds	r7, r7, r4
10000cb4:	3f03      	subs	r7, #3
10000cb6:	19db      	adds	r3, r3, r7
10000cb8:	785a      	ldrb	r2, [r3, #1]
10000cba:	73aa      	strb	r2, [r5, #14]
10000cbc:	2a00      	cmp	r2, #0
10000cbe:	d100      	bne.n	10000cc2 <alarm_pool_add_alarm_at+0x4e>
10000cc0:	73ea      	strb	r2, [r5, #15]
10000cc2:	68b1      	ldr	r1, [r6, #8]
10000cc4:	4a4f      	ldr	r2, [pc, #316]	; (10000e04 <alarm_pool_add_alarm_at+0x190>)
10000cc6:	468c      	mov	ip, r1
10000cc8:	9800      	ldr	r0, [sp, #0]
10000cca:	9901      	ldr	r1, [sp, #4]
10000ccc:	18a2      	adds	r2, r4, r2
10000cce:	0112      	lsls	r2, r2, #4
10000cd0:	4462      	add	r2, ip
10000cd2:	6010      	str	r0, [r2, #0]
10000cd4:	6051      	str	r1, [r2, #4]
10000cd6:	990e      	ldr	r1, [sp, #56]	; 0x38
10000cd8:	6091      	str	r1, [r2, #8]
10000cda:	990f      	ldr	r1, [sp, #60]	; 0x3c
10000cdc:	60d1      	str	r1, [r2, #12]
10000cde:	4642      	mov	r2, r8
10000ce0:	709a      	strb	r2, [r3, #2]
10000ce2:	705a      	strb	r2, [r3, #1]
10000ce4:	701a      	strb	r2, [r3, #0]
10000ce6:	7b6b      	ldrb	r3, [r5, #13]
10000ce8:	469b      	mov	fp, r3
10000cea:	2b00      	cmp	r3, #0
10000cec:	d045      	beq.n	10000d7a <alarm_pool_add_alarm_at+0x106>
10000cee:	0022      	movs	r2, r4
10000cf0:	0019      	movs	r1, r3
10000cf2:	68a8      	ldr	r0, [r5, #8]
10000cf4:	686b      	ldr	r3, [r5, #4]
10000cf6:	4798      	blx	r3
10000cf8:	682a      	ldr	r2, [r5, #0]
10000cfa:	2800      	cmp	r0, #0
10000cfc:	d030      	beq.n	10000d60 <alarm_pool_add_alarm_at+0xec>
10000cfe:	465b      	mov	r3, fp
10000d00:	4658      	mov	r0, fp
10000d02:	005b      	lsls	r3, r3, #1
10000d04:	445b      	add	r3, fp
10000d06:	19d7      	adds	r7, r2, r7
10000d08:	3b03      	subs	r3, #3
10000d0a:	70b8      	strb	r0, [r7, #2]
10000d0c:	18d1      	adds	r1, r2, r3
10000d0e:	5cd3      	ldrb	r3, [r2, r3]
10000d10:	2b00      	cmp	r3, #0
10000d12:	d000      	beq.n	10000d16 <alarm_pool_add_alarm_at+0xa2>
10000d14:	707b      	strb	r3, [r7, #1]
10000d16:	465b      	mov	r3, fp
10000d18:	700c      	strb	r4, [r1, #0]
10000d1a:	736b      	strb	r3, [r5, #13]
10000d1c:	455c      	cmp	r4, fp
10000d1e:	d02d      	beq.n	10000d7c <alarm_pool_add_alarm_at+0x108>
10000d20:	68f3      	ldr	r3, [r6, #12]
10000d22:	191b      	adds	r3, r3, r4
10000d24:	3b01      	subs	r3, #1
10000d26:	7818      	ldrb	r0, [r3, #0]
10000d28:	6873      	ldr	r3, [r6, #4]
10000d2a:	f3bf 8f5f 	dmb	sy
10000d2e:	4642      	mov	r2, r8
10000d30:	601a      	str	r2, [r3, #0]
10000d32:	f389 8810 	msr	PRIMASK, r9
10000d36:	4653      	mov	r3, sl
10000d38:	2b00      	cmp	r3, #0
10000d3a:	d12c      	bne.n	10000d96 <alarm_pool_add_alarm_at+0x122>
10000d3c:	0200      	lsls	r0, r0, #8
10000d3e:	4320      	orrs	r0, r4
10000d40:	e007      	b.n	10000d52 <alarm_pool_add_alarm_at+0xde>
10000d42:	6873      	ldr	r3, [r6, #4]
10000d44:	f3bf 8f5f 	dmb	sy
10000d48:	601c      	str	r4, [r3, #0]
10000d4a:	f389 8810 	msr	PRIMASK, r9
10000d4e:	2001      	movs	r0, #1
10000d50:	4240      	negs	r0, r0
10000d52:	b005      	add	sp, #20
10000d54:	bcf0      	pop	{r4, r5, r6, r7}
10000d56:	46bb      	mov	fp, r7
10000d58:	46b2      	mov	sl, r6
10000d5a:	46a9      	mov	r9, r5
10000d5c:	46a0      	mov	r8, r4
10000d5e:	bdf0      	pop	{r4, r5, r6, r7, pc}
10000d60:	465b      	mov	r3, fp
10000d62:	005b      	lsls	r3, r3, #1
10000d64:	445b      	add	r3, fp
10000d66:	3b03      	subs	r3, #3
10000d68:	18d3      	adds	r3, r2, r3
10000d6a:	709c      	strb	r4, [r3, #2]
10000d6c:	19d1      	adds	r1, r2, r7
10000d6e:	5dd2      	ldrb	r2, [r2, r7]
10000d70:	2a00      	cmp	r2, #0
10000d72:	d000      	beq.n	10000d76 <alarm_pool_add_alarm_at+0x102>
10000d74:	705a      	strb	r2, [r3, #1]
10000d76:	465b      	mov	r3, fp
10000d78:	700b      	strb	r3, [r1, #0]
10000d7a:	736c      	strb	r4, [r5, #13]
10000d7c:	7d30      	ldrb	r0, [r6, #20]
10000d7e:	9a00      	ldr	r2, [sp, #0]
10000d80:	9b01      	ldr	r3, [sp, #4]
10000d82:	f000 f9e5 	bl	10001150 <hardware_alarm_set_target>
10000d86:	4682      	mov	sl, r0
10000d88:	2800      	cmp	r0, #0
10000d8a:	d0c9      	beq.n	10000d20 <alarm_pool_add_alarm_at+0xac>
10000d8c:	0021      	movs	r1, r4
10000d8e:	6830      	ldr	r0, [r6, #0]
10000d90:	f000 fc34 	bl	100015fc <ph_remove_and_free_node>
10000d94:	e7c4      	b.n	10000d20 <alarm_pool_add_alarm_at+0xac>
10000d96:	9b03      	ldr	r3, [sp, #12]
10000d98:	2b00      	cmp	r3, #0
10000d9a:	d030      	beq.n	10000dfe <alarm_pool_add_alarm_at+0x18a>
10000d9c:	9b0e      	ldr	r3, [sp, #56]	; 0x38
10000d9e:	2000      	movs	r0, #0
10000da0:	990f      	ldr	r1, [sp, #60]	; 0x3c
10000da2:	4798      	blx	r3
10000da4:	0003      	movs	r3, r0
10000da6:	0004      	movs	r4, r0
10000da8:	000d      	movs	r5, r1
10000daa:	430b      	orrs	r3, r1
10000dac:	d027      	beq.n	10000dfe <alarm_pool_add_alarm_at+0x18a>
10000dae:	2900      	cmp	r1, #0
10000db0:	da0d      	bge.n	10000dce <alarm_pool_add_alarm_at+0x15a>
10000db2:	9800      	ldr	r0, [sp, #0]
10000db4:	9901      	ldr	r1, [sp, #4]
10000db6:	0002      	movs	r2, r0
10000db8:	000b      	movs	r3, r1
10000dba:	1b12      	subs	r2, r2, r4
10000dbc:	41ab      	sbcs	r3, r5
10000dbe:	4299      	cmp	r1, r3
10000dc0:	d813      	bhi.n	10000dea <alarm_pool_add_alarm_at+0x176>
10000dc2:	d018      	beq.n	10000df6 <alarm_pool_add_alarm_at+0x182>
10000dc4:	9200      	str	r2, [sp, #0]
10000dc6:	9301      	str	r3, [sp, #4]
10000dc8:	9b03      	ldr	r3, [sp, #12]
10000dca:	469a      	mov	sl, r3
10000dcc:	e762      	b.n	10000c94 <alarm_pool_add_alarm_at+0x20>
10000dce:	f000 f95f 	bl	10001090 <time_us_64>
10000dd2:	0002      	movs	r2, r0
10000dd4:	000b      	movs	r3, r1
10000dd6:	18a4      	adds	r4, r4, r2
10000dd8:	415d      	adcs	r5, r3
10000dda:	9400      	str	r4, [sp, #0]
10000ddc:	9501      	str	r5, [sp, #4]
10000dde:	42a9      	cmp	r1, r5
10000de0:	d803      	bhi.n	10000dea <alarm_pool_add_alarm_at+0x176>
10000de2:	d1f1      	bne.n	10000dc8 <alarm_pool_add_alarm_at+0x154>
10000de4:	9900      	ldr	r1, [sp, #0]
10000de6:	428a      	cmp	r2, r1
10000de8:	d9ee      	bls.n	10000dc8 <alarm_pool_add_alarm_at+0x154>
10000dea:	2301      	movs	r3, #1
10000dec:	425b      	negs	r3, r3
10000dee:	17dc      	asrs	r4, r3, #31
10000df0:	9300      	str	r3, [sp, #0]
10000df2:	9401      	str	r4, [sp, #4]
10000df4:	e7e8      	b.n	10000dc8 <alarm_pool_add_alarm_at+0x154>
10000df6:	9900      	ldr	r1, [sp, #0]
10000df8:	4291      	cmp	r1, r2
10000dfa:	d9e3      	bls.n	10000dc4 <alarm_pool_add_alarm_at+0x150>
10000dfc:	e7f5      	b.n	10000dea <alarm_pool_add_alarm_at+0x176>
10000dfe:	2000      	movs	r0, #0
10000e00:	e7a7      	b.n	10000d52 <alarm_pool_add_alarm_at+0xde>
10000e02:	46c0      	nop			; (mov r8, r8)
10000e04:	0fffffff 	.word	0x0fffffff

10000e08 <sleep_until>:
10000e08:	b5f0      	push	{r4, r5, r6, r7, lr}
10000e0a:	0004      	movs	r4, r0
10000e0c:	000d      	movs	r5, r1
10000e0e:	2606      	movs	r6, #6
10000e10:	4276      	negs	r6, r6
10000e12:	17f7      	asrs	r7, r6, #31
10000e14:	46c6      	mov	lr, r8
10000e16:	1936      	adds	r6, r6, r4
10000e18:	416f      	adcs	r7, r5
10000e1a:	b500      	push	{lr}
10000e1c:	428f      	cmp	r7, r1
10000e1e:	d813      	bhi.n	10000e48 <sleep_until+0x40>
10000e20:	d010      	beq.n	10000e44 <sleep_until+0x3c>
10000e22:	f000 f935 	bl	10001090 <time_us_64>
10000e26:	0032      	movs	r2, r6
10000e28:	003b      	movs	r3, r7
10000e2a:	1a12      	subs	r2, r2, r0
10000e2c:	418b      	sbcs	r3, r1
10000e2e:	2b00      	cmp	r3, #0
10000e30:	dc14      	bgt.n	10000e5c <sleep_until+0x54>
10000e32:	2b00      	cmp	r3, #0
10000e34:	d037      	beq.n	10000ea6 <sleep_until+0x9e>
10000e36:	0029      	movs	r1, r5
10000e38:	0020      	movs	r0, r4
10000e3a:	f000 f933 	bl	100010a4 <busy_wait_until>
10000e3e:	bc80      	pop	{r7}
10000e40:	46b8      	mov	r8, r7
10000e42:	bdf0      	pop	{r4, r5, r6, r7, pc}
10000e44:	4286      	cmp	r6, r0
10000e46:	d9ec      	bls.n	10000e22 <sleep_until+0x1a>
10000e48:	2600      	movs	r6, #0
10000e4a:	2700      	movs	r7, #0
10000e4c:	f000 f920 	bl	10001090 <time_us_64>
10000e50:	0032      	movs	r2, r6
10000e52:	003b      	movs	r3, r7
10000e54:	1a12      	subs	r2, r2, r0
10000e56:	418b      	sbcs	r3, r1
10000e58:	2b00      	cmp	r3, #0
10000e5a:	ddea      	ble.n	10000e32 <sleep_until+0x2a>
10000e5c:	0030      	movs	r0, r6
10000e5e:	0039      	movs	r1, r7
10000e60:	f7ff fe44 	bl	10000aec <alarm_pool_add_alarm_at.constprop.0>
10000e64:	2800      	cmp	r0, #0
10000e66:	dbe6      	blt.n	10000e36 <sleep_until+0x2e>
10000e68:	2300      	movs	r3, #0
10000e6a:	4698      	mov	r8, r3
10000e6c:	46bc      	mov	ip, r7
10000e6e:	4a0f      	ldr	r2, [pc, #60]	; (10000eac <sleep_until+0xa4>)
10000e70:	4f0f      	ldr	r7, [pc, #60]	; (10000eb0 <sleep_until+0xa8>)
10000e72:	6a7b      	ldr	r3, [r7, #36]	; 0x24
10000e74:	459c      	cmp	ip, r3
10000e76:	d804      	bhi.n	10000e82 <sleep_until+0x7a>
10000e78:	6ab9      	ldr	r1, [r7, #40]	; 0x28
10000e7a:	428e      	cmp	r6, r1
10000e7c:	d9db      	bls.n	10000e36 <sleep_until+0x2e>
10000e7e:	459c      	cmp	ip, r3
10000e80:	d1d9      	bne.n	10000e36 <sleep_until+0x2e>
10000e82:	6811      	ldr	r1, [r2, #0]
10000e84:	f3ef 8010 	mrs	r0, PRIMASK
10000e88:	b672      	cpsid	i
10000e8a:	680b      	ldr	r3, [r1, #0]
10000e8c:	2b00      	cmp	r3, #0
10000e8e:	d0fc      	beq.n	10000e8a <sleep_until+0x82>
10000e90:	f3bf 8f5f 	dmb	sy
10000e94:	6813      	ldr	r3, [r2, #0]
10000e96:	f3bf 8f5f 	dmb	sy
10000e9a:	4641      	mov	r1, r8
10000e9c:	6019      	str	r1, [r3, #0]
10000e9e:	f380 8810 	msr	PRIMASK, r0
10000ea2:	bf20      	wfe
10000ea4:	e7e5      	b.n	10000e72 <sleep_until+0x6a>
10000ea6:	2a00      	cmp	r2, #0
10000ea8:	d0c5      	beq.n	10000e36 <sleep_until+0x2e>
10000eaa:	e7d7      	b.n	10000e5c <sleep_until+0x54>
10000eac:	200011f4 	.word	0x200011f4
10000eb0:	40054000 	.word	0x40054000

10000eb4 <sleep_ms>:
10000eb4:	b570      	push	{r4, r5, r6, lr}
10000eb6:	0006      	movs	r6, r0
10000eb8:	f000 f8ea 	bl	10001090 <time_us_64>
10000ebc:	22fa      	movs	r2, #250	; 0xfa
10000ebe:	0004      	movs	r4, r0
10000ec0:	000d      	movs	r5, r1
10000ec2:	2300      	movs	r3, #0
10000ec4:	0030      	movs	r0, r6
10000ec6:	2100      	movs	r1, #0
10000ec8:	0092      	lsls	r2, r2, #2
10000eca:	f001 f8ff 	bl	100020cc <__wrap___aeabi_lmul>
10000ece:	1900      	adds	r0, r0, r4
10000ed0:	4169      	adcs	r1, r5
10000ed2:	428d      	cmp	r5, r1
10000ed4:	d805      	bhi.n	10000ee2 <sleep_ms+0x2e>
10000ed6:	d002      	beq.n	10000ede <sleep_ms+0x2a>
10000ed8:	f7ff ff96 	bl	10000e08 <sleep_until>
10000edc:	bd70      	pop	{r4, r5, r6, pc}
10000ede:	4284      	cmp	r4, r0
10000ee0:	d9fa      	bls.n	10000ed8 <sleep_ms+0x24>
10000ee2:	2001      	movs	r0, #1
10000ee4:	4240      	negs	r0, r0
10000ee6:	17c1      	asrs	r1, r0, #31
10000ee8:	e7f6      	b.n	10000ed8 <sleep_ms+0x24>
10000eea:	46c0      	nop			; (mov r8, r8)

10000eec <best_effort_wfe_or_timeout>:
10000eec:	b5f8      	push	{r3, r4, r5, r6, r7, lr}
10000eee:	46ce      	mov	lr, r9
10000ef0:	4647      	mov	r7, r8
10000ef2:	b580      	push	{r7, lr}
10000ef4:	0006      	movs	r6, r0
10000ef6:	000c      	movs	r4, r1
10000ef8:	f7ff fdf8 	bl	10000aec <alarm_pool_add_alarm_at.constprop.0>
10000efc:	2800      	cmp	r0, #0
10000efe:	dc0c      	bgt.n	10000f1a <best_effort_wfe_or_timeout+0x2e>
10000f00:	4b2d      	ldr	r3, [pc, #180]	; (10000fb8 <best_effort_wfe_or_timeout+0xcc>)
10000f02:	2000      	movs	r0, #0
10000f04:	6a59      	ldr	r1, [r3, #36]	; 0x24
10000f06:	428c      	cmp	r4, r1
10000f08:	d803      	bhi.n	10000f12 <best_effort_wfe_or_timeout+0x26>
10000f0a:	6a9b      	ldr	r3, [r3, #40]	; 0x28
10000f0c:	3001      	adds	r0, #1
10000f0e:	42b3      	cmp	r3, r6
10000f10:	d345      	bcc.n	10000f9e <best_effort_wfe_or_timeout+0xb2>
10000f12:	bcc0      	pop	{r6, r7}
10000f14:	46b9      	mov	r9, r7
10000f16:	46b0      	mov	r8, r6
10000f18:	bdf8      	pop	{r3, r4, r5, r6, r7, pc}
10000f1a:	bf20      	wfe
10000f1c:	4d27      	ldr	r5, [pc, #156]	; (10000fbc <best_effort_wfe_or_timeout+0xd0>)
10000f1e:	686a      	ldr	r2, [r5, #4]
10000f20:	f3ef 8710 	mrs	r7, PRIMASK
10000f24:	b672      	cpsid	i
10000f26:	6813      	ldr	r3, [r2, #0]
10000f28:	2b00      	cmp	r3, #0
10000f2a:	d0fc      	beq.n	10000f26 <best_effort_wfe_or_timeout+0x3a>
10000f2c:	f3bf 8f5f 	dmb	sy
10000f30:	682b      	ldr	r3, [r5, #0]
10000f32:	b2c1      	uxtb	r1, r0
10000f34:	469c      	mov	ip, r3
10000f36:	7b5b      	ldrb	r3, [r3, #13]
10000f38:	428b      	cmp	r3, r1
10000f3a:	d035      	beq.n	10000fa8 <best_effort_wfe_or_timeout+0xbc>
10000f3c:	23ff      	movs	r3, #255	; 0xff
10000f3e:	4003      	ands	r3, r0
10000f40:	005a      	lsls	r2, r3, #1
10000f42:	4691      	mov	r9, r2
10000f44:	4662      	mov	r2, ip
10000f46:	6812      	ldr	r2, [r2, #0]
10000f48:	4499      	add	r9, r3
10000f4a:	4690      	mov	r8, r2
10000f4c:	464a      	mov	r2, r9
10000f4e:	4442      	add	r2, r8
10000f50:	3a03      	subs	r2, #3
10000f52:	7892      	ldrb	r2, [r2, #2]
10000f54:	2a00      	cmp	r2, #0
10000f56:	d01d      	beq.n	10000f94 <best_effort_wfe_or_timeout+0xa8>
10000f58:	68ea      	ldr	r2, [r5, #12]
10000f5a:	0a00      	lsrs	r0, r0, #8
10000f5c:	4690      	mov	r8, r2
10000f5e:	4443      	add	r3, r8
10000f60:	3b01      	subs	r3, #1
10000f62:	781b      	ldrb	r3, [r3, #0]
10000f64:	b2c0      	uxtb	r0, r0
10000f66:	4283      	cmp	r3, r0
10000f68:	d021      	beq.n	10000fae <best_effort_wfe_or_timeout+0xc2>
10000f6a:	686b      	ldr	r3, [r5, #4]
10000f6c:	f3bf 8f5f 	dmb	sy
10000f70:	2200      	movs	r2, #0
10000f72:	601a      	str	r2, [r3, #0]
10000f74:	f387 8810 	msr	PRIMASK, r7
10000f78:	4a0f      	ldr	r2, [pc, #60]	; (10000fb8 <best_effort_wfe_or_timeout+0xcc>)
10000f7a:	2000      	movs	r0, #0
10000f7c:	6a53      	ldr	r3, [r2, #36]	; 0x24
10000f7e:	429c      	cmp	r4, r3
10000f80:	d8c7      	bhi.n	10000f12 <best_effort_wfe_or_timeout+0x26>
10000f82:	6a92      	ldr	r2, [r2, #40]	; 0x28
10000f84:	3001      	adds	r0, #1
10000f86:	42b2      	cmp	r2, r6
10000f88:	d2c3      	bcs.n	10000f12 <best_effort_wfe_or_timeout+0x26>
10000f8a:	1ae0      	subs	r0, r4, r3
10000f8c:	1e42      	subs	r2, r0, #1
10000f8e:	4190      	sbcs	r0, r2
10000f90:	b2c0      	uxtb	r0, r0
10000f92:	e7be      	b.n	10000f12 <best_effort_wfe_or_timeout+0x26>
10000f94:	692b      	ldr	r3, [r5, #16]
10000f96:	4298      	cmp	r0, r3
10000f98:	d1e7      	bne.n	10000f6a <best_effort_wfe_or_timeout+0x7e>
10000f9a:	612a      	str	r2, [r5, #16]
10000f9c:	e7e5      	b.n	10000f6a <best_effort_wfe_or_timeout+0x7e>
10000f9e:	1a60      	subs	r0, r4, r1
10000fa0:	1e43      	subs	r3, r0, #1
10000fa2:	4198      	sbcs	r0, r3
10000fa4:	b2c0      	uxtb	r0, r0
10000fa6:	e7b4      	b.n	10000f12 <best_effort_wfe_or_timeout+0x26>
10000fa8:	23ff      	movs	r3, #255	; 0xff
10000faa:	4003      	ands	r3, r0
10000fac:	e7d4      	b.n	10000f58 <best_effort_wfe_or_timeout+0x6c>
10000fae:	4660      	mov	r0, ip
10000fb0:	f000 fb24 	bl	100015fc <ph_remove_and_free_node>
10000fb4:	e7d9      	b.n	10000f6a <best_effort_wfe_or_timeout+0x7e>
10000fb6:	46c0      	nop			; (mov r8, r8)
10000fb8:	40054000 	.word	0x40054000
10000fbc:	20000394 	.word	0x20000394

10000fc0 <hardware_alarm_irq_handler>:
10000fc0:	b5f0      	push	{r4, r5, r6, r7, lr}
10000fc2:	46d6      	mov	lr, sl
10000fc4:	464f      	mov	r7, r9
10000fc6:	4646      	mov	r6, r8
10000fc8:	b5c0      	push	{r6, r7, lr}
10000fca:	f3ef 8305 	mrs	r3, IPSR
10000fce:	223f      	movs	r2, #63	; 0x3f
10000fd0:	4013      	ands	r3, r2
10000fd2:	0018      	movs	r0, r3
10000fd4:	3810      	subs	r0, #16
10000fd6:	f3ef 8c10 	mrs	ip, PRIMASK
10000fda:	b672      	cpsid	i
10000fdc:	4d20      	ldr	r5, [pc, #128]	; (10001060 <hardware_alarm_irq_handler+0xa0>)
10000fde:	682a      	ldr	r2, [r5, #0]
10000fe0:	2a00      	cmp	r2, #0
10000fe2:	d0fc      	beq.n	10000fde <hardware_alarm_irq_handler+0x1e>
10000fe4:	f3bf 8f5f 	dmb	sy
10000fe8:	2201      	movs	r2, #1
10000fea:	0011      	movs	r1, r2
10000fec:	4081      	lsls	r1, r0
10000fee:	4c1d      	ldr	r4, [pc, #116]	; (10001064 <hardware_alarm_irq_handler+0xa4>)
10000ff0:	4688      	mov	r8, r1
10000ff2:	6361      	str	r1, [r4, #52]	; 0x34
10000ff4:	491c      	ldr	r1, [pc, #112]	; (10001068 <hardware_alarm_irq_handler+0xa8>)
10000ff6:	0017      	movs	r7, r2
10000ff8:	780e      	ldrb	r6, [r1, #0]
10000ffa:	468a      	mov	sl, r1
10000ffc:	0031      	movs	r1, r6
10000ffe:	40c1      	lsrs	r1, r0
10001000:	400f      	ands	r7, r1
10001002:	420a      	tst	r2, r1
10001004:	d109      	bne.n	1000101a <hardware_alarm_irq_handler+0x5a>
10001006:	f3bf 8f5f 	dmb	sy
1000100a:	602f      	str	r7, [r5, #0]
1000100c:	f38c 8810 	msr	PRIMASK, ip
10001010:	bce0      	pop	{r5, r6, r7}
10001012:	46ba      	mov	sl, r7
10001014:	46b1      	mov	r9, r6
10001016:	46a8      	mov	r8, r5
10001018:	bdf0      	pop	{r4, r5, r6, r7, pc}
1000101a:	4914      	ldr	r1, [pc, #80]	; (1000106c <hardware_alarm_irq_handler+0xac>)
1000101c:	0082      	lsls	r2, r0, #2
1000101e:	6a64      	ldr	r4, [r4, #36]	; 0x24
10001020:	5851      	ldr	r1, [r2, r1]
10001022:	428c      	cmp	r4, r1
10001024:	d30f      	bcc.n	10001046 <hardware_alarm_irq_handler+0x86>
10001026:	4b12      	ldr	r3, [pc, #72]	; (10001070 <hardware_alarm_irq_handler+0xb0>)
10001028:	58d2      	ldr	r2, [r2, r3]
1000102a:	4643      	mov	r3, r8
1000102c:	439e      	bics	r6, r3
1000102e:	4653      	mov	r3, sl
10001030:	701e      	strb	r6, [r3, #0]
10001032:	f3bf 8f5f 	dmb	sy
10001036:	2300      	movs	r3, #0
10001038:	602b      	str	r3, [r5, #0]
1000103a:	f38c 8810 	msr	PRIMASK, ip
1000103e:	2a00      	cmp	r2, #0
10001040:	d0e6      	beq.n	10001010 <hardware_alarm_irq_handler+0x50>
10001042:	4790      	blx	r2
10001044:	e7e4      	b.n	10001010 <hardware_alarm_irq_handler+0x50>
10001046:	4a0b      	ldr	r2, [pc, #44]	; (10001074 <hardware_alarm_irq_handler+0xb4>)
10001048:	009b      	lsls	r3, r3, #2
1000104a:	4690      	mov	r8, r2
1000104c:	4443      	add	r3, r8
1000104e:	681a      	ldr	r2, [r3, #0]
10001050:	601a      	str	r2, [r3, #0]
10001052:	f3bf 8f5f 	dmb	sy
10001056:	2300      	movs	r3, #0
10001058:	602b      	str	r3, [r5, #0]
1000105a:	f38c 8810 	msr	PRIMASK, ip
1000105e:	e7d7      	b.n	10001010 <hardware_alarm_irq_handler+0x50>
10001060:	d0000128 	.word	0xd0000128
10001064:	40054000 	.word	0x40054000
10001068:	2000122f 	.word	0x2000122f
1000106c:	20001200 	.word	0x20001200
10001070:	20000c20 	.word	0x20000c20
10001074:	40053fd0 	.word	0x40053fd0

10001078 <hardware_alarm_claim>:
10001078:	b510      	push	{r4, lr}
1000107a:	0001      	movs	r1, r0
1000107c:	4a02      	ldr	r2, [pc, #8]	; (10001088 <hardware_alarm_claim+0x10>)
1000107e:	4803      	ldr	r0, [pc, #12]	; (1000108c <hardware_alarm_claim+0x14>)
10001080:	f7ff fa8c 	bl	1000059c <hw_claim_or_assert>
10001084:	bd10      	pop	{r4, pc}
10001086:	46c0      	nop			; (mov r8, r8)
10001088:	1000503c 	.word	0x1000503c
1000108c:	2000122c 	.word	0x2000122c

10001090 <time_us_64>:
10001090:	4b03      	ldr	r3, [pc, #12]	; (100010a0 <time_us_64+0x10>)
10001092:	6a59      	ldr	r1, [r3, #36]	; 0x24
10001094:	000a      	movs	r2, r1
10001096:	6a98      	ldr	r0, [r3, #40]	; 0x28
10001098:	6a59      	ldr	r1, [r3, #36]	; 0x24
1000109a:	428a      	cmp	r2, r1
1000109c:	d1fa      	bne.n	10001094 <time_us_64+0x4>
1000109e:	4770      	bx	lr
100010a0:	40054000 	.word	0x40054000

100010a4 <busy_wait_until>:
100010a4:	4a06      	ldr	r2, [pc, #24]	; (100010c0 <busy_wait_until+0x1c>)
100010a6:	6a53      	ldr	r3, [r2, #36]	; 0x24
100010a8:	4299      	cmp	r1, r3
100010aa:	d8fc      	bhi.n	100010a6 <busy_wait_until+0x2>
100010ac:	d107      	bne.n	100010be <busy_wait_until+0x1a>
100010ae:	4b04      	ldr	r3, [pc, #16]	; (100010c0 <busy_wait_until+0x1c>)
100010b0:	e002      	b.n	100010b8 <busy_wait_until+0x14>
100010b2:	6a5a      	ldr	r2, [r3, #36]	; 0x24
100010b4:	4291      	cmp	r1, r2
100010b6:	d102      	bne.n	100010be <busy_wait_until+0x1a>
100010b8:	6a9a      	ldr	r2, [r3, #40]	; 0x28
100010ba:	4282      	cmp	r2, r0
100010bc:	d3f9      	bcc.n	100010b2 <busy_wait_until+0xe>
100010be:	4770      	bx	lr
100010c0:	40054000 	.word	0x40054000

100010c4 <hardware_alarm_set_callback>:
100010c4:	b570      	push	{r4, r5, r6, lr}
100010c6:	0004      	movs	r4, r0
100010c8:	000d      	movs	r5, r1
100010ca:	f3ef 8610 	mrs	r6, PRIMASK
100010ce:	b672      	cpsid	i
100010d0:	4a1a      	ldr	r2, [pc, #104]	; (1000113c <hardware_alarm_set_callback+0x78>)
100010d2:	6813      	ldr	r3, [r2, #0]
100010d4:	2b00      	cmp	r3, #0
100010d6:	d0fc      	beq.n	100010d2 <hardware_alarm_set_callback+0xe>
100010d8:	f3bf 8f5f 	dmb	sy
100010dc:	2d00      	cmp	r5, #0
100010de:	d01b      	beq.n	10001118 <hardware_alarm_set_callback+0x54>
100010e0:	0020      	movs	r0, r4
100010e2:	f000 fcdf 	bl	10001aa4 <irq_get_vtable_handler>
100010e6:	4916      	ldr	r1, [pc, #88]	; (10001140 <hardware_alarm_set_callback+0x7c>)
100010e8:	4281      	cmp	r1, r0
100010ea:	d00a      	beq.n	10001102 <hardware_alarm_set_callback+0x3e>
100010ec:	0020      	movs	r0, r4
100010ee:	f000 fce1 	bl	10001ab4 <irq_set_exclusive_handler>
100010f2:	2101      	movs	r1, #1
100010f4:	0020      	movs	r0, r4
100010f6:	f000 fcbb 	bl	10001a70 <irq_set_enabled>
100010fa:	2301      	movs	r3, #1
100010fc:	40a3      	lsls	r3, r4
100010fe:	4a11      	ldr	r2, [pc, #68]	; (10001144 <hardware_alarm_set_callback+0x80>)
10001100:	6013      	str	r3, [r2, #0]
10001102:	4b11      	ldr	r3, [pc, #68]	; (10001148 <hardware_alarm_set_callback+0x84>)
10001104:	00a4      	lsls	r4, r4, #2
10001106:	50e5      	str	r5, [r4, r3]
10001108:	f3bf 8f5f 	dmb	sy
1000110c:	2200      	movs	r2, #0
1000110e:	4b0b      	ldr	r3, [pc, #44]	; (1000113c <hardware_alarm_set_callback+0x78>)
10001110:	601a      	str	r2, [r3, #0]
10001112:	f386 8810 	msr	PRIMASK, r6
10001116:	bd70      	pop	{r4, r5, r6, pc}
10001118:	4b0b      	ldr	r3, [pc, #44]	; (10001148 <hardware_alarm_set_callback+0x84>)
1000111a:	00a2      	lsls	r2, r4, #2
1000111c:	50d5      	str	r5, [r2, r3]
1000111e:	2201      	movs	r2, #1
10001120:	40a2      	lsls	r2, r4
10001122:	490a      	ldr	r1, [pc, #40]	; (1000114c <hardware_alarm_set_callback+0x88>)
10001124:	0020      	movs	r0, r4
10001126:	780b      	ldrb	r3, [r1, #0]
10001128:	4393      	bics	r3, r2
1000112a:	700b      	strb	r3, [r1, #0]
1000112c:	4904      	ldr	r1, [pc, #16]	; (10001140 <hardware_alarm_set_callback+0x7c>)
1000112e:	f000 fceb 	bl	10001b08 <irq_remove_handler>
10001132:	2100      	movs	r1, #0
10001134:	0020      	movs	r0, r4
10001136:	f000 fc9b 	bl	10001a70 <irq_set_enabled>
1000113a:	e7e5      	b.n	10001108 <hardware_alarm_set_callback+0x44>
1000113c:	d0000128 	.word	0xd0000128
10001140:	10000fc1 	.word	0x10000fc1
10001144:	40056038 	.word	0x40056038
10001148:	20000c20 	.word	0x20000c20
1000114c:	2000122f 	.word	0x2000122f

10001150 <hardware_alarm_set_target>:
10001150:	b5f0      	push	{r4, r5, r6, r7, lr}
10001152:	464f      	mov	r7, r9
10001154:	46d6      	mov	lr, sl
10001156:	4646      	mov	r6, r8
10001158:	b5c0      	push	{r6, r7, lr}
1000115a:	0007      	movs	r7, r0
1000115c:	4c2f      	ldr	r4, [pc, #188]	; (1000121c <hardware_alarm_set_target+0xcc>)
1000115e:	6a61      	ldr	r1, [r4, #36]	; 0x24
10001160:	000d      	movs	r5, r1
10001162:	6aa6      	ldr	r6, [r4, #40]	; 0x28
10001164:	6a61      	ldr	r1, [r4, #36]	; 0x24
10001166:	42a9      	cmp	r1, r5
10001168:	d1fa      	bne.n	10001160 <hardware_alarm_set_target+0x10>
1000116a:	428b      	cmp	r3, r1
1000116c:	d808      	bhi.n	10001180 <hardware_alarm_set_target+0x30>
1000116e:	d005      	beq.n	1000117c <hardware_alarm_set_target+0x2c>
10001170:	2001      	movs	r0, #1
10001172:	bce0      	pop	{r5, r6, r7}
10001174:	46ba      	mov	sl, r7
10001176:	46b1      	mov	r9, r6
10001178:	46a8      	mov	r8, r5
1000117a:	bdf0      	pop	{r4, r5, r6, r7, pc}
1000117c:	42b2      	cmp	r2, r6
1000117e:	d9f7      	bls.n	10001170 <hardware_alarm_set_target+0x20>
10001180:	f3ef 8a10 	mrs	sl, PRIMASK
10001184:	b672      	cpsid	i
10001186:	4826      	ldr	r0, [pc, #152]	; (10001220 <hardware_alarm_set_target+0xd0>)
10001188:	6801      	ldr	r1, [r0, #0]
1000118a:	2900      	cmp	r1, #0
1000118c:	d0fc      	beq.n	10001188 <hardware_alarm_set_target+0x38>
1000118e:	f3bf 8f5f 	dmb	sy
10001192:	2501      	movs	r5, #1
10001194:	40bd      	lsls	r5, r7
10001196:	4923      	ldr	r1, [pc, #140]	; (10001224 <hardware_alarm_set_target+0xd4>)
10001198:	4c20      	ldr	r4, [pc, #128]	; (1000121c <hardware_alarm_set_target+0xcc>)
1000119a:	4688      	mov	r8, r1
1000119c:	7809      	ldrb	r1, [r1, #0]
1000119e:	4689      	mov	r9, r1
100011a0:	4329      	orrs	r1, r5
100011a2:	b2c9      	uxtb	r1, r1
100011a4:	468c      	mov	ip, r1
100011a6:	4641      	mov	r1, r8
100011a8:	4660      	mov	r0, ip
100011aa:	7008      	strb	r0, [r1, #0]
100011ac:	1d39      	adds	r1, r7, #4
100011ae:	481e      	ldr	r0, [pc, #120]	; (10001228 <hardware_alarm_set_target+0xd8>)
100011b0:	0089      	lsls	r1, r1, #2
100011b2:	6365      	str	r5, [r4, #52]	; 0x34
100011b4:	510a      	str	r2, [r1, r4]
100011b6:	00b9      	lsls	r1, r7, #2
100011b8:	500b      	str	r3, [r1, r0]
100011ba:	6a21      	ldr	r1, [r4, #32]
100011bc:	2000      	movs	r0, #0
100011be:	4229      	tst	r1, r5
100011c0:	d019      	beq.n	100011f6 <hardware_alarm_set_target+0xa6>
100011c2:	6a61      	ldr	r1, [r4, #36]	; 0x24
100011c4:	0008      	movs	r0, r1
100011c6:	6aa6      	ldr	r6, [r4, #40]	; 0x28
100011c8:	6a61      	ldr	r1, [r4, #36]	; 0x24
100011ca:	4281      	cmp	r1, r0
100011cc:	d1fa      	bne.n	100011c4 <hardware_alarm_set_target+0x74>
100011ce:	428b      	cmp	r3, r1
100011d0:	d819      	bhi.n	10001206 <hardware_alarm_set_target+0xb6>
100011d2:	d101      	bne.n	100011d8 <hardware_alarm_set_target+0x88>
100011d4:	42b2      	cmp	r2, r6
100011d6:	d816      	bhi.n	10001206 <hardware_alarm_set_target+0xb6>
100011d8:	45cc      	cmp	ip, r9
100011da:	d01d      	beq.n	10001218 <hardware_alarm_set_target+0xc8>
100011dc:	4b0f      	ldr	r3, [pc, #60]	; (1000121c <hardware_alarm_set_target+0xcc>)
100011de:	201f      	movs	r0, #31
100011e0:	621d      	str	r5, [r3, #32]
100011e2:	635d      	str	r5, [r3, #52]	; 0x34
100011e4:	2301      	movs	r3, #1
100011e6:	4007      	ands	r7, r0
100011e8:	40bb      	lsls	r3, r7
100011ea:	4a10      	ldr	r2, [pc, #64]	; (1000122c <hardware_alarm_set_target+0xdc>)
100011ec:	381e      	subs	r0, #30
100011ee:	6013      	str	r3, [r2, #0]
100011f0:	4643      	mov	r3, r8
100011f2:	464a      	mov	r2, r9
100011f4:	701a      	strb	r2, [r3, #0]
100011f6:	f3bf 8f5f 	dmb	sy
100011fa:	2200      	movs	r2, #0
100011fc:	4b08      	ldr	r3, [pc, #32]	; (10001220 <hardware_alarm_set_target+0xd0>)
100011fe:	601a      	str	r2, [r3, #0]
10001200:	f38a 8810 	msr	PRIMASK, sl
10001204:	e7b5      	b.n	10001172 <hardware_alarm_set_target+0x22>
10001206:	2000      	movs	r0, #0
10001208:	f3bf 8f5f 	dmb	sy
1000120c:	2200      	movs	r2, #0
1000120e:	4b04      	ldr	r3, [pc, #16]	; (10001220 <hardware_alarm_set_target+0xd0>)
10001210:	601a      	str	r2, [r3, #0]
10001212:	f38a 8810 	msr	PRIMASK, sl
10001216:	e7ac      	b.n	10001172 <hardware_alarm_set_target+0x22>
10001218:	2001      	movs	r0, #1
1000121a:	e7ec      	b.n	100011f6 <hardware_alarm_set_target+0xa6>
1000121c:	40054000 	.word	0x40054000
10001220:	d0000128 	.word	0xd0000128
10001224:	2000122f 	.word	0x2000122f
10001228:	20001200 	.word	0x20001200
1000122c:	e000e280 	.word	0xe000e280

10001230 <hardware_alarm_cancel>:
10001230:	f3ef 8c10 	mrs	ip, PRIMASK
10001234:	b672      	cpsid	i
10001236:	490a      	ldr	r1, [pc, #40]	; (10001260 <hardware_alarm_cancel+0x30>)
10001238:	680b      	ldr	r3, [r1, #0]
1000123a:	2b00      	cmp	r3, #0
1000123c:	d0fc      	beq.n	10001238 <hardware_alarm_cancel+0x8>
1000123e:	f3bf 8f5f 	dmb	sy
10001242:	2301      	movs	r3, #1
10001244:	4083      	lsls	r3, r0
10001246:	4a07      	ldr	r2, [pc, #28]	; (10001264 <hardware_alarm_cancel+0x34>)
10001248:	4807      	ldr	r0, [pc, #28]	; (10001268 <hardware_alarm_cancel+0x38>)
1000124a:	6213      	str	r3, [r2, #32]
1000124c:	7802      	ldrb	r2, [r0, #0]
1000124e:	439a      	bics	r2, r3
10001250:	7002      	strb	r2, [r0, #0]
10001252:	f3bf 8f5f 	dmb	sy
10001256:	2300      	movs	r3, #0
10001258:	600b      	str	r3, [r1, #0]
1000125a:	f38c 8810 	msr	PRIMASK, ip
1000125e:	4770      	bx	lr
10001260:	d0000128 	.word	0xd0000128
10001264:	40054000 	.word	0x40054000
10001268:	2000122f 	.word	0x2000122f

1000126c <lock_init>:
1000126c:	4b02      	ldr	r3, [pc, #8]	; (10001278 <lock_init+0xc>)
1000126e:	469c      	mov	ip, r3
10001270:	4461      	add	r1, ip
10001272:	0089      	lsls	r1, r1, #2
10001274:	6001      	str	r1, [r0, #0]
10001276:	4770      	bx	lr
10001278:	34000040 	.word	0x34000040

1000127c <mutex_init>:
1000127c:	b510      	push	{r4, lr}
1000127e:	0004      	movs	r4, r0
10001280:	f7ff fa12 	bl	100006a8 <next_striped_spin_lock_num>
10001284:	0001      	movs	r1, r0
10001286:	0020      	movs	r0, r4
10001288:	f7ff fff0 	bl	1000126c <lock_init>
1000128c:	23ff      	movs	r3, #255	; 0xff
1000128e:	7123      	strb	r3, [r4, #4]
10001290:	f3bf 8f5f 	dmb	sy
10001294:	bd10      	pop	{r4, pc}
10001296:	46c0      	nop			; (mov r8, r8)

10001298 <recursive_mutex_init>:
10001298:	b510      	push	{r4, lr}
1000129a:	0004      	movs	r4, r0
1000129c:	f7ff fa04 	bl	100006a8 <next_striped_spin_lock_num>
100012a0:	0001      	movs	r1, r0
100012a2:	0020      	movs	r0, r4
100012a4:	f7ff ffe2 	bl	1000126c <lock_init>
100012a8:	23ff      	movs	r3, #255	; 0xff
100012aa:	80a3      	strh	r3, [r4, #4]
100012ac:	f3bf 8f5f 	dmb	sy
100012b0:	bd10      	pop	{r4, pc}
100012b2:	46c0      	nop			; (mov r8, r8)

100012b4 <critical_section_init>:
100012b4:	b510      	push	{r4, lr}
100012b6:	0004      	movs	r4, r0
100012b8:	2001      	movs	r0, #1
100012ba:	f7ff fa01 	bl	100006c0 <spin_lock_claim_unused>
100012be:	4b04      	ldr	r3, [pc, #16]	; (100012d0 <critical_section_init+0x1c>)
100012c0:	469c      	mov	ip, r3
100012c2:	4460      	add	r0, ip
100012c4:	0080      	lsls	r0, r0, #2
100012c6:	6020      	str	r0, [r4, #0]
100012c8:	f3bf 8f5f 	dmb	sy
100012cc:	bd10      	pop	{r4, pc}
100012ce:	46c0      	nop			; (mov r8, r8)
100012d0:	34000040 	.word	0x34000040

100012d4 <ph_merge_nodes>:
100012d4:	b570      	push	{r4, r5, r6, lr}
100012d6:	0005      	movs	r5, r0
100012d8:	0014      	movs	r4, r2
100012da:	0016      	movs	r6, r2
100012dc:	2900      	cmp	r1, #0
100012de:	d015      	beq.n	1000130c <ph_merge_nodes+0x38>
100012e0:	000c      	movs	r4, r1
100012e2:	2a00      	cmp	r2, #0
100012e4:	d012      	beq.n	1000130c <ph_merge_nodes+0x38>
100012e6:	6880      	ldr	r0, [r0, #8]
100012e8:	686b      	ldr	r3, [r5, #4]
100012ea:	4798      	blx	r3
100012ec:	6829      	ldr	r1, [r5, #0]
100012ee:	2800      	cmp	r0, #0
100012f0:	d00e      	beq.n	10001310 <ph_merge_nodes+0x3c>
100012f2:	0073      	lsls	r3, r6, #1
100012f4:	199b      	adds	r3, r3, r6
100012f6:	0062      	lsls	r2, r4, #1
100012f8:	3b03      	subs	r3, #3
100012fa:	1912      	adds	r2, r2, r4
100012fc:	18cb      	adds	r3, r1, r3
100012fe:	3a03      	subs	r2, #3
10001300:	709c      	strb	r4, [r3, #2]
10001302:	1888      	adds	r0, r1, r2
10001304:	5c8a      	ldrb	r2, [r1, r2]
10001306:	2a00      	cmp	r2, #0
10001308:	d115      	bne.n	10001336 <ph_merge_nodes+0x62>
1000130a:	7006      	strb	r6, [r0, #0]
1000130c:	0020      	movs	r0, r4
1000130e:	bd70      	pop	{r4, r5, r6, pc}
10001310:	0063      	lsls	r3, r4, #1
10001312:	191b      	adds	r3, r3, r4
10001314:	0072      	lsls	r2, r6, #1
10001316:	3b03      	subs	r3, #3
10001318:	1992      	adds	r2, r2, r6
1000131a:	18cb      	adds	r3, r1, r3
1000131c:	3a03      	subs	r2, #3
1000131e:	709e      	strb	r6, [r3, #2]
10001320:	1888      	adds	r0, r1, r2
10001322:	5c8a      	ldrb	r2, [r1, r2]
10001324:	2a00      	cmp	r2, #0
10001326:	d102      	bne.n	1000132e <ph_merge_nodes+0x5a>
10001328:	7004      	strb	r4, [r0, #0]
1000132a:	0034      	movs	r4, r6
1000132c:	e7ee      	b.n	1000130c <ph_merge_nodes+0x38>
1000132e:	705a      	strb	r2, [r3, #1]
10001330:	7004      	strb	r4, [r0, #0]
10001332:	0034      	movs	r4, r6
10001334:	e7ea      	b.n	1000130c <ph_merge_nodes+0x38>
10001336:	705a      	strb	r2, [r3, #1]
10001338:	7006      	strb	r6, [r0, #0]
1000133a:	e7e7      	b.n	1000130c <ph_merge_nodes+0x38>

1000133c <ph_post_alloc_init>:
1000133c:	b530      	push	{r4, r5, lr}
1000133e:	6083      	str	r3, [r0, #8]
10001340:	2300      	movs	r3, #0
10001342:	b2cc      	uxtb	r4, r1
10001344:	7343      	strb	r3, [r0, #13]
10001346:	3301      	adds	r3, #1
10001348:	7304      	strb	r4, [r0, #12]
1000134a:	6042      	str	r2, [r0, #4]
1000134c:	7383      	strb	r3, [r0, #14]
1000134e:	73c4      	strb	r4, [r0, #15]
10001350:	000d      	movs	r5, r1
10001352:	6800      	ldr	r0, [r0, #0]
10001354:	2c01      	cmp	r4, #1
10001356:	d906      	bls.n	10001366 <ph_post_alloc_init+0x2a>
10001358:	1c42      	adds	r2, r0, #1
1000135a:	3301      	adds	r3, #1
1000135c:	b2db      	uxtb	r3, r3
1000135e:	7013      	strb	r3, [r2, #0]
10001360:	3203      	adds	r2, #3
10001362:	429c      	cmp	r4, r3
10001364:	d1f9      	bne.n	1000135a <ph_post_alloc_init+0x1e>
10001366:	21ff      	movs	r1, #255	; 0xff
10001368:	4029      	ands	r1, r5
1000136a:	004b      	lsls	r3, r1, #1
1000136c:	1859      	adds	r1, r3, r1
1000136e:	2300      	movs	r3, #0
10001370:	1840      	adds	r0, r0, r1
10001372:	3803      	subs	r0, #3
10001374:	7043      	strb	r3, [r0, #1]
10001376:	bd30      	pop	{r4, r5, pc}

10001378 <ph_merge_two_pass>:
10001378:	b5f8      	push	{r3, r4, r5, r6, r7, lr}
1000137a:	46ce      	mov	lr, r9
1000137c:	4647      	mov	r7, r8
1000137e:	0006      	movs	r6, r0
10001380:	000c      	movs	r4, r1
10001382:	b580      	push	{r7, lr}
10001384:	2900      	cmp	r1, #0
10001386:	d007      	beq.n	10001398 <ph_merge_two_pass+0x20>
10001388:	004d      	lsls	r5, r1, #1
1000138a:	6803      	ldr	r3, [r0, #0]
1000138c:	186d      	adds	r5, r5, r1
1000138e:	3d03      	subs	r5, #3
10001390:	195a      	adds	r2, r3, r5
10001392:	7857      	ldrb	r7, [r2, #1]
10001394:	2f00      	cmp	r7, #0
10001396:	d104      	bne.n	100013a2 <ph_merge_two_pass+0x2a>
10001398:	0020      	movs	r0, r4
1000139a:	bcc0      	pop	{r6, r7}
1000139c:	46b9      	mov	r9, r7
1000139e:	46b0      	mov	r8, r6
100013a0:	bdf8      	pop	{r3, r4, r5, r6, r7, pc}
100013a2:	0079      	lsls	r1, r7, #1
100013a4:	19c9      	adds	r1, r1, r7
100013a6:	3903      	subs	r1, #3
100013a8:	4688      	mov	r8, r1
100013aa:	4443      	add	r3, r8
100013ac:	7859      	ldrb	r1, [r3, #1]
100013ae:	4689      	mov	r9, r1
100013b0:	2100      	movs	r1, #0
100013b2:	7059      	strb	r1, [r3, #1]
100013b4:	7051      	strb	r1, [r2, #1]
100013b6:	6873      	ldr	r3, [r6, #4]
100013b8:	003a      	movs	r2, r7
100013ba:	0021      	movs	r1, r4
100013bc:	6880      	ldr	r0, [r0, #8]
100013be:	4798      	blx	r3
100013c0:	6833      	ldr	r3, [r6, #0]
100013c2:	2800      	cmp	r0, #0
100013c4:	d014      	beq.n	100013f0 <ph_merge_two_pass+0x78>
100013c6:	4642      	mov	r2, r8
100013c8:	189a      	adds	r2, r3, r2
100013ca:	7094      	strb	r4, [r2, #2]
100013cc:	1959      	adds	r1, r3, r5
100013ce:	5d5b      	ldrb	r3, [r3, r5]
100013d0:	2b00      	cmp	r3, #0
100013d2:	d000      	beq.n	100013d6 <ph_merge_two_pass+0x5e>
100013d4:	7053      	strb	r3, [r2, #1]
100013d6:	700f      	strb	r7, [r1, #0]
100013d8:	0027      	movs	r7, r4
100013da:	4649      	mov	r1, r9
100013dc:	0030      	movs	r0, r6
100013de:	f7ff ffcb 	bl	10001378 <ph_merge_two_pass>
100013e2:	0039      	movs	r1, r7
100013e4:	0002      	movs	r2, r0
100013e6:	0030      	movs	r0, r6
100013e8:	f7ff ff74 	bl	100012d4 <ph_merge_nodes>
100013ec:	0004      	movs	r4, r0
100013ee:	e7d3      	b.n	10001398 <ph_merge_two_pass+0x20>
100013f0:	4642      	mov	r2, r8
100013f2:	4641      	mov	r1, r8
100013f4:	195d      	adds	r5, r3, r5
100013f6:	70af      	strb	r7, [r5, #2]
100013f8:	189a      	adds	r2, r3, r2
100013fa:	5c5b      	ldrb	r3, [r3, r1]
100013fc:	2b00      	cmp	r3, #0
100013fe:	d000      	beq.n	10001402 <ph_merge_two_pass+0x8a>
10001400:	706b      	strb	r3, [r5, #1]
10001402:	7014      	strb	r4, [r2, #0]
10001404:	e7e9      	b.n	100013da <ph_merge_two_pass+0x62>
10001406:	46c0      	nop			; (mov r8, r8)

10001408 <ph_remove_any_head>:
10001408:	b5f0      	push	{r4, r5, r6, r7, lr}
1000140a:	4657      	mov	r7, sl
1000140c:	4645      	mov	r5, r8
1000140e:	46de      	mov	lr, fp
10001410:	464e      	mov	r6, r9
10001412:	b5e0      	push	{r5, r6, r7, lr}
10001414:	000d      	movs	r5, r1
10001416:	006b      	lsls	r3, r5, #1
10001418:	6801      	ldr	r1, [r0, #0]
1000141a:	195b      	adds	r3, r3, r5
1000141c:	1edf      	subs	r7, r3, #3
1000141e:	0004      	movs	r4, r0
10001420:	5dc8      	ldrb	r0, [r1, r7]
10001422:	b083      	sub	sp, #12
10001424:	9201      	str	r2, [sp, #4]
10001426:	19ca      	adds	r2, r1, r7
10001428:	2800      	cmp	r0, #0
1000142a:	d04c      	beq.n	100014c6 <ph_remove_any_head+0xbe>
1000142c:	0043      	lsls	r3, r0, #1
1000142e:	181b      	adds	r3, r3, r0
10001430:	3b03      	subs	r3, #3
10001432:	18cb      	adds	r3, r1, r3
10001434:	785e      	ldrb	r6, [r3, #1]
10001436:	46b4      	mov	ip, r6
10001438:	2e00      	cmp	r6, #0
1000143a:	d116      	bne.n	1000146a <ph_remove_any_head+0x62>
1000143c:	9e01      	ldr	r6, [sp, #4]
1000143e:	2e00      	cmp	r6, #0
10001440:	d03e      	beq.n	100014c0 <ph_remove_any_head+0xb8>
10001442:	7be6      	ldrb	r6, [r4, #15]
10001444:	2e00      	cmp	r6, #0
10001446:	d004      	beq.n	10001452 <ph_remove_any_head+0x4a>
10001448:	0073      	lsls	r3, r6, #1
1000144a:	199b      	adds	r3, r3, r6
1000144c:	18cb      	adds	r3, r1, r3
1000144e:	3b03      	subs	r3, #3
10001450:	705d      	strb	r5, [r3, #1]
10001452:	73e5      	strb	r5, [r4, #15]
10001454:	2800      	cmp	r0, #0
10001456:	d12f      	bne.n	100014b8 <ph_remove_any_head+0xb0>
10001458:	2300      	movs	r3, #0
1000145a:	7053      	strb	r3, [r2, #1]
1000145c:	b003      	add	sp, #12
1000145e:	bcf0      	pop	{r4, r5, r6, r7}
10001460:	46bb      	mov	fp, r7
10001462:	46b2      	mov	sl, r6
10001464:	46a9      	mov	r9, r5
10001466:	46a0      	mov	r8, r4
10001468:	bdf0      	pop	{r4, r5, r6, r7, pc}
1000146a:	0072      	lsls	r2, r6, #1
1000146c:	4462      	add	r2, ip
1000146e:	3a03      	subs	r2, #3
10001470:	1889      	adds	r1, r1, r2
10001472:	784a      	ldrb	r2, [r1, #1]
10001474:	4690      	mov	r8, r2
10001476:	2200      	movs	r2, #0
10001478:	704a      	strb	r2, [r1, #1]
1000147a:	4691      	mov	r9, r2
1000147c:	705a      	strb	r2, [r3, #1]
1000147e:	0001      	movs	r1, r0
10001480:	0032      	movs	r2, r6
10001482:	0020      	movs	r0, r4
10001484:	f7ff ff26 	bl	100012d4 <ph_merge_nodes>
10001488:	4643      	mov	r3, r8
1000148a:	4682      	mov	sl, r0
1000148c:	2b00      	cmp	r3, #0
1000148e:	d007      	beq.n	100014a0 <ph_remove_any_head+0x98>
10001490:	005b      	lsls	r3, r3, #1
10001492:	6821      	ldr	r1, [r4, #0]
10001494:	4443      	add	r3, r8
10001496:	3b03      	subs	r3, #3
10001498:	18cb      	adds	r3, r1, r3
1000149a:	785a      	ldrb	r2, [r3, #1]
1000149c:	2a00      	cmp	r2, #0
1000149e:	d116      	bne.n	100014ce <ph_remove_any_head+0xc6>
100014a0:	4642      	mov	r2, r8
100014a2:	4651      	mov	r1, sl
100014a4:	0020      	movs	r0, r4
100014a6:	f7ff ff15 	bl	100012d4 <ph_merge_nodes>
100014aa:	6821      	ldr	r1, [r4, #0]
100014ac:	9b01      	ldr	r3, [sp, #4]
100014ae:	19ca      	adds	r2, r1, r7
100014b0:	2b00      	cmp	r3, #0
100014b2:	d1c6      	bne.n	10001442 <ph_remove_any_head+0x3a>
100014b4:	2800      	cmp	r0, #0
100014b6:	d0cf      	beq.n	10001458 <ph_remove_any_head+0x50>
100014b8:	0043      	lsls	r3, r0, #1
100014ba:	181b      	adds	r3, r3, r0
100014bc:	3b03      	subs	r3, #3
100014be:	18cb      	adds	r3, r1, r3
100014c0:	2100      	movs	r1, #0
100014c2:	7099      	strb	r1, [r3, #2]
100014c4:	e7c8      	b.n	10001458 <ph_remove_any_head+0x50>
100014c6:	9b01      	ldr	r3, [sp, #4]
100014c8:	2b00      	cmp	r3, #0
100014ca:	d1ba      	bne.n	10001442 <ph_remove_any_head+0x3a>
100014cc:	e7c4      	b.n	10001458 <ph_remove_any_head+0x50>
100014ce:	0050      	lsls	r0, r2, #1
100014d0:	1880      	adds	r0, r0, r2
100014d2:	3803      	subs	r0, #3
100014d4:	1809      	adds	r1, r1, r0
100014d6:	7848      	ldrb	r0, [r1, #1]
100014d8:	4683      	mov	fp, r0
100014da:	4648      	mov	r0, r9
100014dc:	7048      	strb	r0, [r1, #1]
100014de:	7058      	strb	r0, [r3, #1]
100014e0:	4641      	mov	r1, r8
100014e2:	0020      	movs	r0, r4
100014e4:	f7ff fef6 	bl	100012d4 <ph_merge_nodes>
100014e8:	4659      	mov	r1, fp
100014ea:	4680      	mov	r8, r0
100014ec:	0020      	movs	r0, r4
100014ee:	f7ff ff43 	bl	10001378 <ph_merge_two_pass>
100014f2:	4641      	mov	r1, r8
100014f4:	0002      	movs	r2, r0
100014f6:	0020      	movs	r0, r4
100014f8:	f7ff feec 	bl	100012d4 <ph_merge_nodes>
100014fc:	4680      	mov	r8, r0
100014fe:	e7cf      	b.n	100014a0 <ph_remove_any_head+0x98>

10001500 <ph_remove_head>:
10001500:	b5f0      	push	{r4, r5, r6, r7, lr}
10001502:	4657      	mov	r7, sl
10001504:	4645      	mov	r5, r8
10001506:	46de      	mov	lr, fp
10001508:	464e      	mov	r6, r9
1000150a:	b5e0      	push	{r5, r6, r7, lr}
1000150c:	b083      	sub	sp, #12
1000150e:	9101      	str	r1, [sp, #4]
10001510:	7b45      	ldrb	r5, [r0, #13]
10001512:	0004      	movs	r4, r0
10001514:	006b      	lsls	r3, r5, #1
10001516:	6800      	ldr	r0, [r0, #0]
10001518:	195b      	adds	r3, r3, r5
1000151a:	1edf      	subs	r7, r3, #3
1000151c:	5dc1      	ldrb	r1, [r0, r7]
1000151e:	19c2      	adds	r2, r0, r7
10001520:	2900      	cmp	r1, #0
10001522:	d04e      	beq.n	100015c2 <ph_remove_head+0xc2>
10001524:	004b      	lsls	r3, r1, #1
10001526:	185b      	adds	r3, r3, r1
10001528:	3b03      	subs	r3, #3
1000152a:	18c3      	adds	r3, r0, r3
1000152c:	785e      	ldrb	r6, [r3, #1]
1000152e:	46b4      	mov	ip, r6
10001530:	2e00      	cmp	r6, #0
10001532:	d118      	bne.n	10001566 <ph_remove_head+0x66>
10001534:	9e01      	ldr	r6, [sp, #4]
10001536:	2e00      	cmp	r6, #0
10001538:	d040      	beq.n	100015bc <ph_remove_head+0xbc>
1000153a:	7be6      	ldrb	r6, [r4, #15]
1000153c:	2e00      	cmp	r6, #0
1000153e:	d004      	beq.n	1000154a <ph_remove_head+0x4a>
10001540:	0073      	lsls	r3, r6, #1
10001542:	199b      	adds	r3, r3, r6
10001544:	18c3      	adds	r3, r0, r3
10001546:	3b03      	subs	r3, #3
10001548:	705d      	strb	r5, [r3, #1]
1000154a:	73e5      	strb	r5, [r4, #15]
1000154c:	2900      	cmp	r1, #0
1000154e:	d131      	bne.n	100015b4 <ph_remove_head+0xb4>
10001550:	2300      	movs	r3, #0
10001552:	0028      	movs	r0, r5
10001554:	7053      	strb	r3, [r2, #1]
10001556:	7361      	strb	r1, [r4, #13]
10001558:	b003      	add	sp, #12
1000155a:	bcf0      	pop	{r4, r5, r6, r7}
1000155c:	46bb      	mov	fp, r7
1000155e:	46b2      	mov	sl, r6
10001560:	46a9      	mov	r9, r5
10001562:	46a0      	mov	r8, r4
10001564:	bdf0      	pop	{r4, r5, r6, r7, pc}
10001566:	0072      	lsls	r2, r6, #1
10001568:	4462      	add	r2, ip
1000156a:	3a03      	subs	r2, #3
1000156c:	1880      	adds	r0, r0, r2
1000156e:	7842      	ldrb	r2, [r0, #1]
10001570:	4690      	mov	r8, r2
10001572:	2200      	movs	r2, #0
10001574:	7042      	strb	r2, [r0, #1]
10001576:	4691      	mov	r9, r2
10001578:	705a      	strb	r2, [r3, #1]
1000157a:	0020      	movs	r0, r4
1000157c:	0032      	movs	r2, r6
1000157e:	f7ff fea9 	bl	100012d4 <ph_merge_nodes>
10001582:	4643      	mov	r3, r8
10001584:	4682      	mov	sl, r0
10001586:	2b00      	cmp	r3, #0
10001588:	d007      	beq.n	1000159a <ph_remove_head+0x9a>
1000158a:	005b      	lsls	r3, r3, #1
1000158c:	6821      	ldr	r1, [r4, #0]
1000158e:	4443      	add	r3, r8
10001590:	3b03      	subs	r3, #3
10001592:	18cb      	adds	r3, r1, r3
10001594:	785a      	ldrb	r2, [r3, #1]
10001596:	2a00      	cmp	r2, #0
10001598:	d117      	bne.n	100015ca <ph_remove_head+0xca>
1000159a:	4642      	mov	r2, r8
1000159c:	4651      	mov	r1, sl
1000159e:	0020      	movs	r0, r4
100015a0:	f7ff fe98 	bl	100012d4 <ph_merge_nodes>
100015a4:	9b01      	ldr	r3, [sp, #4]
100015a6:	0001      	movs	r1, r0
100015a8:	6820      	ldr	r0, [r4, #0]
100015aa:	19c2      	adds	r2, r0, r7
100015ac:	2b00      	cmp	r3, #0
100015ae:	d1c4      	bne.n	1000153a <ph_remove_head+0x3a>
100015b0:	2900      	cmp	r1, #0
100015b2:	d0cd      	beq.n	10001550 <ph_remove_head+0x50>
100015b4:	004b      	lsls	r3, r1, #1
100015b6:	185b      	adds	r3, r3, r1
100015b8:	3b03      	subs	r3, #3
100015ba:	18c3      	adds	r3, r0, r3
100015bc:	2000      	movs	r0, #0
100015be:	7098      	strb	r0, [r3, #2]
100015c0:	e7c6      	b.n	10001550 <ph_remove_head+0x50>
100015c2:	9b01      	ldr	r3, [sp, #4]
100015c4:	2b00      	cmp	r3, #0
100015c6:	d1b8      	bne.n	1000153a <ph_remove_head+0x3a>
100015c8:	e7c2      	b.n	10001550 <ph_remove_head+0x50>
100015ca:	0050      	lsls	r0, r2, #1
100015cc:	1880      	adds	r0, r0, r2
100015ce:	3803      	subs	r0, #3
100015d0:	1809      	adds	r1, r1, r0
100015d2:	7848      	ldrb	r0, [r1, #1]
100015d4:	4683      	mov	fp, r0
100015d6:	4648      	mov	r0, r9
100015d8:	7048      	strb	r0, [r1, #1]
100015da:	7058      	strb	r0, [r3, #1]
100015dc:	4641      	mov	r1, r8
100015de:	0020      	movs	r0, r4
100015e0:	f7ff fe78 	bl	100012d4 <ph_merge_nodes>
100015e4:	4659      	mov	r1, fp
100015e6:	4680      	mov	r8, r0
100015e8:	0020      	movs	r0, r4
100015ea:	f7ff fec5 	bl	10001378 <ph_merge_two_pass>
100015ee:	4641      	mov	r1, r8
100015f0:	0002      	movs	r2, r0
100015f2:	0020      	movs	r0, r4
100015f4:	f7ff fe6e 	bl	100012d4 <ph_merge_nodes>
100015f8:	4680      	mov	r8, r0
100015fa:	e7ce      	b.n	1000159a <ph_remove_head+0x9a>

100015fc <ph_remove_and_free_node>:
100015fc:	b570      	push	{r4, r5, r6, lr}
100015fe:	0004      	movs	r4, r0
10001600:	2900      	cmp	r1, #0
10001602:	d02c      	beq.n	1000165e <ph_remove_and_free_node+0x62>
10001604:	7b43      	ldrb	r3, [r0, #13]
10001606:	428b      	cmp	r3, r1
10001608:	d02e      	beq.n	10001668 <ph_remove_and_free_node+0x6c>
1000160a:	6805      	ldr	r5, [r0, #0]
1000160c:	0048      	lsls	r0, r1, #1
1000160e:	1840      	adds	r0, r0, r1
10001610:	3803      	subs	r0, #3
10001612:	1828      	adds	r0, r5, r0
10001614:	7882      	ldrb	r2, [r0, #2]
10001616:	2a00      	cmp	r2, #0
10001618:	d021      	beq.n	1000165e <ph_remove_and_free_node+0x62>
1000161a:	0053      	lsls	r3, r2, #1
1000161c:	189b      	adds	r3, r3, r2
1000161e:	3b03      	subs	r3, #3
10001620:	5cea      	ldrb	r2, [r5, r3]
10001622:	18ee      	adds	r6, r5, r3
10001624:	428a      	cmp	r2, r1
10001626:	d102      	bne.n	1000162e <ph_remove_and_free_node+0x32>
10001628:	e01b      	b.n	10001662 <ph_remove_and_free_node+0x66>
1000162a:	2a00      	cmp	r2, #0
1000162c:	d008      	beq.n	10001640 <ph_remove_and_free_node+0x44>
1000162e:	0053      	lsls	r3, r2, #1
10001630:	189b      	adds	r3, r3, r2
10001632:	3b03      	subs	r3, #3
10001634:	18eb      	adds	r3, r5, r3
10001636:	785a      	ldrb	r2, [r3, #1]
10001638:	428a      	cmp	r2, r1
1000163a:	d1f6      	bne.n	1000162a <ph_remove_and_free_node+0x2e>
1000163c:	7842      	ldrb	r2, [r0, #1]
1000163e:	705a      	strb	r2, [r3, #1]
10001640:	2300      	movs	r3, #0
10001642:	2201      	movs	r2, #1
10001644:	7083      	strb	r3, [r0, #2]
10001646:	7043      	strb	r3, [r0, #1]
10001648:	0020      	movs	r0, r4
1000164a:	f7ff fedd 	bl	10001408 <ph_remove_any_head>
1000164e:	7b61      	ldrb	r1, [r4, #13]
10001650:	0002      	movs	r2, r0
10001652:	0020      	movs	r0, r4
10001654:	f7ff fe3e 	bl	100012d4 <ph_merge_nodes>
10001658:	7360      	strb	r0, [r4, #13]
1000165a:	2001      	movs	r0, #1
1000165c:	e000      	b.n	10001660 <ph_remove_and_free_node+0x64>
1000165e:	2000      	movs	r0, #0
10001660:	bd70      	pop	{r4, r5, r6, pc}
10001662:	7843      	ldrb	r3, [r0, #1]
10001664:	7033      	strb	r3, [r6, #0]
10001666:	e7eb      	b.n	10001640 <ph_remove_and_free_node+0x44>
10001668:	2201      	movs	r2, #1
1000166a:	0019      	movs	r1, r3
1000166c:	f7ff fecc 	bl	10001408 <ph_remove_any_head>
10001670:	7360      	strb	r0, [r4, #13]
10001672:	2001      	movs	r0, #1
10001674:	e7f4      	b.n	10001660 <ph_remove_and_free_node+0x64>
10001676:	46c0      	nop			; (mov r8, r8)

10001678 <runtime_init>:
10001678:	4b2c      	ldr	r3, [pc, #176]	; (1000172c <runtime_init+0xb4>)
1000167a:	4a2d      	ldr	r2, [pc, #180]	; (10001730 <runtime_init+0xb8>)
1000167c:	b570      	push	{r4, r5, r6, lr}
1000167e:	601a      	str	r2, [r3, #0]
10001680:	4a2c      	ldr	r2, [pc, #176]	; (10001734 <runtime_init+0xbc>)
10001682:	4b2d      	ldr	r3, [pc, #180]	; (10001738 <runtime_init+0xc0>)
10001684:	492d      	ldr	r1, [pc, #180]	; (1000173c <runtime_init+0xc4>)
10001686:	601a      	str	r2, [r3, #0]
10001688:	0014      	movs	r4, r2
1000168a:	688b      	ldr	r3, [r1, #8]
1000168c:	439c      	bics	r4, r3
1000168e:	d1fb      	bne.n	10001688 <runtime_init+0x10>
10001690:	4d2b      	ldr	r5, [pc, #172]	; (10001740 <runtime_init+0xc8>)
10001692:	4e2c      	ldr	r6, [pc, #176]	; (10001744 <runtime_init+0xcc>)
10001694:	42b5      	cmp	r5, r6
10001696:	d208      	bcs.n	100016aa <runtime_init+0x32>
10001698:	3e01      	subs	r6, #1
1000169a:	1b76      	subs	r6, r6, r5
1000169c:	08b6      	lsrs	r6, r6, #2
1000169e:	cd08      	ldmia	r5!, {r3}
100016a0:	4798      	blx	r3
100016a2:	0023      	movs	r3, r4
100016a4:	3401      	adds	r4, #1
100016a6:	42b3      	cmp	r3, r6
100016a8:	d1f9      	bne.n	1000169e <runtime_init+0x26>
100016aa:	f000 f87d 	bl	100017a8 <clocks_init>
100016ae:	4a26      	ldr	r2, [pc, #152]	; (10001748 <runtime_init+0xd0>)
100016b0:	4b21      	ldr	r3, [pc, #132]	; (10001738 <runtime_init+0xc0>)
100016b2:	601a      	str	r2, [r3, #0]
100016b4:	4a21      	ldr	r2, [pc, #132]	; (1000173c <runtime_init+0xc4>)
100016b6:	6893      	ldr	r3, [r2, #8]
100016b8:	43db      	mvns	r3, r3
100016ba:	01db      	lsls	r3, r3, #7
100016bc:	09dd      	lsrs	r5, r3, #7
100016be:	2b00      	cmp	r3, #0
100016c0:	d1f9      	bne.n	100016b6 <runtime_init+0x3e>
100016c2:	2240      	movs	r2, #64	; 0x40
100016c4:	4b21      	ldr	r3, [pc, #132]	; (1000174c <runtime_init+0xd4>)
100016c6:	4c22      	ldr	r4, [pc, #136]	; (10001750 <runtime_init+0xd8>)
100016c8:	4e22      	ldr	r6, [pc, #136]	; (10001754 <runtime_init+0xdc>)
100016ca:	679a      	str	r2, [r3, #120]	; 0x78
100016cc:	675a      	str	r2, [r3, #116]	; 0x74
100016ce:	671a      	str	r2, [r3, #112]	; 0x70
100016d0:	66da      	str	r2, [r3, #108]	; 0x6c
100016d2:	42b4      	cmp	r4, r6
100016d4:	d208      	bcs.n	100016e8 <runtime_init+0x70>
100016d6:	6823      	ldr	r3, [r4, #0]
100016d8:	0020      	movs	r0, r4
100016da:	2b00      	cmp	r3, #0
100016dc:	d020      	beq.n	10001720 <runtime_init+0xa8>
100016de:	3408      	adds	r4, #8
100016e0:	f7ff fdda 	bl	10001298 <recursive_mutex_init>
100016e4:	42b4      	cmp	r4, r6
100016e6:	d3f6      	bcc.n	100016d6 <runtime_init+0x5e>
100016e8:	4e1b      	ldr	r6, [pc, #108]	; (10001758 <runtime_init+0xe0>)
100016ea:	4c1c      	ldr	r4, [pc, #112]	; (1000175c <runtime_init+0xe4>)
100016ec:	22c0      	movs	r2, #192	; 0xc0
100016ee:	68a1      	ldr	r1, [r4, #8]
100016f0:	0030      	movs	r0, r6
100016f2:	f000 fda7 	bl	10002244 <__wrap___aeabi_memcpy>
100016f6:	60a6      	str	r6, [r4, #8]
100016f8:	f7fe ffc8 	bl	1000068c <spin_locks_reset>
100016fc:	f000 fb38 	bl	10001d70 <irq_init_priorities>
10001700:	f7ff fa82 	bl	10000c08 <alarm_pool_init_default>
10001704:	4c16      	ldr	r4, [pc, #88]	; (10001760 <runtime_init+0xe8>)
10001706:	4e17      	ldr	r6, [pc, #92]	; (10001764 <runtime_init+0xec>)
10001708:	42b4      	cmp	r4, r6
1000170a:	d208      	bcs.n	1000171e <runtime_init+0xa6>
1000170c:	3e01      	subs	r6, #1
1000170e:	1b36      	subs	r6, r6, r4
10001710:	08b6      	lsrs	r6, r6, #2
10001712:	cc08      	ldmia	r4!, {r3}
10001714:	4798      	blx	r3
10001716:	002b      	movs	r3, r5
10001718:	3501      	adds	r5, #1
1000171a:	429e      	cmp	r6, r3
1000171c:	d1f9      	bne.n	10001712 <runtime_init+0x9a>
1000171e:	bd70      	pop	{r4, r5, r6, pc}
10001720:	3408      	adds	r4, #8
10001722:	f7ff fdab 	bl	1000127c <mutex_init>
10001726:	42b4      	cmp	r4, r6
10001728:	d3d5      	bcc.n	100016d6 <runtime_init+0x5e>
1000172a:	e7dd      	b.n	100016e8 <runtime_init+0x70>
1000172c:	4000e000 	.word	0x4000e000
10001730:	fefbcdbf 	.word	0xfefbcdbf
10001734:	003c7ffe 	.word	0x003c7ffe
10001738:	4000f000 	.word	0x4000f000
1000173c:	4000c000 	.word	0x4000c000
10001740:	2000048c 	.word	0x2000048c
10001744:	2000049c 	.word	0x2000049c
10001748:	01ffffff 	.word	0x01ffffff
1000174c:	4001f000 	.word	0x4001f000
10001750:	20000484 	.word	0x20000484
10001754:	2000048c 	.word	0x2000048c
10001758:	20000000 	.word	0x20000000
1000175c:	e000ed00 	.word	0xe000ed00
10001760:	2000049c 	.word	0x2000049c
10001764:	200004a4 	.word	0x200004a4

10001768 <exit>:
10001768:	be00      	bkpt	0x0000
1000176a:	e7fd      	b.n	10001768 <exit>

1000176c <panic>:
1000176c:	b40f      	push	{r0, r1, r2, r3}
1000176e:	b500      	push	{lr}
10001770:	4808      	ldr	r0, [pc, #32]	; (10001794 <panic+0x28>)
10001772:	b083      	sub	sp, #12
10001774:	f000 fe9c 	bl	100024b0 <__wrap_puts>
10001778:	9b04      	ldr	r3, [sp, #16]
1000177a:	2b00      	cmp	r3, #0
1000177c:	d007      	beq.n	1000178e <panic+0x22>
1000177e:	a905      	add	r1, sp, #20
10001780:	0018      	movs	r0, r3
10001782:	9101      	str	r1, [sp, #4]
10001784:	f000 fbca 	bl	10001f1c <weak_raw_vprintf>
10001788:	4803      	ldr	r0, [pc, #12]	; (10001798 <panic+0x2c>)
1000178a:	f000 fe91 	bl	100024b0 <__wrap_puts>
1000178e:	be00      	bkpt	0x0000
10001790:	e7fd      	b.n	1000178e <panic+0x22>
10001792:	46c0      	nop			; (mov r8, r8)
10001794:	10005060 	.word	0x10005060
10001798:	10005070 	.word	0x10005070

1000179c <hard_assertion_failure>:
1000179c:	b510      	push	{r4, lr}
1000179e:	4801      	ldr	r0, [pc, #4]	; (100017a4 <hard_assertion_failure+0x8>)
100017a0:	f7ff ffe4 	bl	1000176c <panic>
100017a4:	10005074 	.word	0x10005074

100017a8 <clocks_init>:
100017a8:	b530      	push	{r4, r5, lr}
100017aa:	200c      	movs	r0, #12
100017ac:	b083      	sub	sp, #12
100017ae:	f000 fb45 	bl	10001e3c <watchdog_start_tick>
100017b2:	f7fe ff63 	bl	1000067c <running_on_fpga>
100017b6:	2800      	cmp	r0, #0
100017b8:	d00e      	beq.n	100017d8 <clocks_init+0x30>
100017ba:	4b94      	ldr	r3, [pc, #592]	; (10001a0c <clocks_init+0x264>)
100017bc:	4a94      	ldr	r2, [pc, #592]	; (10001a10 <clocks_init+0x268>)
100017be:	601a      	str	r2, [r3, #0]
100017c0:	605a      	str	r2, [r3, #4]
100017c2:	609a      	str	r2, [r3, #8]
100017c4:	60da      	str	r2, [r3, #12]
100017c6:	611a      	str	r2, [r3, #16]
100017c8:	615a      	str	r2, [r3, #20]
100017ca:	619a      	str	r2, [r3, #24]
100017cc:	61da      	str	r2, [r3, #28]
100017ce:	621a      	str	r2, [r3, #32]
100017d0:	4a90      	ldr	r2, [pc, #576]	; (10001a14 <clocks_init+0x26c>)
100017d2:	625a      	str	r2, [r3, #36]	; 0x24
100017d4:	b003      	add	sp, #12
100017d6:	bd30      	pop	{r4, r5, pc}
100017d8:	4c8f      	ldr	r4, [pc, #572]	; (10001a18 <clocks_init+0x270>)
100017da:	67a0      	str	r0, [r4, #120]	; 0x78
100017dc:	f000 fb82 	bl	10001ee4 <xosc_init>
100017e0:	2201      	movs	r2, #1
100017e2:	4b8e      	ldr	r3, [pc, #568]	; (10001a1c <clocks_init+0x274>)
100017e4:	601a      	str	r2, [r3, #0]
100017e6:	6c63      	ldr	r3, [r4, #68]	; 0x44
100017e8:	2b01      	cmp	r3, #1
100017ea:	d1fc      	bne.n	100017e6 <clocks_init+0x3e>
100017ec:	2203      	movs	r2, #3
100017ee:	4b8c      	ldr	r3, [pc, #560]	; (10001a20 <clocks_init+0x278>)
100017f0:	601a      	str	r2, [r3, #0]
100017f2:	4a89      	ldr	r2, [pc, #548]	; (10001a18 <clocks_init+0x270>)
100017f4:	6b93      	ldr	r3, [r2, #56]	; 0x38
100017f6:	2b01      	cmp	r3, #1
100017f8:	d1fc      	bne.n	100017f4 <clocks_init+0x4c>
100017fa:	2402      	movs	r4, #2
100017fc:	2101      	movs	r1, #1
100017fe:	4a89      	ldr	r2, [pc, #548]	; (10001a24 <clocks_init+0x27c>)
10001800:	4889      	ldr	r0, [pc, #548]	; (10001a28 <clocks_init+0x280>)
10001802:	3305      	adds	r3, #5
10001804:	9400      	str	r4, [sp, #0]
10001806:	f000 fac5 	bl	10001d94 <pll_init>
1000180a:	2305      	movs	r3, #5
1000180c:	4a87      	ldr	r2, [pc, #540]	; (10001a2c <clocks_init+0x284>)
1000180e:	2101      	movs	r1, #1
10001810:	4887      	ldr	r0, [pc, #540]	; (10001a30 <clocks_init+0x288>)
10001812:	9400      	str	r4, [sp, #0]
10001814:	f000 fabe 	bl	10001d94 <pll_init>
10001818:	4b86      	ldr	r3, [pc, #536]	; (10001a34 <clocks_init+0x28c>)
1000181a:	685a      	ldr	r2, [r3, #4]
1000181c:	2aff      	cmp	r2, #255	; 0xff
1000181e:	d802      	bhi.n	10001826 <clocks_init+0x7e>
10001820:	2280      	movs	r2, #128	; 0x80
10001822:	0052      	lsls	r2, r2, #1
10001824:	605a      	str	r2, [r3, #4]
10001826:	2280      	movs	r2, #128	; 0x80
10001828:	4c78      	ldr	r4, [pc, #480]	; (10001a0c <clocks_init+0x264>)
1000182a:	4b7d      	ldr	r3, [pc, #500]	; (10001a20 <clocks_init+0x278>)
1000182c:	6921      	ldr	r1, [r4, #16]
1000182e:	0112      	lsls	r2, r2, #4
10001830:	4d80      	ldr	r5, [pc, #512]	; (10001a34 <clocks_init+0x28c>)
10001832:	601a      	str	r2, [r3, #0]
10001834:	2900      	cmp	r1, #0
10001836:	d005      	beq.n	10001844 <clocks_init+0x9c>
10001838:	6960      	ldr	r0, [r4, #20]
1000183a:	f000 fbc1 	bl	10001fc0 <__wrap___aeabi_uidiv>
1000183e:	3001      	adds	r0, #1
10001840:	3801      	subs	r0, #1
10001842:	d1fd      	bne.n	10001840 <clocks_init+0x98>
10001844:	21e0      	movs	r1, #224	; 0xe0
10001846:	4b7b      	ldr	r3, [pc, #492]	; (10001a34 <clocks_init+0x28c>)
10001848:	2002      	movs	r0, #2
1000184a:	681a      	ldr	r2, [r3, #0]
1000184c:	4011      	ands	r1, r2
1000184e:	2280      	movs	r2, #128	; 0x80
10001850:	0152      	lsls	r2, r2, #5
10001852:	432a      	orrs	r2, r5
10001854:	6011      	str	r1, [r2, #0]
10001856:	6819      	ldr	r1, [r3, #0]
10001858:	4048      	eors	r0, r1
1000185a:	2103      	movs	r1, #3
1000185c:	4001      	ands	r1, r0
1000185e:	6011      	str	r1, [r2, #0]
10001860:	2104      	movs	r1, #4
10001862:	689a      	ldr	r2, [r3, #8]
10001864:	4211      	tst	r1, r2
10001866:	d0fc      	beq.n	10001862 <clocks_init+0xba>
10001868:	2280      	movs	r2, #128	; 0x80
1000186a:	2180      	movs	r1, #128	; 0x80
1000186c:	0192      	lsls	r2, r2, #6
1000186e:	432a      	orrs	r2, r5
10001870:	0109      	lsls	r1, r1, #4
10001872:	6011      	str	r1, [r2, #0]
10001874:	2280      	movs	r2, #128	; 0x80
10001876:	0052      	lsls	r2, r2, #1
10001878:	605a      	str	r2, [r3, #4]
1000187a:	4b6f      	ldr	r3, [pc, #444]	; (10001a38 <clocks_init+0x290>)
1000187c:	6123      	str	r3, [r4, #16]
1000187e:	4b6f      	ldr	r3, [pc, #444]	; (10001a3c <clocks_init+0x294>)
10001880:	6859      	ldr	r1, [r3, #4]
10001882:	29ff      	cmp	r1, #255	; 0xff
10001884:	d800      	bhi.n	10001888 <clocks_init+0xe0>
10001886:	605a      	str	r2, [r3, #4]
10001888:	2103      	movs	r1, #3
1000188a:	4a64      	ldr	r2, [pc, #400]	; (10001a1c <clocks_init+0x274>)
1000188c:	4b6b      	ldr	r3, [pc, #428]	; (10001a3c <clocks_init+0x294>)
1000188e:	6011      	str	r1, [r2, #0]
10001890:	3902      	subs	r1, #2
10001892:	689a      	ldr	r2, [r3, #8]
10001894:	4211      	tst	r1, r2
10001896:	d0fc      	beq.n	10001892 <clocks_init+0xea>
10001898:	20e0      	movs	r0, #224	; 0xe0
1000189a:	681a      	ldr	r2, [r3, #0]
1000189c:	4010      	ands	r0, r2
1000189e:	2280      	movs	r2, #128	; 0x80
100018a0:	0152      	lsls	r2, r2, #5
100018a2:	431a      	orrs	r2, r3
100018a4:	6010      	str	r0, [r2, #0]
100018a6:	6818      	ldr	r0, [r3, #0]
100018a8:	4048      	eors	r0, r1
100018aa:	2103      	movs	r1, #3
100018ac:	4001      	ands	r1, r0
100018ae:	2002      	movs	r0, #2
100018b0:	6011      	str	r1, [r2, #0]
100018b2:	4962      	ldr	r1, [pc, #392]	; (10001a3c <clocks_init+0x294>)
100018b4:	688a      	ldr	r2, [r1, #8]
100018b6:	4210      	tst	r0, r2
100018b8:	d0fc      	beq.n	100018b4 <clocks_init+0x10c>
100018ba:	2280      	movs	r2, #128	; 0x80
100018bc:	0192      	lsls	r2, r2, #6
100018be:	4313      	orrs	r3, r2
100018c0:	2280      	movs	r2, #128	; 0x80
100018c2:	0112      	lsls	r2, r2, #4
100018c4:	601a      	str	r2, [r3, #0]
100018c6:	2280      	movs	r2, #128	; 0x80
100018c8:	4b5d      	ldr	r3, [pc, #372]	; (10001a40 <clocks_init+0x298>)
100018ca:	0052      	lsls	r2, r2, #1
100018cc:	604a      	str	r2, [r1, #4]
100018ce:	6163      	str	r3, [r4, #20]
100018d0:	4b5c      	ldr	r3, [pc, #368]	; (10001a44 <clocks_init+0x29c>)
100018d2:	6859      	ldr	r1, [r3, #4]
100018d4:	29ff      	cmp	r1, #255	; 0xff
100018d6:	d800      	bhi.n	100018da <clocks_init+0x132>
100018d8:	605a      	str	r2, [r3, #4]
100018da:	2280      	movs	r2, #128	; 0x80
100018dc:	4b5a      	ldr	r3, [pc, #360]	; (10001a48 <clocks_init+0x2a0>)
100018de:	69e1      	ldr	r1, [r4, #28]
100018e0:	0112      	lsls	r2, r2, #4
100018e2:	4d58      	ldr	r5, [pc, #352]	; (10001a44 <clocks_init+0x29c>)
100018e4:	601a      	str	r2, [r3, #0]
100018e6:	2900      	cmp	r1, #0
100018e8:	d005      	beq.n	100018f6 <clocks_init+0x14e>
100018ea:	6960      	ldr	r0, [r4, #20]
100018ec:	f000 fb68 	bl	10001fc0 <__wrap___aeabi_uidiv>
100018f0:	3001      	adds	r0, #1
100018f2:	3801      	subs	r0, #1
100018f4:	d1fd      	bne.n	100018f2 <clocks_init+0x14a>
100018f6:	22e0      	movs	r2, #224	; 0xe0
100018f8:	4952      	ldr	r1, [pc, #328]	; (10001a44 <clocks_init+0x29c>)
100018fa:	680b      	ldr	r3, [r1, #0]
100018fc:	401a      	ands	r2, r3
100018fe:	2380      	movs	r3, #128	; 0x80
10001900:	015b      	lsls	r3, r3, #5
10001902:	432b      	orrs	r3, r5
10001904:	601a      	str	r2, [r3, #0]
10001906:	2380      	movs	r3, #128	; 0x80
10001908:	2280      	movs	r2, #128	; 0x80
1000190a:	019b      	lsls	r3, r3, #6
1000190c:	432b      	orrs	r3, r5
1000190e:	0112      	lsls	r2, r2, #4
10001910:	601a      	str	r2, [r3, #0]
10001912:	2280      	movs	r2, #128	; 0x80
10001914:	4b3e      	ldr	r3, [pc, #248]	; (10001a10 <clocks_init+0x268>)
10001916:	0052      	lsls	r2, r2, #1
10001918:	604a      	str	r2, [r1, #4]
1000191a:	61e3      	str	r3, [r4, #28]
1000191c:	4b4b      	ldr	r3, [pc, #300]	; (10001a4c <clocks_init+0x2a4>)
1000191e:	6859      	ldr	r1, [r3, #4]
10001920:	29ff      	cmp	r1, #255	; 0xff
10001922:	d800      	bhi.n	10001926 <clocks_init+0x17e>
10001924:	605a      	str	r2, [r3, #4]
10001926:	2280      	movs	r2, #128	; 0x80
10001928:	4b49      	ldr	r3, [pc, #292]	; (10001a50 <clocks_init+0x2a8>)
1000192a:	6a21      	ldr	r1, [r4, #32]
1000192c:	0112      	lsls	r2, r2, #4
1000192e:	4d47      	ldr	r5, [pc, #284]	; (10001a4c <clocks_init+0x2a4>)
10001930:	601a      	str	r2, [r3, #0]
10001932:	2900      	cmp	r1, #0
10001934:	d005      	beq.n	10001942 <clocks_init+0x19a>
10001936:	6960      	ldr	r0, [r4, #20]
10001938:	f000 fb42 	bl	10001fc0 <__wrap___aeabi_uidiv>
1000193c:	3001      	adds	r0, #1
1000193e:	3801      	subs	r0, #1
10001940:	d1fd      	bne.n	1000193e <clocks_init+0x196>
10001942:	22e0      	movs	r2, #224	; 0xe0
10001944:	4941      	ldr	r1, [pc, #260]	; (10001a4c <clocks_init+0x2a4>)
10001946:	680b      	ldr	r3, [r1, #0]
10001948:	401a      	ands	r2, r3
1000194a:	2380      	movs	r3, #128	; 0x80
1000194c:	015b      	lsls	r3, r3, #5
1000194e:	432b      	orrs	r3, r5
10001950:	601a      	str	r2, [r3, #0]
10001952:	2380      	movs	r3, #128	; 0x80
10001954:	2280      	movs	r2, #128	; 0x80
10001956:	019b      	lsls	r3, r3, #6
10001958:	432b      	orrs	r3, r5
1000195a:	0112      	lsls	r2, r2, #4
1000195c:	601a      	str	r2, [r3, #0]
1000195e:	2380      	movs	r3, #128	; 0x80
10001960:	2280      	movs	r2, #128	; 0x80
10001962:	005b      	lsls	r3, r3, #1
10001964:	604b      	str	r3, [r1, #4]
10001966:	4b2a      	ldr	r3, [pc, #168]	; (10001a10 <clocks_init+0x268>)
10001968:	02d2      	lsls	r2, r2, #11
1000196a:	6223      	str	r3, [r4, #32]
1000196c:	4b39      	ldr	r3, [pc, #228]	; (10001a54 <clocks_init+0x2ac>)
1000196e:	6859      	ldr	r1, [r3, #4]
10001970:	4291      	cmp	r1, r2
10001972:	d200      	bcs.n	10001976 <clocks_init+0x1ce>
10001974:	605a      	str	r2, [r3, #4]
10001976:	2280      	movs	r2, #128	; 0x80
10001978:	4b37      	ldr	r3, [pc, #220]	; (10001a58 <clocks_init+0x2b0>)
1000197a:	6a61      	ldr	r1, [r4, #36]	; 0x24
1000197c:	0112      	lsls	r2, r2, #4
1000197e:	4d35      	ldr	r5, [pc, #212]	; (10001a54 <clocks_init+0x2ac>)
10001980:	601a      	str	r2, [r3, #0]
10001982:	2900      	cmp	r1, #0
10001984:	d005      	beq.n	10001992 <clocks_init+0x1ea>
10001986:	6960      	ldr	r0, [r4, #20]
10001988:	f000 fb1a 	bl	10001fc0 <__wrap___aeabi_uidiv>
1000198c:	3001      	adds	r0, #1
1000198e:	3801      	subs	r0, #1
10001990:	d1fd      	bne.n	1000198e <clocks_init+0x1e6>
10001992:	22e0      	movs	r2, #224	; 0xe0
10001994:	492f      	ldr	r1, [pc, #188]	; (10001a54 <clocks_init+0x2ac>)
10001996:	680b      	ldr	r3, [r1, #0]
10001998:	401a      	ands	r2, r3
1000199a:	2380      	movs	r3, #128	; 0x80
1000199c:	015b      	lsls	r3, r3, #5
1000199e:	432b      	orrs	r3, r5
100019a0:	601a      	str	r2, [r3, #0]
100019a2:	2380      	movs	r3, #128	; 0x80
100019a4:	2280      	movs	r2, #128	; 0x80
100019a6:	019b      	lsls	r3, r3, #6
100019a8:	432b      	orrs	r3, r5
100019aa:	0112      	lsls	r2, r2, #4
100019ac:	601a      	str	r2, [r3, #0]
100019ae:	2380      	movs	r3, #128	; 0x80
100019b0:	02db      	lsls	r3, r3, #11
100019b2:	604b      	str	r3, [r1, #4]
100019b4:	4b17      	ldr	r3, [pc, #92]	; (10001a14 <clocks_init+0x26c>)
100019b6:	6263      	str	r3, [r4, #36]	; 0x24
100019b8:	4b28      	ldr	r3, [pc, #160]	; (10001a5c <clocks_init+0x2b4>)
100019ba:	685a      	ldr	r2, [r3, #4]
100019bc:	2aff      	cmp	r2, #255	; 0xff
100019be:	d802      	bhi.n	100019c6 <clocks_init+0x21e>
100019c0:	2280      	movs	r2, #128	; 0x80
100019c2:	0052      	lsls	r2, r2, #1
100019c4:	605a      	str	r2, [r3, #4]
100019c6:	2280      	movs	r2, #128	; 0x80
100019c8:	4b25      	ldr	r3, [pc, #148]	; (10001a60 <clocks_init+0x2b8>)
100019ca:	69a1      	ldr	r1, [r4, #24]
100019cc:	0112      	lsls	r2, r2, #4
100019ce:	4d23      	ldr	r5, [pc, #140]	; (10001a5c <clocks_init+0x2b4>)
100019d0:	601a      	str	r2, [r3, #0]
100019d2:	2900      	cmp	r1, #0
100019d4:	d005      	beq.n	100019e2 <clocks_init+0x23a>
100019d6:	6960      	ldr	r0, [r4, #20]
100019d8:	f000 faf2 	bl	10001fc0 <__wrap___aeabi_uidiv>
100019dc:	3001      	adds	r0, #1
100019de:	3801      	subs	r0, #1
100019e0:	d1fd      	bne.n	100019de <clocks_init+0x236>
100019e2:	22e0      	movs	r2, #224	; 0xe0
100019e4:	491d      	ldr	r1, [pc, #116]	; (10001a5c <clocks_init+0x2b4>)
100019e6:	680b      	ldr	r3, [r1, #0]
100019e8:	401a      	ands	r2, r3
100019ea:	2380      	movs	r3, #128	; 0x80
100019ec:	015b      	lsls	r3, r3, #5
100019ee:	432b      	orrs	r3, r5
100019f0:	601a      	str	r2, [r3, #0]
100019f2:	2380      	movs	r3, #128	; 0x80
100019f4:	2280      	movs	r2, #128	; 0x80
100019f6:	019b      	lsls	r3, r3, #6
100019f8:	432b      	orrs	r3, r5
100019fa:	0112      	lsls	r2, r2, #4
100019fc:	601a      	str	r2, [r3, #0]
100019fe:	2380      	movs	r3, #128	; 0x80
10001a00:	005b      	lsls	r3, r3, #1
10001a02:	604b      	str	r3, [r1, #4]
10001a04:	4b0e      	ldr	r3, [pc, #56]	; (10001a40 <clocks_init+0x298>)
10001a06:	61a3      	str	r3, [r4, #24]
10001a08:	e6e4      	b.n	100017d4 <clocks_init+0x2c>
10001a0a:	46c0      	nop			; (mov r8, r8)
10001a0c:	20000d34 	.word	0x20000d34
10001a10:	02dc6c00 	.word	0x02dc6c00
10001a14:	0000b71b 	.word	0x0000b71b
10001a18:	40008000 	.word	0x40008000
10001a1c:	4000b03c 	.word	0x4000b03c
10001a20:	4000b030 	.word	0x4000b030
10001a24:	59682f00 	.word	0x59682f00
10001a28:	40028000 	.word	0x40028000
10001a2c:	1c9c3800 	.word	0x1c9c3800
10001a30:	4002c000 	.word	0x4002c000
10001a34:	40008030 	.word	0x40008030
10001a38:	00b71b00 	.word	0x00b71b00
10001a3c:	4000803c 	.word	0x4000803c
10001a40:	07735940 	.word	0x07735940
10001a44:	40008054 	.word	0x40008054
10001a48:	4000b054 	.word	0x4000b054
10001a4c:	40008060 	.word	0x40008060
10001a50:	4000b060 	.word	0x4000b060
10001a54:	4000806c 	.word	0x4000806c
10001a58:	4000b06c 	.word	0x4000b06c
10001a5c:	40008048 	.word	0x40008048
10001a60:	4000b048 	.word	0x4000b048

10001a64 <clock_get_hz>:
10001a64:	4b01      	ldr	r3, [pc, #4]	; (10001a6c <clock_get_hz+0x8>)
10001a66:	0080      	lsls	r0, r0, #2
10001a68:	58c0      	ldr	r0, [r0, r3]
10001a6a:	4770      	bx	lr
10001a6c:	20000d34 	.word	0x20000d34

10001a70 <irq_set_enabled>:
10001a70:	2301      	movs	r3, #1
10001a72:	4083      	lsls	r3, r0
10001a74:	2900      	cmp	r1, #0
10001a76:	d004      	beq.n	10001a82 <irq_set_enabled+0x12>
10001a78:	4a03      	ldr	r2, [pc, #12]	; (10001a88 <irq_set_enabled+0x18>)
10001a7a:	6013      	str	r3, [r2, #0]
10001a7c:	4a03      	ldr	r2, [pc, #12]	; (10001a8c <irq_set_enabled+0x1c>)
10001a7e:	6013      	str	r3, [r2, #0]
10001a80:	4770      	bx	lr
10001a82:	4a03      	ldr	r2, [pc, #12]	; (10001a90 <irq_set_enabled+0x20>)
10001a84:	6013      	str	r3, [r2, #0]
10001a86:	e7fb      	b.n	10001a80 <irq_set_enabled+0x10>
10001a88:	e000e280 	.word	0xe000e280
10001a8c:	e000e100 	.word	0xe000e100
10001a90:	e000e180 	.word	0xe000e180

10001a94 <irq_set_pending>:
10001a94:	2301      	movs	r3, #1
10001a96:	4083      	lsls	r3, r0
10001a98:	4a01      	ldr	r2, [pc, #4]	; (10001aa0 <irq_set_pending+0xc>)
10001a9a:	6013      	str	r3, [r2, #0]
10001a9c:	4770      	bx	lr
10001a9e:	46c0      	nop			; (mov r8, r8)
10001aa0:	e000e200 	.word	0xe000e200

10001aa4 <irq_get_vtable_handler>:
10001aa4:	4b02      	ldr	r3, [pc, #8]	; (10001ab0 <irq_get_vtable_handler+0xc>)
10001aa6:	3010      	adds	r0, #16
10001aa8:	689b      	ldr	r3, [r3, #8]
10001aaa:	0080      	lsls	r0, r0, #2
10001aac:	58c0      	ldr	r0, [r0, r3]
10001aae:	4770      	bx	lr
10001ab0:	e000ed00 	.word	0xe000ed00

10001ab4 <irq_set_exclusive_handler>:
10001ab4:	b570      	push	{r4, r5, r6, lr}
10001ab6:	000d      	movs	r5, r1
10001ab8:	f3ef 8610 	mrs	r6, PRIMASK
10001abc:	b672      	cpsid	i
10001abe:	4a0f      	ldr	r2, [pc, #60]	; (10001afc <irq_set_exclusive_handler+0x48>)
10001ac0:	6813      	ldr	r3, [r2, #0]
10001ac2:	2b00      	cmp	r3, #0
10001ac4:	d0fc      	beq.n	10001ac0 <irq_set_exclusive_handler+0xc>
10001ac6:	f3bf 8f5f 	dmb	sy
10001aca:	4b0d      	ldr	r3, [pc, #52]	; (10001b00 <irq_set_exclusive_handler+0x4c>)
10001acc:	3010      	adds	r0, #16
10001ace:	689b      	ldr	r3, [r3, #8]
10001ad0:	0084      	lsls	r4, r0, #2
10001ad2:	591b      	ldr	r3, [r3, r4]
10001ad4:	4a0b      	ldr	r2, [pc, #44]	; (10001b04 <irq_set_exclusive_handler+0x50>)
10001ad6:	4293      	cmp	r3, r2
10001ad8:	d003      	beq.n	10001ae2 <irq_set_exclusive_handler+0x2e>
10001ada:	429d      	cmp	r5, r3
10001adc:	d001      	beq.n	10001ae2 <irq_set_exclusive_handler+0x2e>
10001ade:	f7ff fe5d 	bl	1000179c <hard_assertion_failure>
10001ae2:	4b07      	ldr	r3, [pc, #28]	; (10001b00 <irq_set_exclusive_handler+0x4c>)
10001ae4:	689b      	ldr	r3, [r3, #8]
10001ae6:	511d      	str	r5, [r3, r4]
10001ae8:	f3bf 8f5f 	dmb	sy
10001aec:	f3bf 8f5f 	dmb	sy
10001af0:	2200      	movs	r2, #0
10001af2:	4b02      	ldr	r3, [pc, #8]	; (10001afc <irq_set_exclusive_handler+0x48>)
10001af4:	601a      	str	r2, [r3, #0]
10001af6:	f386 8810 	msr	PRIMASK, r6
10001afa:	bd70      	pop	{r4, r5, r6, pc}
10001afc:	d0000124 	.word	0xd0000124
10001b00:	e000ed00 	.word	0xe000ed00
10001b04:	100001cd 	.word	0x100001cd

10001b08 <irq_remove_handler>:
10001b08:	b5f0      	push	{r4, r5, r6, r7, lr}
10001b0a:	46de      	mov	lr, fp
10001b0c:	4657      	mov	r7, sl
10001b0e:	464e      	mov	r6, r9
10001b10:	4645      	mov	r5, r8
10001b12:	b5e0      	push	{r5, r6, r7, lr}
10001b14:	000c      	movs	r4, r1
10001b16:	b083      	sub	sp, #12
10001b18:	f3ef 8a10 	mrs	sl, PRIMASK
10001b1c:	b672      	cpsid	i
10001b1e:	4a5a      	ldr	r2, [pc, #360]	; (10001c88 <irq_remove_handler+0x180>)
10001b20:	6813      	ldr	r3, [r2, #0]
10001b22:	2b00      	cmp	r3, #0
10001b24:	d0fc      	beq.n	10001b20 <irq_remove_handler+0x18>
10001b26:	f3bf 8f5f 	dmb	sy
10001b2a:	2210      	movs	r2, #16
10001b2c:	4691      	mov	r9, r2
10001b2e:	4481      	add	r9, r0
10001b30:	464a      	mov	r2, r9
10001b32:	4b56      	ldr	r3, [pc, #344]	; (10001c8c <irq_remove_handler+0x184>)
10001b34:	0096      	lsls	r6, r2, #2
10001b36:	689b      	ldr	r3, [r3, #8]
10001b38:	599d      	ldr	r5, [r3, r6]
10001b3a:	4b55      	ldr	r3, [pc, #340]	; (10001c90 <irq_remove_handler+0x188>)
10001b3c:	4698      	mov	r8, r3
10001b3e:	429d      	cmp	r5, r3
10001b40:	d005      	beq.n	10001b4e <irq_remove_handler+0x46>
10001b42:	42a5      	cmp	r5, r4
10001b44:	d016      	beq.n	10001b74 <irq_remove_handler+0x6c>
10001b46:	4f53      	ldr	r7, [pc, #332]	; (10001c94 <irq_remove_handler+0x18c>)
10001b48:	1beb      	subs	r3, r5, r7
10001b4a:	2b2f      	cmp	r3, #47	; 0x2f
10001b4c:	d914      	bls.n	10001b78 <irq_remove_handler+0x70>
10001b4e:	4b4f      	ldr	r3, [pc, #316]	; (10001c8c <irq_remove_handler+0x184>)
10001b50:	689b      	ldr	r3, [r3, #8]
10001b52:	519d      	str	r5, [r3, r6]
10001b54:	f3bf 8f5f 	dmb	sy
10001b58:	f3bf 8f5f 	dmb	sy
10001b5c:	2200      	movs	r2, #0
10001b5e:	4b4a      	ldr	r3, [pc, #296]	; (10001c88 <irq_remove_handler+0x180>)
10001b60:	601a      	str	r2, [r3, #0]
10001b62:	f38a 8810 	msr	PRIMASK, sl
10001b66:	b003      	add	sp, #12
10001b68:	bcf0      	pop	{r4, r5, r6, r7}
10001b6a:	46bb      	mov	fp, r7
10001b6c:	46b2      	mov	sl, r6
10001b6e:	46a9      	mov	r9, r5
10001b70:	46a0      	mov	r8, r4
10001b72:	bdf0      	pop	{r4, r5, r6, r7, pc}
10001b74:	001d      	movs	r5, r3
10001b76:	e7ea      	b.n	10001b4e <irq_remove_handler+0x46>
10001b78:	2301      	movs	r3, #1
10001b7a:	4083      	lsls	r3, r0
10001b7c:	469b      	mov	fp, r3
10001b7e:	465a      	mov	r2, fp
10001b80:	4b45      	ldr	r3, [pc, #276]	; (10001c98 <irq_remove_handler+0x190>)
10001b82:	681b      	ldr	r3, [r3, #0]
10001b84:	401a      	ands	r2, r3
10001b86:	9200      	str	r2, [sp, #0]
10001b88:	465a      	mov	r2, fp
10001b8a:	4b44      	ldr	r3, [pc, #272]	; (10001c9c <irq_remove_handler+0x194>)
10001b8c:	601a      	str	r2, [r3, #0]
10001b8e:	f3bf 8f5f 	dmb	sy
10001b92:	f7fe fb68 	bl	10000266 <__get_current_exception>
10001b96:	9001      	str	r0, [sp, #4]
10001b98:	2800      	cmp	r0, #0
10001b9a:	d003      	beq.n	10001ba4 <irq_remove_handler+0x9c>
10001b9c:	4581      	cmp	r9, r0
10001b9e:	d001      	beq.n	10001ba4 <irq_remove_handler+0x9c>
10001ba0:	f7ff fdfc 	bl	1000179c <hard_assertion_failure>
10001ba4:	2301      	movs	r3, #1
10001ba6:	002a      	movs	r2, r5
10001ba8:	439a      	bics	r2, r3
10001baa:	0013      	movs	r3, r2
10001bac:	493c      	ldr	r1, [pc, #240]	; (10001ca0 <irq_remove_handler+0x198>)
10001bae:	1bdb      	subs	r3, r3, r7
10001bb0:	415b      	adcs	r3, r3
10001bb2:	4359      	muls	r1, r3
10001bb4:	0d09      	lsrs	r1, r1, #20
10001bb6:	6893      	ldr	r3, [r2, #8]
10001bb8:	429c      	cmp	r4, r3
10001bba:	d108      	bne.n	10001bce <irq_remove_handler+0xc6>
10001bbc:	e05a      	b.n	10001c74 <irq_remove_handler+0x16c>
10001bbe:	0043      	lsls	r3, r0, #1
10001bc0:	181b      	adds	r3, r3, r0
10001bc2:	009b      	lsls	r3, r3, #2
10001bc4:	18fb      	adds	r3, r7, r3
10001bc6:	6898      	ldr	r0, [r3, #8]
10001bc8:	42a0      	cmp	r0, r4
10001bca:	d011      	beq.n	10001bf0 <irq_remove_handler+0xe8>
10001bcc:	001a      	movs	r2, r3
10001bce:	2006      	movs	r0, #6
10001bd0:	5610      	ldrsb	r0, [r2, r0]
10001bd2:	2800      	cmp	r0, #0
10001bd4:	daf3      	bge.n	10001bbe <irq_remove_handler+0xb6>
10001bd6:	9b00      	ldr	r3, [sp, #0]
10001bd8:	2b00      	cmp	r3, #0
10001bda:	d005      	beq.n	10001be8 <irq_remove_handler+0xe0>
10001bdc:	465a      	mov	r2, fp
10001bde:	4b31      	ldr	r3, [pc, #196]	; (10001ca4 <irq_remove_handler+0x19c>)
10001be0:	601a      	str	r2, [r3, #0]
10001be2:	4b2d      	ldr	r3, [pc, #180]	; (10001c98 <irq_remove_handler+0x190>)
10001be4:	601a      	str	r2, [r3, #0]
10001be6:	e7b2      	b.n	10001b4e <irq_remove_handler+0x46>
10001be8:	465a      	mov	r2, fp
10001bea:	4b2c      	ldr	r3, [pc, #176]	; (10001c9c <irq_remove_handler+0x194>)
10001bec:	601a      	str	r2, [r3, #0]
10001bee:	e7ae      	b.n	10001b4e <irq_remove_handler+0x46>
10001bf0:	2006      	movs	r0, #6
10001bf2:	5618      	ldrsb	r0, [r3, r0]
10001bf4:	2800      	cmp	r0, #0
10001bf6:	db21      	blt.n	10001c3c <irq_remove_handler+0x134>
10001bf8:	0042      	lsls	r2, r0, #1
10001bfa:	1811      	adds	r1, r2, r0
10001bfc:	0089      	lsls	r1, r1, #2
10001bfe:	187c      	adds	r4, r7, r1
10001c00:	4688      	mov	r8, r1
10001c02:	68a1      	ldr	r1, [r4, #8]
10001c04:	6099      	str	r1, [r3, #8]
10001c06:	79e1      	ldrb	r1, [r4, #7]
10001c08:	71d9      	strb	r1, [r3, #7]
10001c0a:	2106      	movs	r1, #6
10001c0c:	5661      	ldrsb	r1, [r4, r1]
10001c0e:	7199      	strb	r1, [r3, #6]
10001c10:	2900      	cmp	r1, #0
10001c12:	db1f      	blt.n	10001c54 <irq_remove_handler+0x14c>
10001c14:	88a4      	ldrh	r4, [r4, #4]
10001c16:	1af9      	subs	r1, r7, r3
10001c18:	0564      	lsls	r4, r4, #21
10001c1a:	1524      	asrs	r4, r4, #20
10001c1c:	4444      	add	r4, r8
10001c1e:	1909      	adds	r1, r1, r4
10001c20:	24e0      	movs	r4, #224	; 0xe0
10001c22:	0509      	lsls	r1, r1, #20
10001c24:	0d49      	lsrs	r1, r1, #21
10001c26:	0224      	lsls	r4, r4, #8
10001c28:	4321      	orrs	r1, r4
10001c2a:	8099      	strh	r1, [r3, #4]
10001c2c:	1812      	adds	r2, r2, r0
10001c2e:	4b1e      	ldr	r3, [pc, #120]	; (10001ca8 <irq_remove_handler+0x1a0>)
10001c30:	0092      	lsls	r2, r2, #2
10001c32:	18bf      	adds	r7, r7, r2
10001c34:	781a      	ldrb	r2, [r3, #0]
10001c36:	7018      	strb	r0, [r3, #0]
10001c38:	71ba      	strb	r2, [r7, #6]
10001c3a:	e7cc      	b.n	10001bd6 <irq_remove_handler+0xce>
10001c3c:	9801      	ldr	r0, [sp, #4]
10001c3e:	2800      	cmp	r0, #0
10001c40:	d10b      	bne.n	10001c5a <irq_remove_handler+0x152>
10001c42:	30ff      	adds	r0, #255	; 0xff
10001c44:	7190      	strb	r0, [r2, #6]
10001c46:	4819      	ldr	r0, [pc, #100]	; (10001cac <irq_remove_handler+0x1a4>)
10001c48:	8090      	strh	r0, [r2, #4]
10001c4a:	4a17      	ldr	r2, [pc, #92]	; (10001ca8 <irq_remove_handler+0x1a0>)
10001c4c:	7810      	ldrb	r0, [r2, #0]
10001c4e:	7011      	strb	r1, [r2, #0]
10001c50:	7198      	strb	r0, [r3, #6]
10001c52:	e7c0      	b.n	10001bd6 <irq_remove_handler+0xce>
10001c54:	21bd      	movs	r1, #189	; 0xbd
10001c56:	0209      	lsls	r1, r1, #8
10001c58:	e7e7      	b.n	10001c2a <irq_remove_handler+0x122>
10001c5a:	4a15      	ldr	r2, [pc, #84]	; (10001cb0 <irq_remove_handler+0x1a8>)
10001c5c:	4915      	ldr	r1, [pc, #84]	; (10001cb4 <irq_remove_handler+0x1ac>)
10001c5e:	1ad2      	subs	r2, r2, r3
10001c60:	3a08      	subs	r2, #8
10001c62:	0250      	lsls	r0, r2, #9
10001c64:	0d40      	lsrs	r0, r0, #21
10001c66:	4301      	orrs	r1, r0
10001c68:	8099      	strh	r1, [r3, #4]
10001c6a:	4913      	ldr	r1, [pc, #76]	; (10001cb8 <irq_remove_handler+0x1b0>)
10001c6c:	0852      	lsrs	r2, r2, #1
10001c6e:	430a      	orrs	r2, r1
10001c70:	80da      	strh	r2, [r3, #6]
10001c72:	e7b0      	b.n	10001bd6 <irq_remove_handler+0xce>
10001c74:	2006      	movs	r0, #6
10001c76:	5610      	ldrsb	r0, [r2, r0]
10001c78:	0013      	movs	r3, r2
10001c7a:	2800      	cmp	r0, #0
10001c7c:	dabc      	bge.n	10001bf8 <irq_remove_handler+0xf0>
10001c7e:	9a01      	ldr	r2, [sp, #4]
10001c80:	2a00      	cmp	r2, #0
10001c82:	d1ea      	bne.n	10001c5a <irq_remove_handler+0x152>
10001c84:	4645      	mov	r5, r8
10001c86:	e7e0      	b.n	10001c4a <irq_remove_handler+0x142>
10001c88:	d0000124 	.word	0xd0000124
10001c8c:	e000ed00 	.word	0xe000ed00
10001c90:	100001cd 	.word	0x100001cd
10001c94:	200003bc 	.word	0x200003bc
10001c98:	e000e100 	.word	0xe000e100
10001c9c:	e000e180 	.word	0xe000e180
10001ca0:	0000aaaa 	.word	0x0000aaaa
10001ca4:	e000e280 	.word	0xe000e280
10001ca8:	2000122d 	.word	0x2000122d
10001cac:	ffffbd00 	.word	0xffffbd00
10001cb0:	200003f6 	.word	0x200003f6
10001cb4:	fffff000 	.word	0xfffff000
10001cb8:	fffff800 	.word	0xfffff800

10001cbc <irq_add_tail_to_free_list>:
10001cbc:	b5f8      	push	{r3, r4, r5, r6, r7, lr}
10001cbe:	2501      	movs	r5, #1
10001cc0:	0004      	movs	r4, r0
10001cc2:	4305      	orrs	r5, r0
10001cc4:	f7fe facf 	bl	10000266 <__get_current_exception>
10001cc8:	f3ef 8c10 	mrs	ip, PRIMASK
10001ccc:	b672      	cpsid	i
10001cce:	4a21      	ldr	r2, [pc, #132]	; (10001d54 <irq_add_tail_to_free_list+0x98>)
10001cd0:	6813      	ldr	r3, [r2, #0]
10001cd2:	2b00      	cmp	r3, #0
10001cd4:	d0fc      	beq.n	10001cd0 <irq_add_tail_to_free_list+0x14>
10001cd6:	f3bf 8f5f 	dmb	sy
10001cda:	4e1f      	ldr	r6, [pc, #124]	; (10001d58 <irq_add_tail_to_free_list+0x9c>)
10001cdc:	0021      	movs	r1, r4
10001cde:	68b7      	ldr	r7, [r6, #8]
10001ce0:	4a1e      	ldr	r2, [pc, #120]	; (10001d5c <irq_add_tail_to_free_list+0xa0>)
10001ce2:	4b1f      	ldr	r3, [pc, #124]	; (10001d60 <irq_add_tail_to_free_list+0xa4>)
10001ce4:	1a89      	subs	r1, r1, r2
10001ce6:	4149      	adcs	r1, r1
10001ce8:	434b      	muls	r3, r1
10001cea:	0d1b      	lsrs	r3, r3, #20
10001cec:	b259      	sxtb	r1, r3
10001cee:	0083      	lsls	r3, r0, #2
10001cf0:	58f8      	ldr	r0, [r7, r3]
10001cf2:	42a8      	cmp	r0, r5
10001cf4:	d01c      	beq.n	10001d30 <irq_add_tail_to_free_list+0x74>
10001cf6:	2306      	movs	r3, #6
10001cf8:	56d3      	ldrsb	r3, [r2, r3]
10001cfa:	428b      	cmp	r3, r1
10001cfc:	d01c      	beq.n	10001d38 <irq_add_tail_to_free_list+0x7c>
10001cfe:	2312      	movs	r3, #18
10001d00:	56d3      	ldrsb	r3, [r2, r3]
10001d02:	428b      	cmp	r3, r1
10001d04:	d022      	beq.n	10001d4c <irq_add_tail_to_free_list+0x90>
10001d06:	231e      	movs	r3, #30
10001d08:	56d3      	ldrsb	r3, [r2, r3]
10001d0a:	428b      	cmp	r3, r1
10001d0c:	d020      	beq.n	10001d50 <irq_add_tail_to_free_list+0x94>
10001d0e:	232a      	movs	r3, #42	; 0x2a
10001d10:	56d3      	ldrsb	r3, [r2, r3]
10001d12:	2003      	movs	r0, #3
10001d14:	428b      	cmp	r3, r1
10001d16:	d010      	beq.n	10001d3a <irq_add_tail_to_free_list+0x7e>
10001d18:	4b12      	ldr	r3, [pc, #72]	; (10001d64 <irq_add_tail_to_free_list+0xa8>)
10001d1a:	781a      	ldrb	r2, [r3, #0]
10001d1c:	7019      	strb	r1, [r3, #0]
10001d1e:	71a2      	strb	r2, [r4, #6]
10001d20:	f3bf 8f5f 	dmb	sy
10001d24:	2200      	movs	r2, #0
10001d26:	4b0b      	ldr	r3, [pc, #44]	; (10001d54 <irq_add_tail_to_free_list+0x98>)
10001d28:	601a      	str	r2, [r3, #0]
10001d2a:	f38c 8810 	msr	PRIMASK, ip
10001d2e:	bdf8      	pop	{r3, r4, r5, r6, r7, pc}
10001d30:	68b2      	ldr	r2, [r6, #8]
10001d32:	480d      	ldr	r0, [pc, #52]	; (10001d68 <irq_add_tail_to_free_list+0xac>)
10001d34:	50d0      	str	r0, [r2, r3]
10001d36:	e7ef      	b.n	10001d18 <irq_add_tail_to_free_list+0x5c>
10001d38:	2000      	movs	r0, #0
10001d3a:	0043      	lsls	r3, r0, #1
10001d3c:	181b      	adds	r3, r3, r0
10001d3e:	009b      	lsls	r3, r3, #2
10001d40:	18d2      	adds	r2, r2, r3
10001d42:	23ff      	movs	r3, #255	; 0xff
10001d44:	7193      	strb	r3, [r2, #6]
10001d46:	4b09      	ldr	r3, [pc, #36]	; (10001d6c <irq_add_tail_to_free_list+0xb0>)
10001d48:	8093      	strh	r3, [r2, #4]
10001d4a:	e7e5      	b.n	10001d18 <irq_add_tail_to_free_list+0x5c>
10001d4c:	2001      	movs	r0, #1
10001d4e:	e7f4      	b.n	10001d3a <irq_add_tail_to_free_list+0x7e>
10001d50:	2002      	movs	r0, #2
10001d52:	e7f2      	b.n	10001d3a <irq_add_tail_to_free_list+0x7e>
10001d54:	d0000124 	.word	0xd0000124
10001d58:	e000ed00 	.word	0xe000ed00
10001d5c:	200003bc 	.word	0x200003bc
10001d60:	0000aaaa 	.word	0x0000aaaa
10001d64:	2000122d 	.word	0x2000122d
10001d68:	100001cd 	.word	0x100001cd
10001d6c:	ffffbd00 	.word	0xffffbd00

10001d70 <irq_init_priorities>:
10001d70:	4b05      	ldr	r3, [pc, #20]	; (10001d88 <irq_init_priorities+0x18>)
10001d72:	4a06      	ldr	r2, [pc, #24]	; (10001d8c <irq_init_priorities+0x1c>)
10001d74:	6013      	str	r3, [r2, #0]
10001d76:	4a06      	ldr	r2, [pc, #24]	; (10001d90 <irq_init_priorities+0x20>)
10001d78:	6013      	str	r3, [r2, #0]
10001d7a:	6053      	str	r3, [r2, #4]
10001d7c:	6093      	str	r3, [r2, #8]
10001d7e:	60d3      	str	r3, [r2, #12]
10001d80:	6113      	str	r3, [r2, #16]
10001d82:	6153      	str	r3, [r2, #20]
10001d84:	6193      	str	r3, [r2, #24]
10001d86:	4770      	bx	lr
10001d88:	80808080 	.word	0x80808080
10001d8c:	e000e400 	.word	0xe000e400
10001d90:	e000e404 	.word	0xe000e404

10001d94 <pll_init>:
10001d94:	b5f0      	push	{r4, r5, r6, r7, lr}
10001d96:	46c6      	mov	lr, r8
10001d98:	0004      	movs	r4, r0
10001d9a:	b500      	push	{lr}
10001d9c:	200c      	movs	r0, #12
10001d9e:	4690      	mov	r8, r2
10001da0:	001f      	movs	r7, r3
10001da2:	000e      	movs	r6, r1
10001da4:	f000 f90c 	bl	10001fc0 <__wrap___aeabi_uidiv>
10001da8:	0141      	lsls	r1, r0, #5
10001daa:	1a09      	subs	r1, r1, r0
10001dac:	018d      	lsls	r5, r1, #6
10001dae:	1a69      	subs	r1, r5, r1
10001db0:	00c9      	lsls	r1, r1, #3
10001db2:	1809      	adds	r1, r1, r0
10001db4:	0189      	lsls	r1, r1, #6
10001db6:	4640      	mov	r0, r8
10001db8:	f000 f902 	bl	10001fc0 <__wrap___aeabi_uidiv>
10001dbc:	9b06      	ldr	r3, [sp, #24]
10001dbe:	043f      	lsls	r7, r7, #16
10001dc0:	031a      	lsls	r2, r3, #12
10001dc2:	6823      	ldr	r3, [r4, #0]
10001dc4:	4317      	orrs	r7, r2
10001dc6:	2b00      	cmp	r3, #0
10001dc8:	db22      	blt.n	10001e10 <pll_init+0x7c>
10001dca:	4b18      	ldr	r3, [pc, #96]	; (10001e2c <pll_init+0x98>)
10001dcc:	4d18      	ldr	r5, [pc, #96]	; (10001e30 <pll_init+0x9c>)
10001dce:	18e2      	adds	r2, r4, r3
10001dd0:	4253      	negs	r3, r2
10001dd2:	415a      	adcs	r2, r3
10001dd4:	2380      	movs	r3, #128	; 0x80
10001dd6:	015b      	lsls	r3, r3, #5
10001dd8:	469c      	mov	ip, r3
10001dda:	0312      	lsls	r2, r2, #12
10001ddc:	4b15      	ldr	r3, [pc, #84]	; (10001e34 <pll_init+0xa0>)
10001dde:	4462      	add	r2, ip
10001de0:	601a      	str	r2, [r3, #0]
10001de2:	4b15      	ldr	r3, [pc, #84]	; (10001e38 <pll_init+0xa4>)
10001de4:	601a      	str	r2, [r3, #0]
10001de6:	0011      	movs	r1, r2
10001de8:	68ab      	ldr	r3, [r5, #8]
10001dea:	4399      	bics	r1, r3
10001dec:	d1fb      	bne.n	10001de6 <pll_init+0x52>
10001dee:	22c0      	movs	r2, #192	; 0xc0
10001df0:	1d23      	adds	r3, r4, #4
10001df2:	0192      	lsls	r2, r2, #6
10001df4:	431a      	orrs	r2, r3
10001df6:	2321      	movs	r3, #33	; 0x21
10001df8:	6026      	str	r6, [r4, #0]
10001dfa:	60a0      	str	r0, [r4, #8]
10001dfc:	6013      	str	r3, [r2, #0]
10001dfe:	6823      	ldr	r3, [r4, #0]
10001e00:	2b00      	cmp	r3, #0
10001e02:	dafc      	bge.n	10001dfe <pll_init+0x6a>
10001e04:	2308      	movs	r3, #8
10001e06:	60e7      	str	r7, [r4, #12]
10001e08:	6013      	str	r3, [r2, #0]
10001e0a:	bc80      	pop	{r7}
10001e0c:	46b8      	mov	r8, r7
10001e0e:	bdf0      	pop	{r4, r5, r6, r7, pc}
10001e10:	233f      	movs	r3, #63	; 0x3f
10001e12:	6822      	ldr	r2, [r4, #0]
10001e14:	4013      	ands	r3, r2
10001e16:	42b3      	cmp	r3, r6
10001e18:	d1d7      	bne.n	10001dca <pll_init+0x36>
10001e1a:	68a3      	ldr	r3, [r4, #8]
10001e1c:	051b      	lsls	r3, r3, #20
10001e1e:	0d1b      	lsrs	r3, r3, #20
10001e20:	4283      	cmp	r3, r0
10001e22:	d1d2      	bne.n	10001dca <pll_init+0x36>
10001e24:	68e3      	ldr	r3, [r4, #12]
10001e26:	2f00      	cmp	r7, #0
10001e28:	d1cf      	bne.n	10001dca <pll_init+0x36>
10001e2a:	e7ee      	b.n	10001e0a <pll_init+0x76>
10001e2c:	bffd4000 	.word	0xbffd4000
10001e30:	4000c000 	.word	0x4000c000
10001e34:	4000e000 	.word	0x4000e000
10001e38:	4000f000 	.word	0x4000f000

10001e3c <watchdog_start_tick>:
10001e3c:	2380      	movs	r3, #128	; 0x80
10001e3e:	4a02      	ldr	r2, [pc, #8]	; (10001e48 <watchdog_start_tick+0xc>)
10001e40:	009b      	lsls	r3, r3, #2
10001e42:	4303      	orrs	r3, r0
10001e44:	62d3      	str	r3, [r2, #44]	; 0x2c
10001e46:	4770      	bx	lr
10001e48:	40058000 	.word	0x40058000

10001e4c <watchdog_reboot>:
10001e4c:	b510      	push	{r4, lr}
10001e4e:	0014      	movs	r4, r2
10001e50:	2280      	movs	r2, #128	; 0x80
10001e52:	4b1b      	ldr	r3, [pc, #108]	; (10001ec0 <watchdog_reboot+0x74>)
10001e54:	05d2      	lsls	r2, r2, #23
10001e56:	601a      	str	r2, [r3, #0]
10001e58:	2800      	cmp	r0, #0
10001e5a:	d01a      	beq.n	10001e92 <watchdog_reboot+0x46>
10001e5c:	2301      	movs	r3, #1
10001e5e:	4a19      	ldr	r2, [pc, #100]	; (10001ec4 <watchdog_reboot+0x78>)
10001e60:	4318      	orrs	r0, r3
10001e62:	4b19      	ldr	r3, [pc, #100]	; (10001ec8 <watchdog_reboot+0x7c>)
10001e64:	61da      	str	r2, [r3, #28]
10001e66:	4a19      	ldr	r2, [pc, #100]	; (10001ecc <watchdog_reboot+0x80>)
10001e68:	4042      	eors	r2, r0
10001e6a:	621a      	str	r2, [r3, #32]
10001e6c:	6259      	str	r1, [r3, #36]	; 0x24
10001e6e:	6298      	str	r0, [r3, #40]	; 0x28
10001e70:	2280      	movs	r2, #128	; 0x80
10001e72:	4b13      	ldr	r3, [pc, #76]	; (10001ec0 <watchdog_reboot+0x74>)
10001e74:	05d2      	lsls	r2, r2, #23
10001e76:	601a      	str	r2, [r3, #0]
10001e78:	4915      	ldr	r1, [pc, #84]	; (10001ed0 <watchdog_reboot+0x84>)
10001e7a:	4a16      	ldr	r2, [pc, #88]	; (10001ed4 <watchdog_reboot+0x88>)
10001e7c:	6011      	str	r1, [r2, #0]
10001e7e:	22e0      	movs	r2, #224	; 0xe0
10001e80:	04d2      	lsls	r2, r2, #19
10001e82:	601a      	str	r2, [r3, #0]
10001e84:	2c00      	cmp	r4, #0
10001e86:	d107      	bne.n	10001e98 <watchdog_reboot+0x4c>
10001e88:	2280      	movs	r2, #128	; 0x80
10001e8a:	4b13      	ldr	r3, [pc, #76]	; (10001ed8 <watchdog_reboot+0x8c>)
10001e8c:	0612      	lsls	r2, r2, #24
10001e8e:	601a      	str	r2, [r3, #0]
10001e90:	bd10      	pop	{r4, pc}
10001e92:	4b0d      	ldr	r3, [pc, #52]	; (10001ec8 <watchdog_reboot+0x7c>)
10001e94:	61d8      	str	r0, [r3, #28]
10001e96:	e7eb      	b.n	10001e70 <watchdog_reboot+0x24>
10001e98:	0163      	lsls	r3, r4, #5
10001e9a:	1b1b      	subs	r3, r3, r4
10001e9c:	009a      	lsls	r2, r3, #2
10001e9e:	2380      	movs	r3, #128	; 0x80
10001ea0:	1912      	adds	r2, r2, r4
10001ea2:	0112      	lsls	r2, r2, #4
10001ea4:	045b      	lsls	r3, r3, #17
10001ea6:	429a      	cmp	r2, r3
10001ea8:	d300      	bcc.n	10001eac <watchdog_reboot+0x60>
10001eaa:	4a0c      	ldr	r2, [pc, #48]	; (10001edc <watchdog_reboot+0x90>)
10001eac:	4b0c      	ldr	r3, [pc, #48]	; (10001ee0 <watchdog_reboot+0x94>)
10001eae:	601a      	str	r2, [r3, #0]
10001eb0:	4b05      	ldr	r3, [pc, #20]	; (10001ec8 <watchdog_reboot+0x7c>)
10001eb2:	605a      	str	r2, [r3, #4]
10001eb4:	2280      	movs	r2, #128	; 0x80
10001eb6:	4b08      	ldr	r3, [pc, #32]	; (10001ed8 <watchdog_reboot+0x8c>)
10001eb8:	05d2      	lsls	r2, r2, #23
10001eba:	601a      	str	r2, [r3, #0]
10001ebc:	e7e8      	b.n	10001e90 <watchdog_reboot+0x44>
10001ebe:	46c0      	nop			; (mov r8, r8)
10001ec0:	4005b000 	.word	0x4005b000
10001ec4:	b007c0d3 	.word	0xb007c0d3
10001ec8:	40058000 	.word	0x40058000
10001ecc:	4ff83f2d 	.word	0x4ff83f2d
10001ed0:	0001fffc 	.word	0x0001fffc
10001ed4:	40012008 	.word	0x40012008
10001ed8:	4005a000 	.word	0x4005a000
10001edc:	00ffffff 	.word	0x00ffffff
10001ee0:	200011d0 	.word	0x200011d0

10001ee4 <xosc_init>:
10001ee4:	23aa      	movs	r3, #170	; 0xaa
10001ee6:	4a06      	ldr	r2, [pc, #24]	; (10001f00 <xosc_init+0x1c>)
10001ee8:	011b      	lsls	r3, r3, #4
10001eea:	6013      	str	r3, [r2, #0]
10001eec:	232f      	movs	r3, #47	; 0x2f
10001eee:	4905      	ldr	r1, [pc, #20]	; (10001f04 <xosc_init+0x20>)
10001ef0:	60d3      	str	r3, [r2, #12]
10001ef2:	4b05      	ldr	r3, [pc, #20]	; (10001f08 <xosc_init+0x24>)
10001ef4:	6019      	str	r1, [r3, #0]
10001ef6:	6853      	ldr	r3, [r2, #4]
10001ef8:	2b00      	cmp	r3, #0
10001efa:	dafc      	bge.n	10001ef6 <xosc_init+0x12>
10001efc:	4770      	bx	lr
10001efe:	46c0      	nop			; (mov r8, r8)
10001f00:	40024000 	.word	0x40024000
10001f04:	00fab000 	.word	0x00fab000
10001f08:	40026000 	.word	0x40026000

10001f0c <_out_char>:
10001f0c:	b510      	push	{r4, lr}
10001f0e:	2800      	cmp	r0, #0
10001f10:	d100      	bne.n	10001f14 <_out_char+0x8>
10001f12:	bd10      	pop	{r4, pc}
10001f14:	f000 fa7c 	bl	10002410 <__wrap_putchar>
10001f18:	e7fb      	b.n	10001f12 <_out_char+0x6>
10001f1a:	46c0      	nop			; (mov r8, r8)

10001f1c <weak_raw_vprintf>:
10001f1c:	b510      	push	{r4, lr}
10001f1e:	4a09      	ldr	r2, [pc, #36]	; (10001f44 <weak_raw_vprintf+0x28>)
10001f20:	0003      	movs	r3, r0
10001f22:	6814      	ldr	r4, [r2, #0]
10001f24:	b084      	sub	sp, #16
10001f26:	2c00      	cmp	r4, #0
10001f28:	d008      	beq.n	10001f3c <weak_raw_vprintf+0x20>
10001f2a:	2201      	movs	r2, #1
10001f2c:	9100      	str	r1, [sp, #0]
10001f2e:	4806      	ldr	r0, [pc, #24]	; (10001f48 <weak_raw_vprintf+0x2c>)
10001f30:	4252      	negs	r2, r2
10001f32:	a903      	add	r1, sp, #12
10001f34:	47a0      	blx	r4
10001f36:	2001      	movs	r0, #1
10001f38:	b004      	add	sp, #16
10001f3a:	bd10      	pop	{r4, pc}
10001f3c:	f000 fab8 	bl	100024b0 <__wrap_puts>
10001f40:	2000      	movs	r0, #0
10001f42:	e7f9      	b.n	10001f38 <weak_raw_vprintf+0x1c>
10001f44:	200011cc 	.word	0x200011cc
10001f48:	10001f0d 	.word	0x10001f0d

10001f4c <__aeabi_bits_init>:
10001f4c:	4801      	ldr	r0, [pc, #4]	; (10001f54 <__aeabi_bits_init+0x8>)
10001f4e:	2104      	movs	r1, #4
10001f50:	4b01      	ldr	r3, [pc, #4]	; (10001f58 <__aeabi_bits_init+0xc>)
10001f52:	4718      	bx	r3
10001f54:	20000410 	.word	0x20000410
10001f58:	10001f7d 	.word	0x10001f7d

10001f5c <rom_func_lookup>:
10001f5c:	2314      	movs	r3, #20
10001f5e:	b510      	push	{r4, lr}
10001f60:	0001      	movs	r1, r0
10001f62:	8818      	ldrh	r0, [r3, #0]
10001f64:	3304      	adds	r3, #4
10001f66:	881b      	ldrh	r3, [r3, #0]
10001f68:	4798      	blx	r3
10001f6a:	bd10      	pop	{r4, pc}

10001f6c <rom_data_lookup>:
10001f6c:	2316      	movs	r3, #22
10001f6e:	b510      	push	{r4, lr}
10001f70:	0001      	movs	r1, r0
10001f72:	8818      	ldrh	r0, [r3, #0]
10001f74:	3302      	adds	r3, #2
10001f76:	881b      	ldrh	r3, [r3, #0]
10001f78:	4798      	blx	r3
10001f7a:	bd10      	pop	{r4, pc}

10001f7c <rom_funcs_lookup>:
10001f7c:	b5f8      	push	{r3, r4, r5, r6, r7, lr}
10001f7e:	4647      	mov	r7, r8
10001f80:	46ce      	mov	lr, r9
10001f82:	b580      	push	{r7, lr}
10001f84:	1e0f      	subs	r7, r1, #0
10001f86:	d019      	beq.n	10001fbc <rom_funcs_lookup+0x40>
10001f88:	2314      	movs	r3, #20
10001f8a:	4699      	mov	r9, r3
10001f8c:	3304      	adds	r3, #4
10001f8e:	0004      	movs	r4, r0
10001f90:	2500      	movs	r5, #0
10001f92:	2601      	movs	r6, #1
10001f94:	4698      	mov	r8, r3
10001f96:	464b      	mov	r3, r9
10001f98:	8818      	ldrh	r0, [r3, #0]
10001f9a:	4643      	mov	r3, r8
10001f9c:	6821      	ldr	r1, [r4, #0]
10001f9e:	881b      	ldrh	r3, [r3, #0]
10001fa0:	4798      	blx	r3
10001fa2:	c401      	stmia	r4!, {r0}
10001fa4:	1e43      	subs	r3, r0, #1
10001fa6:	4198      	sbcs	r0, r3
10001fa8:	3501      	adds	r5, #1
10001faa:	4240      	negs	r0, r0
10001fac:	4006      	ands	r6, r0
10001fae:	42af      	cmp	r7, r5
10001fb0:	d1f1      	bne.n	10001f96 <rom_funcs_lookup+0x1a>
10001fb2:	0030      	movs	r0, r6
10001fb4:	bcc0      	pop	{r6, r7}
10001fb6:	46b9      	mov	r9, r7
10001fb8:	46b0      	mov	r8, r6
10001fba:	bdf8      	pop	{r3, r4, r5, r6, r7, pc}
10001fbc:	2601      	movs	r6, #1
10001fbe:	e7f8      	b.n	10001fb2 <rom_funcs_lookup+0x36>

10001fc0 <__wrap___aeabi_uidiv>:
10001fc0:	4a11      	ldr	r2, [pc, #68]	; (10002008 <divmod_u32u32_savestate+0x18>)
10001fc2:	6f93      	ldr	r3, [r2, #120]	; 0x78
10001fc4:	089b      	lsrs	r3, r3, #2
10001fc6:	d213      	bcs.n	10001ff0 <divmod_u32u32_savestate>

10001fc8 <divmod_u32u32_unsafe>:
10001fc8:	6610      	str	r0, [r2, #96]	; 0x60
10001fca:	6651      	str	r1, [r2, #100]	; 0x64
10001fcc:	2900      	cmp	r1, #0
10001fce:	d005      	beq.n	10001fdc <divmod_u32u32_unsafe+0x14>
10001fd0:	e7ff      	b.n	10001fd2 <divmod_u32u32_unsafe+0xa>
10001fd2:	e7ff      	b.n	10001fd4 <divmod_u32u32_unsafe+0xc>
10001fd4:	e7ff      	b.n	10001fd6 <divmod_u32u32_unsafe+0xe>
10001fd6:	6f51      	ldr	r1, [r2, #116]	; 0x74
10001fd8:	6f10      	ldr	r0, [r2, #112]	; 0x70
10001fda:	4770      	bx	lr
10001fdc:	b504      	push	{r2, lr}
10001fde:	2800      	cmp	r0, #0
10001fe0:	d001      	beq.n	10001fe6 <divmod_u32u32_unsafe+0x1e>
10001fe2:	2000      	movs	r0, #0
10001fe4:	43c0      	mvns	r0, r0
10001fe6:	f002 fffb 	bl	10004fe0 <____aeabi_idiv0_veneer>
10001fea:	2100      	movs	r1, #0
10001fec:	bd04      	pop	{r2, pc}
10001fee:	46c0      	nop			; (mov r8, r8)

10001ff0 <divmod_u32u32_savestate>:
10001ff0:	b5f0      	push	{r4, r5, r6, r7, lr}
10001ff2:	6e14      	ldr	r4, [r2, #96]	; 0x60
10001ff4:	6e55      	ldr	r5, [r2, #100]	; 0x64
10001ff6:	6f57      	ldr	r7, [r2, #116]	; 0x74
10001ff8:	6f16      	ldr	r6, [r2, #112]	; 0x70
10001ffa:	f7ff ffe5 	bl	10001fc8 <divmod_u32u32_unsafe>
10001ffe:	6614      	str	r4, [r2, #96]	; 0x60
10002000:	6655      	str	r5, [r2, #100]	; 0x64
10002002:	6757      	str	r7, [r2, #116]	; 0x74
10002004:	6716      	str	r6, [r2, #112]	; 0x70
10002006:	bdf0      	pop	{r4, r5, r6, r7, pc}
10002008:	d0000000 	.word	0xd0000000

1000200c <__aeabi_double_init>:
1000200c:	2313      	movs	r3, #19
1000200e:	b570      	push	{r4, r5, r6, lr}
10002010:	781d      	ldrb	r5, [r3, #0]
10002012:	2d01      	cmp	r5, #1
10002014:	d015      	beq.n	10002042 <__aeabi_double_init+0x36>
10002016:	dd10      	ble.n	1000203a <__aeabi_double_init+0x2e>
10002018:	481c      	ldr	r0, [pc, #112]	; (1000208c <__aeabi_double_init+0x80>)
1000201a:	f7ff ffa7 	bl	10001f6c <rom_data_lookup>
1000201e:	4c1c      	ldr	r4, [pc, #112]	; (10002090 <__aeabi_double_init+0x84>)
10002020:	0001      	movs	r1, r0
10002022:	2280      	movs	r2, #128	; 0x80
10002024:	0020      	movs	r0, r4
10002026:	f000 f90d 	bl	10002244 <__wrap___aeabi_memcpy>
1000202a:	2d02      	cmp	r5, #2
1000202c:	d006      	beq.n	1000203c <__aeabi_double_init+0x30>
1000202e:	4819      	ldr	r0, [pc, #100]	; (10002094 <__aeabi_double_init+0x88>)
10002030:	f7ff ff94 	bl	10001f5c <rom_func_lookup>
10002034:	4b18      	ldr	r3, [pc, #96]	; (10002098 <__aeabi_double_init+0x8c>)
10002036:	6018      	str	r0, [r3, #0]
10002038:	bd70      	pop	{r4, r5, r6, pc}
1000203a:	4c15      	ldr	r4, [pc, #84]	; (10002090 <__aeabi_double_init+0x84>)
1000203c:	4b17      	ldr	r3, [pc, #92]	; (1000209c <__aeabi_double_init+0x90>)
1000203e:	64a3      	str	r3, [r4, #72]	; 0x48
10002040:	e7f5      	b.n	1000202e <__aeabi_double_init+0x22>
10002042:	4b16      	ldr	r3, [pc, #88]	; (1000209c <__aeabi_double_init+0x90>)
10002044:	4c12      	ldr	r4, [pc, #72]	; (10002090 <__aeabi_double_init+0x84>)
10002046:	6023      	str	r3, [r4, #0]
10002048:	6063      	str	r3, [r4, #4]
1000204a:	60a3      	str	r3, [r4, #8]
1000204c:	60e3      	str	r3, [r4, #12]
1000204e:	6123      	str	r3, [r4, #16]
10002050:	6163      	str	r3, [r4, #20]
10002052:	61a3      	str	r3, [r4, #24]
10002054:	61e3      	str	r3, [r4, #28]
10002056:	6223      	str	r3, [r4, #32]
10002058:	6263      	str	r3, [r4, #36]	; 0x24
1000205a:	62a3      	str	r3, [r4, #40]	; 0x28
1000205c:	62e3      	str	r3, [r4, #44]	; 0x2c
1000205e:	6323      	str	r3, [r4, #48]	; 0x30
10002060:	6363      	str	r3, [r4, #52]	; 0x34
10002062:	63a3      	str	r3, [r4, #56]	; 0x38
10002064:	63e3      	str	r3, [r4, #60]	; 0x3c
10002066:	6423      	str	r3, [r4, #64]	; 0x40
10002068:	6463      	str	r3, [r4, #68]	; 0x44
1000206a:	64a3      	str	r3, [r4, #72]	; 0x48
1000206c:	64e3      	str	r3, [r4, #76]	; 0x4c
1000206e:	6523      	str	r3, [r4, #80]	; 0x50
10002070:	6563      	str	r3, [r4, #84]	; 0x54
10002072:	65a3      	str	r3, [r4, #88]	; 0x58
10002074:	65e3      	str	r3, [r4, #92]	; 0x5c
10002076:	6623      	str	r3, [r4, #96]	; 0x60
10002078:	6663      	str	r3, [r4, #100]	; 0x64
1000207a:	66a3      	str	r3, [r4, #104]	; 0x68
1000207c:	66e3      	str	r3, [r4, #108]	; 0x6c
1000207e:	6723      	str	r3, [r4, #112]	; 0x70
10002080:	6763      	str	r3, [r4, #116]	; 0x74
10002082:	67a3      	str	r3, [r4, #120]	; 0x78
10002084:	67e3      	str	r3, [r4, #124]	; 0x7c
10002086:	64a3      	str	r3, [r4, #72]	; 0x48
10002088:	e7d1      	b.n	1000202e <__aeabi_double_init+0x22>
1000208a:	46c0      	nop			; (mov r8, r8)
1000208c:	00004453 	.word	0x00004453
10002090:	200005b0 	.word	0x200005b0
10002094:	0000334c 	.word	0x0000334c
10002098:	200011f0 	.word	0x200011f0
1000209c:	100020a1 	.word	0x100020a1

100020a0 <double_table_shim_on_use_helper>:
100020a0:	b507      	push	{r0, r1, r2, lr}
100020a2:	4660      	mov	r0, ip
100020a4:	8801      	ldrh	r1, [r0, #0]
100020a6:	0a0a      	lsrs	r2, r1, #8
100020a8:	3002      	adds	r0, #2
100020aa:	2adf      	cmp	r2, #223	; 0xdf
100020ac:	d1fa      	bne.n	100020a4 <double_table_shim_on_use_helper+0x4>
100020ae:	b2c9      	uxtb	r1, r1
100020b0:	0882      	lsrs	r2, r0, #2
100020b2:	d304      	bcc.n	100020be <double_table_shim_on_use_helper+0x1e>
100020b4:	8802      	ldrh	r2, [r0, #0]
100020b6:	8840      	ldrh	r0, [r0, #2]
100020b8:	0400      	lsls	r0, r0, #16
100020ba:	4310      	orrs	r0, r2
100020bc:	e000      	b.n	100020c0 <double_table_shim_on_use_helper+0x20>
100020be:	6800      	ldr	r0, [r0, #0]
100020c0:	4a01      	ldr	r2, [pc, #4]	; (100020c8 <double_table_shim_on_use_helper+0x28>)
100020c2:	5050      	str	r0, [r2, r1]
100020c4:	9003      	str	r0, [sp, #12]
100020c6:	bd07      	pop	{r0, r1, r2, pc}
100020c8:	200005b0 	.word	0x200005b0

100020cc <__wrap___aeabi_lmul>:
100020cc:	4351      	muls	r1, r2
100020ce:	4343      	muls	r3, r0
100020d0:	18c9      	adds	r1, r1, r3
100020d2:	468c      	mov	ip, r1
100020d4:	0c11      	lsrs	r1, r2, #16
100020d6:	b283      	uxth	r3, r0
100020d8:	434b      	muls	r3, r1
100020da:	b410      	push	{r4}
100020dc:	0c04      	lsrs	r4, r0, #16
100020de:	4361      	muls	r1, r4
100020e0:	b292      	uxth	r2, r2
100020e2:	b280      	uxth	r0, r0
100020e4:	4350      	muls	r0, r2
100020e6:	4362      	muls	r2, r4
100020e8:	041c      	lsls	r4, r3, #16
100020ea:	0c1b      	lsrs	r3, r3, #16
100020ec:	1900      	adds	r0, r0, r4
100020ee:	bc10      	pop	{r4}
100020f0:	4159      	adcs	r1, r3
100020f2:	0413      	lsls	r3, r2, #16
100020f4:	0c12      	lsrs	r2, r2, #16
100020f6:	18c0      	adds	r0, r0, r3
100020f8:	4151      	adcs	r1, r2
100020fa:	4461      	add	r1, ip
100020fc:	4770      	bx	lr
	...

10002100 <__wrap___aeabi_frsub>:
10002100:	4048      	eors	r0, r1
10002102:	4041      	eors	r1, r0
10002104:	4048      	eors	r0, r1

10002106 <__wrap___aeabi_fsub>:
10002106:	4b0e      	ldr	r3, [pc, #56]	; (10002140 <__wrap___aeabi_fmul+0x6>)
10002108:	685b      	ldr	r3, [r3, #4]
1000210a:	4718      	bx	r3

1000210c <__wrap___aeabi_fadd>:
1000210c:	4b0c      	ldr	r3, [pc, #48]	; (10002140 <__wrap___aeabi_fmul+0x6>)
1000210e:	681b      	ldr	r3, [r3, #0]
10002110:	4718      	bx	r3

10002112 <__wrap___aeabi_fdiv>:
10002112:	4a0c      	ldr	r2, [pc, #48]	; (10002144 <__wrap___aeabi_fmul+0xa>)
10002114:	6f93      	ldr	r3, [r2, #120]	; 0x78
10002116:	089b      	lsrs	r3, r3, #2
10002118:	d202      	bcs.n	10002120 <fdiv_save_state>

1000211a <fdiv_shim_call>:
1000211a:	4b09      	ldr	r3, [pc, #36]	; (10002140 <__wrap___aeabi_fmul+0x6>)
1000211c:	68db      	ldr	r3, [r3, #12]
1000211e:	4718      	bx	r3

10002120 <fdiv_save_state>:
10002120:	b5f0      	push	{r4, r5, r6, r7, lr}
10002122:	6e14      	ldr	r4, [r2, #96]	; 0x60
10002124:	6e55      	ldr	r5, [r2, #100]	; 0x64
10002126:	6f57      	ldr	r7, [r2, #116]	; 0x74
10002128:	6f16      	ldr	r6, [r2, #112]	; 0x70
1000212a:	f7ff fff6 	bl	1000211a <fdiv_shim_call>
1000212e:	4a05      	ldr	r2, [pc, #20]	; (10002144 <__wrap___aeabi_fmul+0xa>)
10002130:	6614      	str	r4, [r2, #96]	; 0x60
10002132:	6655      	str	r5, [r2, #100]	; 0x64
10002134:	6757      	str	r7, [r2, #116]	; 0x74
10002136:	6716      	str	r6, [r2, #112]	; 0x70
10002138:	bdf0      	pop	{r4, r5, r6, r7, pc}

1000213a <__wrap___aeabi_fmul>:
1000213a:	4b01      	ldr	r3, [pc, #4]	; (10002140 <__wrap___aeabi_fmul+0x6>)
1000213c:	689b      	ldr	r3, [r3, #8]
1000213e:	4718      	bx	r3
10002140:	200006b0 	.word	0x200006b0
10002144:	d0000000 	.word	0xd0000000

10002148 <__wrap___aeabi_i2f>:
10002148:	0fc1      	lsrs	r1, r0, #31
1000214a:	07c9      	lsls	r1, r1, #31
1000214c:	d500      	bpl.n	10002150 <__wrap___aeabi_i2f+0x8>
1000214e:	4240      	negs	r0, r0
10002150:	2800      	cmp	r0, #0
10002152:	d017      	beq.n	10002184 <__aeabi_i2f_main+0x30>

10002154 <__aeabi_i2f_main>:
10002154:	46f4      	mov	ip, lr
10002156:	b403      	push	{r0, r1}
10002158:	4b0b      	ldr	r3, [pc, #44]	; (10002188 <__aeabi_i2f_main+0x34>)
1000215a:	681b      	ldr	r3, [r3, #0]
1000215c:	4798      	blx	r3
1000215e:	bc06      	pop	{r1, r2}
10002160:	4081      	lsls	r1, r0
10002162:	389e      	subs	r0, #158	; 0x9e
10002164:	4240      	negs	r0, r0
10002166:	3180      	adds	r1, #128	; 0x80
10002168:	d207      	bcs.n	1000217a <__aeabi_i2f_main+0x26>
1000216a:	060b      	lsls	r3, r1, #24
1000216c:	d007      	beq.n	1000217e <__aeabi_i2f_main+0x2a>
1000216e:	0049      	lsls	r1, r1, #1
10002170:	0a49      	lsrs	r1, r1, #9
10002172:	05c0      	lsls	r0, r0, #23
10002174:	4310      	orrs	r0, r2
10002176:	4308      	orrs	r0, r1
10002178:	4760      	bx	ip
1000217a:	3001      	adds	r0, #1
1000217c:	e7f8      	b.n	10002170 <__aeabi_i2f_main+0x1c>
1000217e:	0a49      	lsrs	r1, r1, #9
10002180:	0289      	lsls	r1, r1, #10
10002182:	e7f5      	b.n	10002170 <__aeabi_i2f_main+0x1c>
10002184:	4770      	bx	lr
10002186:	0000      	.short	0x0000
10002188:	200011f0 	.word	0x200011f0

1000218c <__wrap___aeabi_f2uiz>:
1000218c:	4b01      	ldr	r3, [pc, #4]	; (10002194 <__wrap___aeabi_f2uiz+0x8>)
1000218e:	6a5b      	ldr	r3, [r3, #36]	; 0x24
10002190:	4718      	bx	r3
10002192:	0000      	.short	0x0000
10002194:	200006b0 	.word	0x200006b0

10002198 <__aeabi_float_init>:
10002198:	2313      	movs	r3, #19
1000219a:	b510      	push	{r4, lr}
1000219c:	4812      	ldr	r0, [pc, #72]	; (100021e8 <__aeabi_float_init+0x50>)
1000219e:	781c      	ldrb	r4, [r3, #0]
100021a0:	f7ff fee4 	bl	10001f6c <rom_data_lookup>
100021a4:	0001      	movs	r1, r0
100021a6:	2c01      	cmp	r4, #1
100021a8:	d00a      	beq.n	100021c0 <__aeabi_float_init+0x28>
100021aa:	dd03      	ble.n	100021b4 <__aeabi_float_init+0x1c>
100021ac:	2280      	movs	r2, #128	; 0x80
100021ae:	480f      	ldr	r0, [pc, #60]	; (100021ec <__aeabi_float_init+0x54>)
100021b0:	f000 f848 	bl	10002244 <__wrap___aeabi_memcpy>
100021b4:	480e      	ldr	r0, [pc, #56]	; (100021f0 <__aeabi_float_init+0x58>)
100021b6:	f7ff fed1 	bl	10001f5c <rom_func_lookup>
100021ba:	4b0e      	ldr	r3, [pc, #56]	; (100021f4 <__aeabi_float_init+0x5c>)
100021bc:	6018      	str	r0, [r3, #0]
100021be:	bd10      	pop	{r4, pc}
100021c0:	4c0a      	ldr	r4, [pc, #40]	; (100021ec <__aeabi_float_init+0x54>)
100021c2:	2254      	movs	r2, #84	; 0x54
100021c4:	0020      	movs	r0, r4
100021c6:	f000 f83d 	bl	10002244 <__wrap___aeabi_memcpy>
100021ca:	4b0b      	ldr	r3, [pc, #44]	; (100021f8 <__aeabi_float_init+0x60>)
100021cc:	6563      	str	r3, [r4, #84]	; 0x54
100021ce:	65a3      	str	r3, [r4, #88]	; 0x58
100021d0:	65e3      	str	r3, [r4, #92]	; 0x5c
100021d2:	6623      	str	r3, [r4, #96]	; 0x60
100021d4:	6663      	str	r3, [r4, #100]	; 0x64
100021d6:	66a3      	str	r3, [r4, #104]	; 0x68
100021d8:	66e3      	str	r3, [r4, #108]	; 0x6c
100021da:	6723      	str	r3, [r4, #112]	; 0x70
100021dc:	6763      	str	r3, [r4, #116]	; 0x74
100021de:	67a3      	str	r3, [r4, #120]	; 0x78
100021e0:	67e3      	str	r3, [r4, #124]	; 0x7c
100021e2:	6223      	str	r3, [r4, #32]
100021e4:	61e3      	str	r3, [r4, #28]
100021e6:	e7e5      	b.n	100021b4 <__aeabi_float_init+0x1c>
100021e8:	00004653 	.word	0x00004653
100021ec:	200006b0 	.word	0x200006b0
100021f0:	0000334c 	.word	0x0000334c
100021f4:	200011f0 	.word	0x200011f0
100021f8:	100021fd 	.word	0x100021fd

100021fc <float_table_shim_on_use_helper>:
100021fc:	b507      	push	{r0, r1, r2, lr}
100021fe:	4660      	mov	r0, ip
10002200:	8801      	ldrh	r1, [r0, #0]
10002202:	0a0a      	lsrs	r2, r1, #8
10002204:	3002      	adds	r0, #2
10002206:	2adf      	cmp	r2, #223	; 0xdf
10002208:	d1fa      	bne.n	10002200 <float_table_shim_on_use_helper+0x4>
1000220a:	b2c9      	uxtb	r1, r1
1000220c:	0882      	lsrs	r2, r0, #2
1000220e:	d304      	bcc.n	1000221a <float_table_shim_on_use_helper+0x1e>
10002210:	8802      	ldrh	r2, [r0, #0]
10002212:	8840      	ldrh	r0, [r0, #2]
10002214:	0400      	lsls	r0, r0, #16
10002216:	4310      	orrs	r0, r2
10002218:	e000      	b.n	1000221c <float_table_shim_on_use_helper+0x20>
1000221a:	6800      	ldr	r0, [r0, #0]
1000221c:	4a01      	ldr	r2, [pc, #4]	; (10002224 <float_table_shim_on_use_helper+0x28>)
1000221e:	5050      	str	r0, [r2, r1]
10002220:	9003      	str	r0, [sp, #12]
10002222:	bd07      	pop	{r0, r1, r2, pc}
10002224:	200006b0 	.word	0x200006b0

10002228 <__aeabi_mem_init>:
10002228:	4801      	ldr	r0, [pc, #4]	; (10002230 <__aeabi_mem_init+0x8>)
1000222a:	2104      	movs	r1, #4
1000222c:	4b01      	ldr	r3, [pc, #4]	; (10002234 <__aeabi_mem_init+0xc>)
1000222e:	4718      	bx	r3
10002230:	20000420 	.word	0x20000420
10002234:	10001f7d 	.word	0x10001f7d

10002238 <__wrap_memset>:
10002238:	4b01      	ldr	r3, [pc, #4]	; (10002240 <__wrap_memset+0x8>)
1000223a:	681b      	ldr	r3, [r3, #0]
1000223c:	4718      	bx	r3
1000223e:	0000      	.short	0x0000
10002240:	20000420 	.word	0x20000420

10002244 <__wrap___aeabi_memcpy>:
10002244:	4b01      	ldr	r3, [pc, #4]	; (1000224c <__wrap___aeabi_memcpy+0x8>)
10002246:	685b      	ldr	r3, [r3, #4]
10002248:	4718      	bx	r3
1000224a:	0000      	.short	0x0000
1000224c:	20000420 	.word	0x20000420

10002250 <stdio_out_chars_no_crlf>:
10002250:	0003      	movs	r3, r0
10002252:	b510      	push	{r4, lr}
10002254:	0008      	movs	r0, r1
10002256:	0011      	movs	r1, r2
10002258:	681b      	ldr	r3, [r3, #0]
1000225a:	4798      	blx	r3
1000225c:	bd10      	pop	{r4, pc}
1000225e:	46c0      	nop			; (mov r8, r8)

10002260 <stdio_out_chars_crlf>:
10002260:	b5f0      	push	{r4, r5, r6, r7, lr}
10002262:	4646      	mov	r6, r8
10002264:	464f      	mov	r7, r9
10002266:	46d6      	mov	lr, sl
10002268:	b5c0      	push	{r6, r7, lr}
1000226a:	7c43      	ldrb	r3, [r0, #17]
1000226c:	4680      	mov	r8, r0
1000226e:	000e      	movs	r6, r1
10002270:	0017      	movs	r7, r2
10002272:	2b00      	cmp	r3, #0
10002274:	d046      	beq.n	10002304 <stdio_out_chars_crlf+0xa4>
10002276:	2a00      	cmp	r2, #0
10002278:	dd3f      	ble.n	100022fa <stdio_out_chars_crlf+0x9a>
1000227a:	1e4b      	subs	r3, r1, #1
1000227c:	4699      	mov	r9, r3
1000227e:	4b24      	ldr	r3, [pc, #144]	; (10002310 <stdio_out_chars_crlf+0xb0>)
10002280:	2501      	movs	r5, #1
10002282:	2400      	movs	r4, #0
10002284:	2000      	movs	r0, #0
10002286:	469a      	mov	sl, r3
10002288:	e00d      	b.n	100022a6 <stdio_out_chars_crlf+0x46>
1000228a:	464b      	mov	r3, r9
1000228c:	5d1b      	ldrb	r3, [r3, r4]
1000228e:	3b0d      	subs	r3, #13
10002290:	425a      	negs	r2, r3
10002292:	4153      	adcs	r3, r2
10002294:	5d32      	ldrb	r2, [r6, r4]
10002296:	b2db      	uxtb	r3, r3
10002298:	2a0a      	cmp	r2, #10
1000229a:	d00b      	beq.n	100022b4 <stdio_out_chars_crlf+0x54>
1000229c:	002b      	movs	r3, r5
1000229e:	3401      	adds	r4, #1
100022a0:	3501      	adds	r5, #1
100022a2:	429f      	cmp	r7, r3
100022a4:	dd1a      	ble.n	100022dc <stdio_out_chars_crlf+0x7c>
100022a6:	2c00      	cmp	r4, #0
100022a8:	d1ef      	bne.n	1000228a <stdio_out_chars_crlf+0x2a>
100022aa:	4643      	mov	r3, r8
100022ac:	5d32      	ldrb	r2, [r6, r4]
100022ae:	7c1b      	ldrb	r3, [r3, #16]
100022b0:	2a0a      	cmp	r2, #10
100022b2:	d1f3      	bne.n	1000229c <stdio_out_chars_crlf+0x3c>
100022b4:	2b00      	cmp	r3, #0
100022b6:	d1f1      	bne.n	1000229c <stdio_out_chars_crlf+0x3c>
100022b8:	42a0      	cmp	r0, r4
100022ba:	da04      	bge.n	100022c6 <stdio_out_chars_crlf+0x66>
100022bc:	4643      	mov	r3, r8
100022be:	1a21      	subs	r1, r4, r0
100022c0:	681b      	ldr	r3, [r3, #0]
100022c2:	1830      	adds	r0, r6, r0
100022c4:	4798      	blx	r3
100022c6:	4643      	mov	r3, r8
100022c8:	4650      	mov	r0, sl
100022ca:	681b      	ldr	r3, [r3, #0]
100022cc:	2102      	movs	r1, #2
100022ce:	4798      	blx	r3
100022d0:	3401      	adds	r4, #1
100022d2:	0028      	movs	r0, r5
100022d4:	002b      	movs	r3, r5
100022d6:	3501      	adds	r5, #1
100022d8:	429f      	cmp	r7, r3
100022da:	dce4      	bgt.n	100022a6 <stdio_out_chars_crlf+0x46>
100022dc:	4287      	cmp	r7, r0
100022de:	dd04      	ble.n	100022ea <stdio_out_chars_crlf+0x8a>
100022e0:	4643      	mov	r3, r8
100022e2:	1a39      	subs	r1, r7, r0
100022e4:	681b      	ldr	r3, [r3, #0]
100022e6:	1830      	adds	r0, r6, r0
100022e8:	4798      	blx	r3
100022ea:	19f6      	adds	r6, r6, r7
100022ec:	3e01      	subs	r6, #1
100022ee:	7833      	ldrb	r3, [r6, #0]
100022f0:	3b0d      	subs	r3, #13
100022f2:	425a      	negs	r2, r3
100022f4:	4153      	adcs	r3, r2
100022f6:	4642      	mov	r2, r8
100022f8:	7413      	strb	r3, [r2, #16]
100022fa:	bce0      	pop	{r5, r6, r7}
100022fc:	46ba      	mov	sl, r7
100022fe:	46b1      	mov	r9, r6
10002300:	46a8      	mov	r8, r5
10002302:	bdf0      	pop	{r4, r5, r6, r7, pc}
10002304:	6803      	ldr	r3, [r0, #0]
10002306:	0011      	movs	r1, r2
10002308:	0030      	movs	r0, r6
1000230a:	4798      	blx	r3
1000230c:	e7f5      	b.n	100022fa <stdio_out_chars_crlf+0x9a>
1000230e:	46c0      	nop			; (mov r8, r8)
10002310:	100050e0 	.word	0x100050e0

10002314 <stdio_put_string.isra.0>:
10002314:	b5f0      	push	{r4, r5, r6, r7, lr}
10002316:	4657      	mov	r7, sl
10002318:	464e      	mov	r6, r9
1000231a:	4645      	mov	r5, r8
1000231c:	46de      	mov	lr, fp
1000231e:	001c      	movs	r4, r3
10002320:	23d0      	movs	r3, #208	; 0xd0
10002322:	b5e0      	push	{r5, r6, r7, lr}
10002324:	061b      	lsls	r3, r3, #24
10002326:	681f      	ldr	r7, [r3, #0]
10002328:	4b34      	ldr	r3, [pc, #208]	; (100023fc <stdio_put_string.isra.0+0xe8>)
1000232a:	b083      	sub	sp, #12
1000232c:	0006      	movs	r6, r0
1000232e:	000d      	movs	r5, r1
10002330:	0018      	movs	r0, r3
10002332:	a901      	add	r1, sp, #4
10002334:	4691      	mov	r9, r2
10002336:	469a      	mov	sl, r3
10002338:	f002 fe5a 	bl	10004ff0 <__mutex_try_enter_veneer>
1000233c:	4680      	mov	r8, r0
1000233e:	2800      	cmp	r0, #0
10002340:	d108      	bne.n	10002354 <stdio_put_string.isra.0+0x40>
10002342:	9b01      	ldr	r3, [sp, #4]
10002344:	b27f      	sxtb	r7, r7
10002346:	429f      	cmp	r7, r3
10002348:	d004      	beq.n	10002354 <stdio_put_string.isra.0+0x40>
1000234a:	4650      	mov	r0, sl
1000234c:	f002 fe60 	bl	10005010 <__mutex_enter_blocking_veneer>
10002350:	2301      	movs	r3, #1
10002352:	4698      	mov	r8, r3
10002354:	1c6b      	adds	r3, r5, #1
10002356:	d103      	bne.n	10002360 <stdio_put_string.isra.0+0x4c>
10002358:	0030      	movs	r0, r6
1000235a:	f002 fdff 	bl	10004f5c <strlen>
1000235e:	0005      	movs	r5, r0
10002360:	2c00      	cmp	r4, #0
10002362:	d127      	bne.n	100023b4 <stdio_put_string.isra.0+0xa0>
10002364:	4f26      	ldr	r7, [pc, #152]	; (10002400 <stdio_put_string.isra.0+0xec>)
10002366:	4b27      	ldr	r3, [pc, #156]	; (10002404 <stdio_put_string.isra.0+0xf0>)
10002368:	681c      	ldr	r4, [r3, #0]
1000236a:	2c00      	cmp	r4, #0
1000236c:	d018      	beq.n	100023a0 <stdio_put_string.isra.0+0x8c>
1000236e:	464b      	mov	r3, r9
10002370:	2b00      	cmp	r3, #0
10002372:	d121      	bne.n	100023b8 <stdio_put_string.isra.0+0xa4>
10002374:	4b24      	ldr	r3, [pc, #144]	; (10002408 <stdio_put_string.isra.0+0xf4>)
10002376:	4699      	mov	r9, r3
10002378:	e002      	b.n	10002380 <stdio_put_string.isra.0+0x6c>
1000237a:	68e4      	ldr	r4, [r4, #12]
1000237c:	2c00      	cmp	r4, #0
1000237e:	d00f      	beq.n	100023a0 <stdio_put_string.isra.0+0x8c>
10002380:	6823      	ldr	r3, [r4, #0]
10002382:	2b00      	cmp	r3, #0
10002384:	d0f9      	beq.n	1000237a <stdio_put_string.isra.0+0x66>
10002386:	464b      	mov	r3, r9
10002388:	681b      	ldr	r3, [r3, #0]
1000238a:	2b00      	cmp	r3, #0
1000238c:	d001      	beq.n	10002392 <stdio_put_string.isra.0+0x7e>
1000238e:	42a3      	cmp	r3, r4
10002390:	d1f3      	bne.n	1000237a <stdio_put_string.isra.0+0x66>
10002392:	0020      	movs	r0, r4
10002394:	002a      	movs	r2, r5
10002396:	0031      	movs	r1, r6
10002398:	47b8      	blx	r7
1000239a:	68e4      	ldr	r4, [r4, #12]
1000239c:	2c00      	cmp	r4, #0
1000239e:	d1ef      	bne.n	10002380 <stdio_put_string.isra.0+0x6c>
100023a0:	4643      	mov	r3, r8
100023a2:	2b00      	cmp	r3, #0
100023a4:	d125      	bne.n	100023f2 <stdio_put_string.isra.0+0xde>
100023a6:	b003      	add	sp, #12
100023a8:	bcf0      	pop	{r4, r5, r6, r7}
100023aa:	46bb      	mov	fp, r7
100023ac:	46b2      	mov	sl, r6
100023ae:	46a9      	mov	r9, r5
100023b0:	46a0      	mov	r8, r4
100023b2:	bdf0      	pop	{r4, r5, r6, r7, pc}
100023b4:	4f15      	ldr	r7, [pc, #84]	; (1000240c <stdio_put_string.isra.0+0xf8>)
100023b6:	e7d6      	b.n	10002366 <stdio_put_string.isra.0+0x52>
100023b8:	4b13      	ldr	r3, [pc, #76]	; (10002408 <stdio_put_string.isra.0+0xf4>)
100023ba:	4699      	mov	r9, r3
100023bc:	230a      	movs	r3, #10
100023be:	469b      	mov	fp, r3
100023c0:	e002      	b.n	100023c8 <stdio_put_string.isra.0+0xb4>
100023c2:	68e4      	ldr	r4, [r4, #12]
100023c4:	2c00      	cmp	r4, #0
100023c6:	d0eb      	beq.n	100023a0 <stdio_put_string.isra.0+0x8c>
100023c8:	6823      	ldr	r3, [r4, #0]
100023ca:	2b00      	cmp	r3, #0
100023cc:	d0f9      	beq.n	100023c2 <stdio_put_string.isra.0+0xae>
100023ce:	464b      	mov	r3, r9
100023d0:	681b      	ldr	r3, [r3, #0]
100023d2:	2b00      	cmp	r3, #0
100023d4:	d001      	beq.n	100023da <stdio_put_string.isra.0+0xc6>
100023d6:	42a3      	cmp	r3, r4
100023d8:	d1f3      	bne.n	100023c2 <stdio_put_string.isra.0+0xae>
100023da:	002a      	movs	r2, r5
100023dc:	0031      	movs	r1, r6
100023de:	0020      	movs	r0, r4
100023e0:	47b8      	blx	r7
100023e2:	465a      	mov	r2, fp
100023e4:	466b      	mov	r3, sp
100023e6:	0020      	movs	r0, r4
100023e8:	711a      	strb	r2, [r3, #4]
100023ea:	a901      	add	r1, sp, #4
100023ec:	2201      	movs	r2, #1
100023ee:	47b8      	blx	r7
100023f0:	e7e7      	b.n	100023c2 <stdio_put_string.isra.0+0xae>
100023f2:	4650      	mov	r0, sl
100023f4:	f002 fdec 	bl	10004fd0 <__mutex_exit_veneer>
100023f8:	e7d5      	b.n	100023a6 <stdio_put_string.isra.0+0x92>
100023fa:	46c0      	nop			; (mov r8, r8)
100023fc:	20000484 	.word	0x20000484
10002400:	10002261 	.word	0x10002261
10002404:	20000dc4 	.word	0x20000dc4
10002408:	20000dc8 	.word	0x20000dc8
1000240c:	10002251 	.word	0x10002251

10002410 <__wrap_putchar>:
10002410:	b5f0      	push	{r4, r5, r6, r7, lr}
10002412:	46ce      	mov	lr, r9
10002414:	4647      	mov	r7, r8
10002416:	b580      	push	{r7, lr}
10002418:	b083      	sub	sp, #12
1000241a:	466b      	mov	r3, sp
1000241c:	1cde      	adds	r6, r3, #3
1000241e:	23d0      	movs	r3, #208	; 0xd0
10002420:	7030      	strb	r0, [r6, #0]
10002422:	061b      	lsls	r3, r3, #24
10002424:	681c      	ldr	r4, [r3, #0]
10002426:	4b1f      	ldr	r3, [pc, #124]	; (100024a4 <__wrap_putchar+0x94>)
10002428:	4680      	mov	r8, r0
1000242a:	a901      	add	r1, sp, #4
1000242c:	0018      	movs	r0, r3
1000242e:	4699      	mov	r9, r3
10002430:	f002 fdde 	bl	10004ff0 <__mutex_try_enter_veneer>
10002434:	1e07      	subs	r7, r0, #0
10002436:	d020      	beq.n	1000247a <__wrap_putchar+0x6a>
10002438:	4b1b      	ldr	r3, [pc, #108]	; (100024a8 <__wrap_putchar+0x98>)
1000243a:	681c      	ldr	r4, [r3, #0]
1000243c:	2c00      	cmp	r4, #0
1000243e:	d028      	beq.n	10002492 <__wrap_putchar+0x82>
10002440:	4d1a      	ldr	r5, [pc, #104]	; (100024ac <__wrap_putchar+0x9c>)
10002442:	e002      	b.n	1000244a <__wrap_putchar+0x3a>
10002444:	68e4      	ldr	r4, [r4, #12]
10002446:	2c00      	cmp	r4, #0
10002448:	d00f      	beq.n	1000246a <__wrap_putchar+0x5a>
1000244a:	6823      	ldr	r3, [r4, #0]
1000244c:	2b00      	cmp	r3, #0
1000244e:	d0f9      	beq.n	10002444 <__wrap_putchar+0x34>
10002450:	682b      	ldr	r3, [r5, #0]
10002452:	2b00      	cmp	r3, #0
10002454:	d001      	beq.n	1000245a <__wrap_putchar+0x4a>
10002456:	42a3      	cmp	r3, r4
10002458:	d1f4      	bne.n	10002444 <__wrap_putchar+0x34>
1000245a:	0020      	movs	r0, r4
1000245c:	2201      	movs	r2, #1
1000245e:	0031      	movs	r1, r6
10002460:	f7ff fefe 	bl	10002260 <stdio_out_chars_crlf>
10002464:	68e4      	ldr	r4, [r4, #12]
10002466:	2c00      	cmp	r4, #0
10002468:	d1ef      	bne.n	1000244a <__wrap_putchar+0x3a>
1000246a:	2f00      	cmp	r7, #0
1000246c:	d111      	bne.n	10002492 <__wrap_putchar+0x82>
1000246e:	4640      	mov	r0, r8
10002470:	b003      	add	sp, #12
10002472:	bcc0      	pop	{r6, r7}
10002474:	46b9      	mov	r9, r7
10002476:	46b0      	mov	r8, r6
10002478:	bdf0      	pop	{r4, r5, r6, r7, pc}
1000247a:	9b01      	ldr	r3, [sp, #4]
1000247c:	b264      	sxtb	r4, r4
1000247e:	429c      	cmp	r4, r3
10002480:	d00b      	beq.n	1000249a <__wrap_putchar+0x8a>
10002482:	4648      	mov	r0, r9
10002484:	f002 fdc4 	bl	10005010 <__mutex_enter_blocking_veneer>
10002488:	4b07      	ldr	r3, [pc, #28]	; (100024a8 <__wrap_putchar+0x98>)
1000248a:	2701      	movs	r7, #1
1000248c:	681c      	ldr	r4, [r3, #0]
1000248e:	2c00      	cmp	r4, #0
10002490:	d1d6      	bne.n	10002440 <__wrap_putchar+0x30>
10002492:	4648      	mov	r0, r9
10002494:	f002 fd9c 	bl	10004fd0 <__mutex_exit_veneer>
10002498:	e7e9      	b.n	1000246e <__wrap_putchar+0x5e>
1000249a:	4b03      	ldr	r3, [pc, #12]	; (100024a8 <__wrap_putchar+0x98>)
1000249c:	681c      	ldr	r4, [r3, #0]
1000249e:	2c00      	cmp	r4, #0
100024a0:	d1ce      	bne.n	10002440 <__wrap_putchar+0x30>
100024a2:	e7e4      	b.n	1000246e <__wrap_putchar+0x5e>
100024a4:	20000484 	.word	0x20000484
100024a8:	20000dc4 	.word	0x20000dc4
100024ac:	20000dc8 	.word	0x20000dc8

100024b0 <__wrap_puts>:
100024b0:	b570      	push	{r4, r5, r6, lr}
100024b2:	0004      	movs	r4, r0
100024b4:	f002 fd52 	bl	10004f5c <strlen>
100024b8:	2300      	movs	r3, #0
100024ba:	0001      	movs	r1, r0
100024bc:	0005      	movs	r5, r0
100024be:	2201      	movs	r2, #1
100024c0:	0020      	movs	r0, r4
100024c2:	f7ff ff27 	bl	10002314 <stdio_put_string.isra.0>
100024c6:	4b08      	ldr	r3, [pc, #32]	; (100024e8 <__wrap_puts+0x38>)
100024c8:	681c      	ldr	r4, [r3, #0]
100024ca:	2c00      	cmp	r4, #0
100024cc:	d006      	beq.n	100024dc <__wrap_puts+0x2c>
100024ce:	6863      	ldr	r3, [r4, #4]
100024d0:	2b00      	cmp	r3, #0
100024d2:	d005      	beq.n	100024e0 <__wrap_puts+0x30>
100024d4:	4798      	blx	r3
100024d6:	68e4      	ldr	r4, [r4, #12]
100024d8:	2c00      	cmp	r4, #0
100024da:	d1f8      	bne.n	100024ce <__wrap_puts+0x1e>
100024dc:	0028      	movs	r0, r5
100024de:	bd70      	pop	{r4, r5, r6, pc}
100024e0:	68e4      	ldr	r4, [r4, #12]
100024e2:	2c00      	cmp	r4, #0
100024e4:	d1f3      	bne.n	100024ce <__wrap_puts+0x1e>
100024e6:	e7f9      	b.n	100024dc <__wrap_puts+0x2c>
100024e8:	20000dc4 	.word	0x20000dc4

100024ec <stdio_set_driver_enabled>:
100024ec:	4a0d      	ldr	r2, [pc, #52]	; (10002524 <stdio_set_driver_enabled+0x38>)
100024ee:	6813      	ldr	r3, [r2, #0]
100024f0:	2b00      	cmp	r3, #0
100024f2:	d013      	beq.n	1000251c <stdio_set_driver_enabled+0x30>
100024f4:	4283      	cmp	r3, r0
100024f6:	d102      	bne.n	100024fe <stdio_set_driver_enabled+0x12>
100024f8:	e009      	b.n	1000250e <stdio_set_driver_enabled+0x22>
100024fa:	4298      	cmp	r0, r3
100024fc:	d008      	beq.n	10002510 <stdio_set_driver_enabled+0x24>
100024fe:	001a      	movs	r2, r3
10002500:	68db      	ldr	r3, [r3, #12]
10002502:	2b00      	cmp	r3, #0
10002504:	d1f9      	bne.n	100024fa <stdio_set_driver_enabled+0xe>
10002506:	2900      	cmp	r1, #0
10002508:	d000      	beq.n	1000250c <stdio_set_driver_enabled+0x20>
1000250a:	60d0      	str	r0, [r2, #12]
1000250c:	4770      	bx	lr
1000250e:	001a      	movs	r2, r3
10002510:	2900      	cmp	r1, #0
10002512:	d1fb      	bne.n	1000250c <stdio_set_driver_enabled+0x20>
10002514:	68db      	ldr	r3, [r3, #12]
10002516:	60d3      	str	r3, [r2, #12]
10002518:	60c1      	str	r1, [r0, #12]
1000251a:	e7f7      	b.n	1000250c <stdio_set_driver_enabled+0x20>
1000251c:	2900      	cmp	r1, #0
1000251e:	d0f5      	beq.n	1000250c <stdio_set_driver_enabled+0x20>
10002520:	6010      	str	r0, [r2, #0]
10002522:	e7f3      	b.n	1000250c <stdio_set_driver_enabled+0x20>
10002524:	20000dc4 	.word	0x20000dc4

10002528 <stdio_init_all>:
10002528:	b510      	push	{r4, lr}
1000252a:	f000 f845 	bl	100025b8 <stdio_uart_init>
1000252e:	f000 f997 	bl	10002860 <stdio_usb_init>
10002532:	bd10      	pop	{r4, pc}

10002534 <stdio_uart_out_chars>:
10002534:	b5f0      	push	{r4, r5, r6, r7, lr}
10002536:	1e0d      	subs	r5, r1, #0
10002538:	dd15      	ble.n	10002566 <stdio_uart_out_chars+0x32>
1000253a:	4b0e      	ldr	r3, [pc, #56]	; (10002574 <stdio_uart_out_chars+0x40>)
1000253c:	270d      	movs	r7, #13
1000253e:	681a      	ldr	r2, [r3, #0]
10002540:	4b0d      	ldr	r3, [pc, #52]	; (10002578 <stdio_uart_out_chars+0x44>)
10002542:	1945      	adds	r5, r0, r5
10002544:	18d3      	adds	r3, r2, r3
10002546:	4259      	negs	r1, r3
10002548:	414b      	adcs	r3, r1
1000254a:	490c      	ldr	r1, [pc, #48]	; (1000257c <stdio_uart_out_chars+0x48>)
1000254c:	005b      	lsls	r3, r3, #1
1000254e:	5e5e      	ldrsh	r6, [r3, r1]
10002550:	2120      	movs	r1, #32
10002552:	7804      	ldrb	r4, [r0, #0]
10002554:	42a6      	cmp	r6, r4
10002556:	d007      	beq.n	10002568 <stdio_uart_out_chars+0x34>
10002558:	6993      	ldr	r3, [r2, #24]
1000255a:	4219      	tst	r1, r3
1000255c:	d1fc      	bne.n	10002558 <stdio_uart_out_chars+0x24>
1000255e:	3001      	adds	r0, #1
10002560:	6014      	str	r4, [r2, #0]
10002562:	42a8      	cmp	r0, r5
10002564:	d1f5      	bne.n	10002552 <stdio_uart_out_chars+0x1e>
10002566:	bdf0      	pop	{r4, r5, r6, r7, pc}
10002568:	6993      	ldr	r3, [r2, #24]
1000256a:	4219      	tst	r1, r3
1000256c:	d1fc      	bne.n	10002568 <stdio_uart_out_chars+0x34>
1000256e:	6017      	str	r7, [r2, #0]
10002570:	e7f2      	b.n	10002558 <stdio_uart_out_chars+0x24>
10002572:	46c0      	nop			; (mov r8, r8)
10002574:	20001214 	.word	0x20001214
10002578:	bffc8000 	.word	0xbffc8000
1000257c:	20001210 	.word	0x20001210

10002580 <stdio_uart_in_chars>:
10002580:	b530      	push	{r4, r5, lr}
10002582:	0004      	movs	r4, r0
10002584:	1e0d      	subs	r5, r1, #0
10002586:	dd12      	ble.n	100025ae <stdio_uart_in_chars+0x2e>
10002588:	2000      	movs	r0, #0
1000258a:	2110      	movs	r1, #16
1000258c:	4b09      	ldr	r3, [pc, #36]	; (100025b4 <stdio_uart_in_chars+0x34>)
1000258e:	3c01      	subs	r4, #1
10002590:	681a      	ldr	r2, [r3, #0]
10002592:	6993      	ldr	r3, [r2, #24]
10002594:	4219      	tst	r1, r3
10002596:	d108      	bne.n	100025aa <stdio_uart_in_chars+0x2a>
10002598:	3001      	adds	r0, #1
1000259a:	6993      	ldr	r3, [r2, #24]
1000259c:	4219      	tst	r1, r3
1000259e:	d1fc      	bne.n	1000259a <stdio_uart_in_chars+0x1a>
100025a0:	6813      	ldr	r3, [r2, #0]
100025a2:	5423      	strb	r3, [r4, r0]
100025a4:	4285      	cmp	r5, r0
100025a6:	d1f4      	bne.n	10002592 <stdio_uart_in_chars+0x12>
100025a8:	bd30      	pop	{r4, r5, pc}
100025aa:	2800      	cmp	r0, #0
100025ac:	d1fc      	bne.n	100025a8 <stdio_uart_in_chars+0x28>
100025ae:	2003      	movs	r0, #3
100025b0:	4240      	negs	r0, r0
100025b2:	e7f9      	b.n	100025a8 <stdio_uart_in_chars+0x28>
100025b4:	20001214 	.word	0x20001214

100025b8 <stdio_uart_init>:
100025b8:	21e1      	movs	r1, #225	; 0xe1
100025ba:	b510      	push	{r4, lr}
100025bc:	4b0b      	ldr	r3, [pc, #44]	; (100025ec <stdio_uart_init+0x34>)
100025be:	480c      	ldr	r0, [pc, #48]	; (100025f0 <stdio_uart_init+0x38>)
100025c0:	781b      	ldrb	r3, [r3, #0]
100025c2:	4b0c      	ldr	r3, [pc, #48]	; (100025f4 <stdio_uart_init+0x3c>)
100025c4:	0249      	lsls	r1, r1, #9
100025c6:	781b      	ldrb	r3, [r3, #0]
100025c8:	4b0b      	ldr	r3, [pc, #44]	; (100025f8 <stdio_uart_init+0x40>)
100025ca:	6018      	str	r0, [r3, #0]
100025cc:	f7fe f888 	bl	100006e0 <uart_init>
100025d0:	2102      	movs	r1, #2
100025d2:	2000      	movs	r0, #0
100025d4:	f7fd ff94 	bl	10000500 <gpio_set_function>
100025d8:	2102      	movs	r1, #2
100025da:	2001      	movs	r0, #1
100025dc:	f7fd ff90 	bl	10000500 <gpio_set_function>
100025e0:	2101      	movs	r1, #1
100025e2:	4806      	ldr	r0, [pc, #24]	; (100025fc <stdio_uart_init+0x44>)
100025e4:	f7ff ff82 	bl	100024ec <stdio_set_driver_enabled>
100025e8:	bd10      	pop	{r4, pc}
100025ea:	46c0      	nop			; (mov r8, r8)
100025ec:	10005328 	.word	0x10005328
100025f0:	40034000 	.word	0x40034000
100025f4:	1000532c 	.word	0x1000532c
100025f8:	20001214 	.word	0x20001214
100025fc:	20000430 	.word	0x20000430

10002600 <resetd_init>:
10002600:	4770      	bx	lr
10002602:	46c0      	nop			; (mov r8, r8)

10002604 <resetd_reset>:
10002604:	2200      	movs	r2, #0
10002606:	4b01      	ldr	r3, [pc, #4]	; (1000260c <resetd_reset+0x8>)
10002608:	701a      	strb	r2, [r3, #0]
1000260a:	4770      	bx	lr
1000260c:	2000122e 	.word	0x2000122e

10002610 <resetd_open>:
10002610:	794b      	ldrb	r3, [r1, #5]
10002612:	2000      	movs	r0, #0
10002614:	2bff      	cmp	r3, #255	; 0xff
10002616:	d10b      	bne.n	10002630 <resetd_open+0x20>
10002618:	798b      	ldrb	r3, [r1, #6]
1000261a:	2b00      	cmp	r3, #0
1000261c:	d108      	bne.n	10002630 <resetd_open+0x20>
1000261e:	79cb      	ldrb	r3, [r1, #7]
10002620:	2b01      	cmp	r3, #1
10002622:	d105      	bne.n	10002630 <resetd_open+0x20>
10002624:	2a08      	cmp	r2, #8
10002626:	d903      	bls.n	10002630 <resetd_open+0x20>
10002628:	788a      	ldrb	r2, [r1, #2]
1000262a:	4b02      	ldr	r3, [pc, #8]	; (10002634 <resetd_open+0x24>)
1000262c:	3009      	adds	r0, #9
1000262e:	701a      	strb	r2, [r3, #0]
10002630:	4770      	bx	lr
10002632:	46c0      	nop			; (mov r8, r8)
10002634:	2000122e 	.word	0x2000122e

10002638 <resetd_xfer_cb>:
10002638:	2001      	movs	r0, #1
1000263a:	4770      	bx	lr

1000263c <resetd_control_xfer_cb>:
1000263c:	b570      	push	{r4, r5, r6, lr}
1000263e:	2900      	cmp	r1, #0
10002640:	d115      	bne.n	1000266e <resetd_control_xfer_cb+0x32>
10002642:	4915      	ldr	r1, [pc, #84]	; (10002698 <resetd_control_xfer_cb+0x5c>)
10002644:	7953      	ldrb	r3, [r2, #5]
10002646:	7910      	ldrb	r0, [r2, #4]
10002648:	7809      	ldrb	r1, [r1, #0]
1000264a:	021b      	lsls	r3, r3, #8
1000264c:	4303      	orrs	r3, r0
1000264e:	2000      	movs	r0, #0
10002650:	4299      	cmp	r1, r3
10002652:	d000      	beq.n	10002656 <resetd_control_xfer_cb+0x1a>
10002654:	bd70      	pop	{r4, r5, r6, pc}
10002656:	7853      	ldrb	r3, [r2, #1]
10002658:	2b01      	cmp	r3, #1
1000265a:	d00a      	beq.n	10002672 <resetd_control_xfer_cb+0x36>
1000265c:	2b02      	cmp	r3, #2
1000265e:	d1f9      	bne.n	10002654 <resetd_control_xfer_cb+0x18>
10002660:	2000      	movs	r0, #0
10002662:	2264      	movs	r2, #100	; 0x64
10002664:	2100      	movs	r1, #0
10002666:	f7ff fbf1 	bl	10001e4c <watchdog_reboot>
1000266a:	2001      	movs	r0, #1
1000266c:	e7f2      	b.n	10002654 <resetd_control_xfer_cb+0x18>
1000266e:	2001      	movs	r0, #1
10002670:	e7f0      	b.n	10002654 <resetd_control_xfer_cb+0x18>
10002672:	7894      	ldrb	r4, [r2, #2]
10002674:	78d2      	ldrb	r2, [r2, #3]
10002676:	0005      	movs	r5, r0
10002678:	0212      	lsls	r2, r2, #8
1000267a:	4314      	orrs	r4, r2
1000267c:	05d2      	lsls	r2, r2, #23
1000267e:	d502      	bpl.n	10002686 <resetd_control_xfer_cb+0x4a>
10002680:	0a62      	lsrs	r2, r4, #9
10002682:	4093      	lsls	r3, r2
10002684:	001d      	movs	r5, r3
10002686:	4805      	ldr	r0, [pc, #20]	; (1000269c <resetd_control_xfer_cb+0x60>)
10002688:	f7ff fc68 	bl	10001f5c <rom_func_lookup>
1000268c:	217f      	movs	r1, #127	; 0x7f
1000268e:	0003      	movs	r3, r0
10002690:	4021      	ands	r1, r4
10002692:	0028      	movs	r0, r5
10002694:	4798      	blx	r3
10002696:	46c0      	nop			; (mov r8, r8)
10002698:	2000122e 	.word	0x2000122e
1000269c:	00004255 	.word	0x00004255

100026a0 <usbd_app_driver_get_cb>:
100026a0:	2301      	movs	r3, #1
100026a2:	7003      	strb	r3, [r0, #0]
100026a4:	4800      	ldr	r0, [pc, #0]	; (100026a8 <usbd_app_driver_get_cb+0x8>)
100026a6:	4770      	bx	lr
100026a8:	10005124 	.word	0x10005124

100026ac <tud_cdc_line_coding_cb>:
100026ac:	7848      	ldrb	r0, [r1, #1]
100026ae:	780b      	ldrb	r3, [r1, #0]
100026b0:	788a      	ldrb	r2, [r1, #2]
100026b2:	0200      	lsls	r0, r0, #8
100026b4:	4318      	orrs	r0, r3
100026b6:	0412      	lsls	r2, r2, #16
100026b8:	4310      	orrs	r0, r2
100026ba:	2296      	movs	r2, #150	; 0x96
100026bc:	78cb      	ldrb	r3, [r1, #3]
100026be:	b510      	push	{r4, lr}
100026c0:	061b      	lsls	r3, r3, #24
100026c2:	4303      	orrs	r3, r0
100026c4:	00d2      	lsls	r2, r2, #3
100026c6:	4293      	cmp	r3, r2
100026c8:	d000      	beq.n	100026cc <tud_cdc_line_coding_cb+0x20>
100026ca:	bd10      	pop	{r4, pc}
100026cc:	4803      	ldr	r0, [pc, #12]	; (100026dc <tud_cdc_line_coding_cb+0x30>)
100026ce:	f7ff fc45 	bl	10001f5c <rom_func_lookup>
100026d2:	2100      	movs	r1, #0
100026d4:	0003      	movs	r3, r0
100026d6:	0008      	movs	r0, r1
100026d8:	4798      	blx	r3
100026da:	46c0      	nop			; (mov r8, r8)
100026dc:	00004255 	.word	0x00004255

100026e0 <stdio_usb_in_chars>:
100026e0:	b570      	push	{r4, r5, r6, lr}
100026e2:	4c18      	ldr	r4, [pc, #96]	; (10002744 <stdio_usb_in_chars+0x64>)
100026e4:	b082      	sub	sp, #8
100026e6:	0006      	movs	r6, r0
100026e8:	000d      	movs	r5, r1
100026ea:	0020      	movs	r0, r4
100026ec:	a901      	add	r1, sp, #4
100026ee:	f002 fc7f 	bl	10004ff0 <__mutex_try_enter_veneer>
100026f2:	2800      	cmp	r0, #0
100026f4:	d108      	bne.n	10002708 <stdio_usb_in_chars+0x28>
100026f6:	23d0      	movs	r3, #208	; 0xd0
100026f8:	061b      	lsls	r3, r3, #24
100026fa:	681b      	ldr	r3, [r3, #0]
100026fc:	9a01      	ldr	r2, [sp, #4]
100026fe:	429a      	cmp	r2, r3
10002700:	d01c      	beq.n	1000273c <stdio_usb_in_chars+0x5c>
10002702:	0020      	movs	r0, r4
10002704:	f002 fc84 	bl	10005010 <__mutex_enter_blocking_veneer>
10002708:	2000      	movs	r0, #0
1000270a:	f001 fe03 	bl	10004314 <tud_cdc_n_connected>
1000270e:	2800      	cmp	r0, #0
10002710:	d107      	bne.n	10002722 <stdio_usb_in_chars+0x42>
10002712:	2503      	movs	r5, #3
10002714:	426d      	negs	r5, r5
10002716:	0020      	movs	r0, r4
10002718:	f002 fc5a 	bl	10004fd0 <__mutex_exit_veneer>
1000271c:	0028      	movs	r0, r5
1000271e:	b002      	add	sp, #8
10002720:	bd70      	pop	{r4, r5, r6, pc}
10002722:	2000      	movs	r0, #0
10002724:	f001 fe0e 	bl	10004344 <tud_cdc_n_available>
10002728:	2800      	cmp	r0, #0
1000272a:	d0f2      	beq.n	10002712 <stdio_usb_in_chars+0x32>
1000272c:	002a      	movs	r2, r5
1000272e:	0031      	movs	r1, r6
10002730:	2000      	movs	r0, #0
10002732:	f001 fe13 	bl	1000435c <tud_cdc_n_read>
10002736:	1e05      	subs	r5, r0, #0
10002738:	d0eb      	beq.n	10002712 <stdio_usb_in_chars+0x32>
1000273a:	e7ec      	b.n	10002716 <stdio_usb_in_chars+0x36>
1000273c:	2503      	movs	r5, #3
1000273e:	426d      	negs	r5, r5
10002740:	e7ec      	b.n	1000271c <stdio_usb_in_chars+0x3c>
10002742:	46c0      	nop			; (mov r8, r8)
10002744:	200011f8 	.word	0x200011f8

10002748 <stdio_usb_out_chars>:
10002748:	b5f0      	push	{r4, r5, r6, r7, lr}
1000274a:	46de      	mov	lr, fp
1000274c:	464f      	mov	r7, r9
1000274e:	4646      	mov	r6, r8
10002750:	b5c0      	push	{r6, r7, lr}
10002752:	4b33      	ldr	r3, [pc, #204]	; (10002820 <stdio_usb_out_chars+0xd8>)
10002754:	b082      	sub	sp, #8
10002756:	4681      	mov	r9, r0
10002758:	000d      	movs	r5, r1
1000275a:	0018      	movs	r0, r3
1000275c:	a901      	add	r1, sp, #4
1000275e:	469b      	mov	fp, r3
10002760:	f002 fc46 	bl	10004ff0 <__mutex_try_enter_veneer>
10002764:	2800      	cmp	r0, #0
10002766:	d108      	bne.n	1000277a <stdio_usb_out_chars+0x32>
10002768:	23d0      	movs	r3, #208	; 0xd0
1000276a:	061b      	lsls	r3, r3, #24
1000276c:	681b      	ldr	r3, [r3, #0]
1000276e:	9a01      	ldr	r2, [sp, #4]
10002770:	429a      	cmp	r2, r3
10002772:	d04f      	beq.n	10002814 <stdio_usb_out_chars+0xcc>
10002774:	4658      	mov	r0, fp
10002776:	f002 fc4b 	bl	10005010 <__mutex_enter_blocking_veneer>
1000277a:	2000      	movs	r0, #0
1000277c:	f001 fdca 	bl	10004314 <tud_cdc_n_connected>
10002780:	2800      	cmp	r0, #0
10002782:	d03f      	beq.n	10002804 <stdio_usb_out_chars+0xbc>
10002784:	2400      	movs	r4, #0
10002786:	2d00      	cmp	r5, #0
10002788:	dd41      	ble.n	1000280e <stdio_usb_out_chars+0xc6>
1000278a:	4e26      	ldr	r6, [pc, #152]	; (10002824 <stdio_usb_out_chars+0xdc>)
1000278c:	e011      	b.n	100027b2 <stdio_usb_out_chars+0x6a>
1000278e:	464b      	mov	r3, r9
10002790:	2000      	movs	r0, #0
10002792:	1919      	adds	r1, r3, r4
10002794:	f001 fe56 	bl	10004444 <tud_cdc_n_write>
10002798:	4680      	mov	r8, r0
1000279a:	f000 fe49 	bl	10003430 <tud_task>
1000279e:	2000      	movs	r0, #0
100027a0:	f001 fe14 	bl	100043cc <tud_cdc_n_write_flush>
100027a4:	f7fe fc74 	bl	10001090 <time_us_64>
100027a8:	6030      	str	r0, [r6, #0]
100027aa:	6071      	str	r1, [r6, #4]
100027ac:	4444      	add	r4, r8
100027ae:	42ac      	cmp	r4, r5
100027b0:	da2d      	bge.n	1000280e <stdio_usb_out_chars+0xc6>
100027b2:	2000      	movs	r0, #0
100027b4:	f001 fe60 	bl	10004478 <tud_cdc_n_write_available>
100027b8:	1b2f      	subs	r7, r5, r4
100027ba:	0002      	movs	r2, r0
100027bc:	42b8      	cmp	r0, r7
100027be:	dd00      	ble.n	100027c2 <stdio_usb_out_chars+0x7a>
100027c0:	003a      	movs	r2, r7
100027c2:	2a00      	cmp	r2, #0
100027c4:	d1e3      	bne.n	1000278e <stdio_usb_out_chars+0x46>
100027c6:	f000 fe33 	bl	10003430 <tud_task>
100027ca:	2000      	movs	r0, #0
100027cc:	f001 fdfe 	bl	100043cc <tud_cdc_n_write_flush>
100027d0:	2000      	movs	r0, #0
100027d2:	f001 fd9f 	bl	10004314 <tud_cdc_n_connected>
100027d6:	2800      	cmp	r0, #0
100027d8:	d019      	beq.n	1000280e <stdio_usb_out_chars+0xc6>
100027da:	2000      	movs	r0, #0
100027dc:	f001 fe4c 	bl	10004478 <tud_cdc_n_write_available>
100027e0:	2800      	cmp	r0, #0
100027e2:	d1e4      	bne.n	100027ae <stdio_usb_out_chars+0x66>
100027e4:	f7fe fc54 	bl	10001090 <time_us_64>
100027e8:	6832      	ldr	r2, [r6, #0]
100027ea:	6873      	ldr	r3, [r6, #4]
100027ec:	000f      	movs	r7, r1
100027ee:	2100      	movs	r1, #0
100027f0:	4684      	mov	ip, r0
100027f2:	480d      	ldr	r0, [pc, #52]	; (10002828 <stdio_usb_out_chars+0xe0>)
100027f4:	1812      	adds	r2, r2, r0
100027f6:	414b      	adcs	r3, r1
100027f8:	429f      	cmp	r7, r3
100027fa:	d808      	bhi.n	1000280e <stdio_usb_out_chars+0xc6>
100027fc:	d1d7      	bne.n	100027ae <stdio_usb_out_chars+0x66>
100027fe:	4594      	cmp	ip, r2
10002800:	d9d5      	bls.n	100027ae <stdio_usb_out_chars+0x66>
10002802:	e004      	b.n	1000280e <stdio_usb_out_chars+0xc6>
10002804:	2000      	movs	r0, #0
10002806:	2100      	movs	r1, #0
10002808:	4b06      	ldr	r3, [pc, #24]	; (10002824 <stdio_usb_out_chars+0xdc>)
1000280a:	6018      	str	r0, [r3, #0]
1000280c:	6059      	str	r1, [r3, #4]
1000280e:	4658      	mov	r0, fp
10002810:	f002 fbde 	bl	10004fd0 <__mutex_exit_veneer>
10002814:	b002      	add	sp, #8
10002816:	bce0      	pop	{r5, r6, r7}
10002818:	46bb      	mov	fp, r7
1000281a:	46b1      	mov	r9, r6
1000281c:	46a8      	mov	r8, r5
1000281e:	bdf0      	pop	{r4, r5, r6, r7, pc}
10002820:	200011f8 	.word	0x200011f8
10002824:	200005a8 	.word	0x200005a8
10002828:	0007a120 	.word	0x0007a120

1000282c <timer_task>:
1000282c:	201f      	movs	r0, #31
1000282e:	b510      	push	{r4, lr}
10002830:	f7ff f930 	bl	10001a94 <irq_set_pending>
10002834:	20fa      	movs	r0, #250	; 0xfa
10002836:	2100      	movs	r1, #0
10002838:	0080      	lsls	r0, r0, #2
1000283a:	bd10      	pop	{r4, pc}

1000283c <low_priority_worker_irq>:
1000283c:	b510      	push	{r4, lr}
1000283e:	4c07      	ldr	r4, [pc, #28]	; (1000285c <low_priority_worker_irq+0x20>)
10002840:	2100      	movs	r1, #0
10002842:	0020      	movs	r0, r4
10002844:	f002 fbd4 	bl	10004ff0 <__mutex_try_enter_veneer>
10002848:	2800      	cmp	r0, #0
1000284a:	d100      	bne.n	1000284e <low_priority_worker_irq+0x12>
1000284c:	bd10      	pop	{r4, pc}
1000284e:	f000 fdef 	bl	10003430 <tud_task>
10002852:	0020      	movs	r0, r4
10002854:	f002 fbbc 	bl	10004fd0 <__mutex_exit_veneer>
10002858:	e7f8      	b.n	1000284c <low_priority_worker_irq+0x10>
1000285a:	46c0      	nop			; (mov r8, r8)
1000285c:	200011f8 	.word	0x200011f8

10002860 <stdio_usb_init>:
10002860:	b570      	push	{r4, r5, r6, lr}
10002862:	4b1e      	ldr	r3, [pc, #120]	; (100028dc <stdio_usb_init+0x7c>)
10002864:	b084      	sub	sp, #16
10002866:	781b      	ldrb	r3, [r3, #0]
10002868:	f001 ffee 	bl	10004848 <tusb_init>
1000286c:	201f      	movs	r0, #31
1000286e:	491c      	ldr	r1, [pc, #112]	; (100028e0 <stdio_usb_init+0x80>)
10002870:	f7ff f920 	bl	10001ab4 <irq_set_exclusive_handler>
10002874:	2101      	movs	r1, #1
10002876:	201f      	movs	r0, #31
10002878:	f7ff f8fa 	bl	10001a70 <irq_set_enabled>
1000287c:	4819      	ldr	r0, [pc, #100]	; (100028e4 <stdio_usb_init+0x84>)
1000287e:	f7fe fcfd 	bl	1000127c <mutex_init>
10002882:	f7fe f9f3 	bl	10000c6c <alarm_pool_get_default>
10002886:	0006      	movs	r6, r0
10002888:	f7fe fc02 	bl	10001090 <time_us_64>
1000288c:	22fa      	movs	r2, #250	; 0xfa
1000288e:	0004      	movs	r4, r0
10002890:	000d      	movs	r5, r1
10002892:	2300      	movs	r3, #0
10002894:	0092      	lsls	r2, r2, #2
10002896:	1912      	adds	r2, r2, r4
10002898:	416b      	adcs	r3, r5
1000289a:	4299      	cmp	r1, r3
1000289c:	d814      	bhi.n	100028c8 <stdio_usb_init+0x68>
1000289e:	d011      	beq.n	100028c4 <stdio_usb_init+0x64>
100028a0:	2101      	movs	r1, #1
100028a2:	9102      	str	r1, [sp, #8]
100028a4:	2100      	movs	r1, #0
100028a6:	9101      	str	r1, [sp, #4]
100028a8:	490f      	ldr	r1, [pc, #60]	; (100028e8 <stdio_usb_init+0x88>)
100028aa:	0030      	movs	r0, r6
100028ac:	9100      	str	r1, [sp, #0]
100028ae:	f7fe f9e1 	bl	10000c74 <alarm_pool_add_alarm_at>
100028b2:	0004      	movs	r4, r0
100028b4:	1e63      	subs	r3, r4, #1
100028b6:	419c      	sbcs	r4, r3
100028b8:	b2e4      	uxtb	r4, r4
100028ba:	2800      	cmp	r0, #0
100028bc:	d108      	bne.n	100028d0 <stdio_usb_init+0x70>
100028be:	0020      	movs	r0, r4
100028c0:	b004      	add	sp, #16
100028c2:	bd70      	pop	{r4, r5, r6, pc}
100028c4:	4290      	cmp	r0, r2
100028c6:	d9eb      	bls.n	100028a0 <stdio_usb_init+0x40>
100028c8:	2201      	movs	r2, #1
100028ca:	4252      	negs	r2, r2
100028cc:	17d3      	asrs	r3, r2, #31
100028ce:	e7e7      	b.n	100028a0 <stdio_usb_init+0x40>
100028d0:	2101      	movs	r1, #1
100028d2:	4806      	ldr	r0, [pc, #24]	; (100028ec <stdio_usb_init+0x8c>)
100028d4:	f7ff fe0a 	bl	100024ec <stdio_set_driver_enabled>
100028d8:	e7f1      	b.n	100028be <stdio_usb_init+0x5e>
100028da:	46c0      	nop			; (mov r8, r8)
100028dc:	10005330 	.word	0x10005330
100028e0:	1000283d 	.word	0x1000283d
100028e4:	200011f8 	.word	0x200011f8
100028e8:	1000282d 	.word	0x1000282d
